:020000040800F2
:1000000000800120711C00083D18000843180008FA
:10001000491800084F180008551800080000000093
:100020000000000000000000000000005B18000855
:1000300069180008000000007718000885180008FB
:10004000C11C0008C11C0008C11C0008C11C00081C
:10005000C11C0008C11C0008C11C0008C11C00080C
:10006000C11C0008C11C0008C11C0008C11C0008FC
:10007000C11C0008C11C0008C11C0008C11C0008EC
:10008000C11C0008C11C0008C11C0008C11C0008DC
:10009000C11C0008C11C0008C11C0008C11C0008CC
:1000A000C11C0008C11C0008C11C0008C11C0008BC
:1000B000C11C0008C11C0008C11C0008C11C0008AC
:1000C000C11C0008C11C0008C11C0008C11C00089C
:1000D000C11C000891180008A5180008C11C0008E0
:1000E000C11C0008C11C0008C11C0008C11C00087C
:1000F000C11C0008C11C0008C11C0008C11C00086C
:10010000C11C0008C11C0008C11C0008C11C00085B
:10011000C11C0008C11C0008C11C0008C11C00084B
:10012000C11C0008C11C0008C11C0008C11C00083B
:10013000C11C0008C11C0008C11C0008C11C00082B
:10014000C11C0008C11C0008C11C0008C11C00081B
:10015000C11C0008C11C0008C11C0008C11C00080B
:10016000C11C0008C11C0008C11C0008C11C0008FB
:10017000C11C0008C11C0008C11C000800000000D0
:08018000C11C0008C11C0008AD
:1001900010B5054C237833B9044B13B10448AFF3C1
:1001A00000800123237010BD040200200000000025
:1001B00044A3000808B5034B1BB103490348AFF340
:1001C000008008BD000000000802002044A30008D1
:1001D00001F0FF01102A2BDB10F0070F08D010F8F8
:1001E000013B013A8B422DD010F0070F42B3F6D1FC
:1001F000F0B441EA012141EA014122F007047FF015
:1002000000070023F0E80256083C85EA010586EA6B
:10021000010685FA47F5A3FA87F586FA47F6A5FAA7
:1002200087F68EB9EED1F0BC01F0FF0102F00702B3
:1002300032B110F8013B013A83EA010313B1F8D15E
:100240000020704701387047002D06BF354603383F
:10025000073815F0010F07D1013015F4807F02BF78
:10026000013015F4C03F0130F0BC0138704700BFC9
:10027000034613F8012B002AFBD1181A01387047E6
:1002800081F0004102E000BF83F0004330B54FEA47
:1002900041044FEA430594EA050F08BF90EA020FB4
:1002A0001FBF54EA000C55EA020C7FEA645C7FEA47
:1002B000655C00F0E2804FEA5454D4EB5555B8BF6A
:1002C0006D420CDD2C4480EA020281EA030382EADB
:1002D000000083EA010180EA020281EA0303362D6D
:1002E00088BF30BD11F0004F4FEA01314FF4801C40
:1002F0004CEA113102D0404261EB410113F0004F52
:100300004FEA03334CEA133302D0524263EB430308
:1003100094EA050F00F0A780A4F10104D5F1200EA6
:100320000DDB02FA0EFC22FA05F2801841F1000101
:1003300003FA0EF2801843FA05F359410EE0A5F1D5
:1003400020050EF1200E012A03FA0EFC28BF4CF006
:10035000020C43FA05F3C01851EBE37101F00045BC
:1003600007D54FF0000EDCF1000C7EEB00006EEBC9
:100370000101B1F5801F1BD3B1F5001F0CD3490853
:100380005FEA30004FEA3C0C04F101044FEA4452AA
:1003900012F5800F80F09A80BCF1004F08BF5FEA31
:1003A000500C50F1000041EB045141EA050130BD11
:1003B0005FEA4C0C404141EB0101013C28BFB1F523
:1003C000801FE9D291F0000F04BF01460020B1FA6E
:1003D00081F308BF2033A3F10B03B3F120020CDA41
:1003E0000C3208DD02F1140CC2F10C0201FA0CF01F
:1003F00021FA02F10CE002F11402D8BFC2F1200C84
:1004000001FA02F120FA0CFCDCBF41EA0C01904039
:10041000E41AA2BF01EB0451294330BD6FEA040482
:100420001F3C1CDA0C340EDC04F11404C4F120026D
:1004300020FA04F001FA02F340EA030021FA04F37F
:1004400045EA030130BDC4F10C04C4F1200220FAD6
:1004500002F001FA04F340EA0300294630BD21FA14
:1004600004F0294630BD94F0000F83F4801306BFDA
:1004700081F480110134013D4EE77FEA645C18BFCE
:100480007FEA655C29D094EA050F08BF90EA020F65
:1004900005D054EA000C04BF1946104630BD91EA5D
:1004A000030F1EBF0021002030BD5FEA545C05D160
:1004B0004000494128BF41F0004130BD14F580049F
:1004C0003CBF01F5801130BD01F0004545F0FE4113
:1004D00041F470014FF0000030BD7FEA645C1ABF48
:1004E000194610467FEA655C1CBF0B46024650EA7F
:1004F000013406BF52EA033591EA030F41F40021AB
:1005000030BD00BF90F0000F04BF0021704730B530
:100510004FF4806404F132044FF000054FF0000105
:1005200050E700BF90F0000F04BF0021704730B5C6
:100530004FF4806404F1320410F0004548BF40429B
:100540004FF000013EE700BF42004FEAE2014FEAF0
:1005500031014FEA02701FBF12F07F4393F07F4FCB
:1005600081F06051704732F07F4208BF704793F0CE
:100570007F4F04BF41F40021704730B54FF46074E1
:1005800001F0004521F000411CE700BF50EA0102E4
:1005900008BF704730B54FF000050AE050EA01028D
:1005A00008BF704730B511F0004502D5404261EBFD
:1005B00041014FF4806404F132045FEA915C3FF43E
:1005C000D8AE4FF003025FEADC0C18BF03325FEADB
:1005D000DC0C18BF033202EBDC02C2F1200300FA8C
:1005E00003FC20FA02F001FA03FE40EA0E0021FAB1
:1005F00002F11444BDE600BF70B54FF0FF0C4CF49F
:10060000E06C1CEA11541DBF1CEA135594EA0C0F50
:1006100095EA0C0F00F0DEF82C4481EA030621EA8B
:100620004C5123EA4C5350EA013518BF52EA0335C6
:1006300041F4801143F4801338D0A0FB02CE4FF078
:100640000005E1FB02E506F00042E0FB03E54FF0A8
:100650000006E1FB03569CF0000F18BF4EF0010EA0
:10066000A4F1FF04B6F5007F64F5407404D25FEA9C
:100670004E0E6D4146EB060642EAC62141EA55514F
:100680004FEAC52040EA5E504FEACE2EB4F1FD0C91
:1006900088BFBCF5E06F1ED8BEF1004F08BF5FEA0F
:1006A000500E50F1000041EB045170BD06F00046C1
:1006B00046EA010140EA020081EA0301B4EB5C046E
:1006C000C2BFD4EB0C0541EA045170BD41F4801166
:1006D0004FF0000E013C00F3AB8014F1360FDEBF8B
:1006E000002001F0004170BDC4F10004203C35DA67
:1006F0000C341BDC04F11404C4F1200500FA05F3EA
:1007000020FA04F001FA05F240EA020001F000428A
:1007100021F0004110EBD37021FA04F642EB060100
:100720005EEA430E08BF20EAD37070BDC4F10C042A
:10073000C4F1200500FA04F320FA05F001FA04F2EE
:1007400040EA020001F0004110EBD37041F10001DA
:100750005EEA430E08BF20EAD37070BDC4F12005E5
:1007600000FA05F24EEA020E20FA04F301FA05F24D
:1007700043EA020321FA04F001F0004121FA04F2F5
:1007800020EA020000EBD3705EEA430E08BF20EAC5
:10079000D37070BD94F0000F0FD101F000464000FF
:1007A00041EB010111F4801F08BF013CF7D041EA81
:1007B000060195F0000F18BF704703F00046520085
:1007C00043EB030313F4801F08BF013DF7D043EA56
:1007D0000603704794EA0C0F0CEA135518BF95EA0C
:1007E0000C0F0CD050EA410618BF52EA4306D1D193
:1007F00081EA030101F000414FF0000070BD50EAB2
:10080000410606BF1046194652EA430619D094EA3B
:100810000C0F02D150EA013613D195EA0C0F05D125
:1008200052EA03361CBF104619460AD181EA030179
:1008300001F0004141F0FE4141F470014FF0000031
:1008400070BD41F0FE4141F4780170BD70B54FF0CC
:10085000FF0C4CF4E06C1CEA11541DBF1CEA13554C
:1008600094EA0C0F95EA0C0F00F0A7F8A4EB05042E
:1008700081EA030E52EA03354FEA013100F0888025
:100880004FEA03334FF0805545EA131343EA1263EE
:100890004FEA022245EA111545EA10654FEA0026A3
:1008A0000EF000419D4208BF964244F1FD0404F55C
:1008B000407402D25B084FEA3202B61A65EB0305B8
:1008C0005B084FEA32024FF480104FF4002CB6EB75
:1008D000020E75EB030E22BFB61A754640EA0C00F5
:1008E0005B084FEA3202B6EB020E75EB030E22BF35
:1008F000B61A754640EA5C005B084FEA3202B6EB76
:10090000020E75EB030E22BFB61A754640EA9C0034
:100910005B084FEA3202B6EB020E75EB030E22BF04
:10092000B61A754640EADC0055EA060E18D04FEAC2
:10093000051545EA16754FEA06164FEAC30343EA62
:1009400052734FEAC2025FEA1C1CC0D111F4801F2F
:100950000BD141EA00014FF000004FF0004CB6E728
:1009600011F4801F04BF01430020B4F1FD0C88BFC7
:10097000BCF5E06F3FF6AFAEB5EB030C04BFB6EBD2
:10098000020C5FEA500C50F1000041EB045170BDC5
:100990000EF0004E4EEA113114EB5C04C2BFD4EBF2
:1009A0000C0541EA045170BD41F480114FF0000E76
:1009B000013C90E645EA060E8DE60CEA135594EAF2
:1009C0000C0F08BF95EA0C0F3FF43BAF94EA0C0FF5
:1009D0000AD150EA01347FF434AF95EA0C0F7FF46A
:1009E00025AF104619462CE795EA0C0F06D152EABE
:1009F00003353FF4FDAE1046194622E750EA4106A2
:100A000018BF52EA43067FF4C5AE50EA41047FF4B2
:100A10000DAF52EA43057FF4EBAE12E74FF0FF3C17
:100A200006E000BF4FF0010C02E000BF4FF0010CE8
:100A30004DF804CD4FEA410C7FEA6C5C4FEA430C61
:100A400018BF7FEA6C5C1BD001B050EA410C0CBFB0
:100A500052EA430C91EA030F02BF90EA020F002012
:100A6000704710F1000F91EA030F58BF994208BF79
:100A700090422CBFD8176FEAE37040F00100704736
:100A80004FEA410C7FEA6C5C02D150EA013C07D18D
:100A90004FEA430C7FEA6C5CD6D152EA033CD3D0D8
:100AA0005DF8040B704700BF8446104662468C46D2
:100AB0001946634600E000BF01B5FFF7B7FF002805
:100AC00048BF10F1000F01BD4DF808EDFFF7F4FF2E
:100AD0000CBF012000205DF808FB00BF4DF808EDB9
:100AE000FFF7EAFF34BF012000205DF808FB00BFDC
:100AF0004DF808EDFFF7E0FF94BF012000205DF8FE
:100B000008FB00BF4DF808EDFFF7CEFF94BF0120B2
:100B100000205DF808FB00BF4DF808EDFFF7C4FFAB
:100B200034BF012000205DF808FB00BF4FEA410CF4
:100B30007FEA6C5C02D150EA013C0AD14FEA430CD7
:100B40007FEA6C5C02D152EA033C02D14FF0000014
:100B500070474FF0010070474FEA410212F5001252
:100B600015D211D56FF47873B3EB625212D94FEAF4
:100B7000C12343F0004343EA505311F0004F23FADE
:100B800002F018BF404270474FF00000704750EA33
:100B9000013005D111F0004008BF6FF000407047F0
:100BA0004FF00000704700BF4A0011D212F500124A
:100BB00011D20DD56FF47873B3EB62520ED44FEAB5
:100BC000C12343F0004343EA505323FA02F0704735
:100BD0004FF00000704750EA013002D14FF0FF3073
:100BE00070474FF0000070474FEA4102B2F1E04316
:100BF00024BFB3F5001CDCF1FE5C0DD901F0004C04
:100C00004FEAC0024CEA5070B2F1004F40EB830053
:100C100008BF20F00100704711F0804F21D113F17F
:100C20003872BCBF01F00040704741F480114FEAB8
:100C30005252C2F11802C2F1200C10FA0CF320FA41
:100C400002F018BF40F001004FEAC1234FEAD3235E
:100C500003FA0CFC40EA0C0023FA02F34FEA4303C8
:100C6000CCE77FEA625307D150EA01331EBF4FF051
:100C7000FE4040F44000704701F0004040F0FE406C
:100C800040F40000704700BF53B94AB9002908BFBB
:100C900000281CBF4FF0FF314FF0FF3000F0A4B927
:100CA000ADF1080C6DE904CE00F03CF8DDF804E08D
:100CB000DDE9022304B0704738B500220023044662
:100CC0000D46FFF70BFF28B920462946BDE83840FE
:100CD00000F00AB8204605F1004100F005F8404256
:100CE00061EB410138BD00BFD0B50C4B0022064678
:100CF0000F46FFF781FCFFF757FF0446FFF702FCA2
:100D0000074B0022FFF778FC02460B463046394677
:100D1000FFF7BAFAFFF748FF2146D0BD0000F03DCB
:100D20000000F0412DE9F047089D04468C46002B59
:100D300040F083808A42174647D9B2FA82F242B124
:100D4000C2F1200024FA00F09140974040EA010CE3
:100D500094404FEA1748230CBCFBF8F61FFA87FEB5
:100D600008FB16C143EA014306FB0EF1994209D97B
:100D7000FB1806F1FF3080F01981994240F216818C
:100D8000023E3B445B1AA4B2B3FBF8F008FB1033FD
:100D900044EA034400FB0EFEA64509D93C1900F1C4
:100DA000FF3380F00581A64540F2028102383C44C1
:100DB00040EA0640A4EB0E0400261DB1D4400023F7
:100DC000C5E900433146BDE8F08702B9FFDEB2FA5B
:100DD00082F2002A50D1CB1B4FEA174E1FFA87F838
:100DE0000126B3FBFEFC210C0EFB1C3341EA034140
:100DF00008FB0CF38B4207D979180CF1FF3002D2B3
:100E00008B4200F2E9808446C91AA3B2B1FBFEF01E
:100E10000EFB101143EA014408FB00F8A04507D976
:100E20003C1900F1FF3302D2A04500F2D9801846E8
:100E3000A4EB080440EA0C40BFE78B4209D9002D1F
:100E400000F0B1800026C5E9000130463146BDE81A
:100E5000F087B3FA83F6002E4AD18B4202D3824246
:100E600000F2B880841A61EB030101208C46002D4A
:100E7000A8D0C5E9004CA5E7C2F1200320FA03F68B
:100E8000974001FA02F04FEA174ED9403043030C65
:100E9000B1FBFEF61FFA87F80EFB161143EA014379
:100EA00006FB08F1994204FA02F409D9FB1806F18D
:100EB000FF3C80F08D80994240F28A80023E3B44A4
:100EC0005B1A81B2B3FBFEF00EFB103341EA034123
:100ED00000FB08F38B4207D9791800F1FF3C73D26D
:100EE0008B4271D902383944CB1A40EA064678E77A
:100EF000C6F1200C03FA06F422FA0CF31C4320FA84
:100F00000CF701FA06F34FEA144E21FA0CF11F43D5
:100F10003B0CB1FBFEF91FFA84F80EFB191143EAF2
:100F2000014109FB08FA8A4502FA06F200FA06F3C3
:100F300008D9611809F1FF3048D28A4546D9A9F18C
:100F400002092144A1EB0A01BFB2B1FBFEF00EFB86
:100F5000101147EA014700FB08F8B84507D9E7191F
:100F600000F1FF312ED2B8452CD90238274440EA8F
:100F70000940A7EB0807A0FB02894F45C646494632
:100F80001AD317D05DB1B3EB0E0267EB010707FA76
:100F90000CFCF2404CEA0202F740C5E900270026AB
:100FA0003146BDE8F0872E4628460BE70646E9E6BF
:100FB0001846FDE64345E5D2B8EB020E69EB0401A5
:100FC0000138DFE70846D2E760468DE78146B9E79A
:100FD000664675E730464AE7ACF1020C394413E740
:100FE00002383C4424E700BF704700BF80B588B09A
:100FF00000AF07F10C0300221A605A609A60DA60B1
:101000001A61254BDB6C244A43F00403D364224B62
:10101000DB6C03F00403BB60BB681F4BDB6C1E4A38
:1010200043F00103D3641C4BDB6C03F001037B60D2
:101030007B68194BDB6C184A43F00203D364164BF0
:10104000DB6C03F002033B603B68002220214FF081
:10105000904001F0DBFC4FF40053FB6000233B6148
:1010600001237B6107F10C0319460C4801F00CFBCE
:101070002023FB6001233B6100237B610323BB61D1
:1010800007F10C0319464FF0904001F0FDFA00BF44
:101090002037BD4680BD00BF001002400008004858
:1010A00080B582B000AF786039603968786805F043
:1010B000E3FC034618460837BD4680BD80B582B0C4
:1010C00000AF00F0FEFD00F09FF8FFF78FFF00F08B
:1010D0001BFD00F0E9FC3E4804F03EFA3D4804F0F8
:1010E0004BFBC8233C4A3D49394804F079FAC823F0
:1010F000394A3B49364804F073FAC823364A39491D
:10110000334804F06DFA324B5B7F012B02D130483B
:1011100004F052FA4FF40051334801F05FFC0346EB
:10112000002B0CBF01230023DBB2002BEBD0C82027
:1011300000F03CFE2D49274804F064FB2C4925486B
:1011400004F060FB00237B607B68DE2B08DC7B689F
:101150001F33184604F09AF87B6801337B60F3E78D
:1011600024491C4804F038FB00F004FA0346012B24
:101170000CBF01230023DBB2002B04D01E4915480D
:1011800004F040FB03E01D49124804F03BFB002340
:101190003B603B68052B0CDC20214FF0904001F0B8
:1011A0004DFC4FF4FA7000F001FE3B6801333B60E8
:1011B000EFE7002220214FF0904001F027FC64234C
:1011C0000F4A1049024804F00BFA00F02EFF9AE78C
:1011D000200200204402002060A3000864A300084D
:1011E00068A3000874A300080008004880A3000852
:1011F000B4A30008C0A30008D8A30008F0A3000807
:1012000014A4000818A4000880B5B8B000AF07F116
:101210009C0344220021184604F088FC07F188034F
:1012200000221A605A609A60DA601A613B4688228E
:101230000021184604F07AFC0223C7F89C304FF4D2
:101240008073C7F8A8301023C7F8AC300023C7F864
:10125000C43007F19C03184601F06EFC0346002BD6
:1012600014BF01230023DBB2002B01D000F07CFA75
:101270000F23C7F888300123C7F88C300023C7F844
:1012800090300023C7F894300023C7F8983007F156
:1012900088030021184602F035F80346002B14BFDE
:1012A00001230023DBB2002B01D000F05DFA032301
:1012B0003B600023BB630023FB633B46184602F000
:1012C00027FA0346002B14BF01230023DBB2002BB7
:1012D00001D000F049FA4FF4007001F0D7FB03464B
:1012E000002B14BF01230023DBB2002B01D000F040
:1012F0003BFA00BFE037BD4680BD000080B582B03C
:1013000000AF78607B681B68094A934203D10948A3
:1013100004F032F907E07B681B68074A934202D168
:10132000064804F039FA00BF0837BD4680BD00BF4B
:101330000038014020020020004400404402002008
:1013400080B485B000AF03460A46FB711346BB71FB
:101350000023FB73FB792F2B05D9FB79392B02D89E
:10136000FB79303BFB73FB79602B05D9FB79662B4E
:1013700002D8FB79573BFB73FB79402B05D9FB79EE
:10138000462B02D8FB79373BFB73FB7B1B01FB73BE
:10139000BB792F2B0BD9BB79392B08D8BB79303BC4
:1013A000DBB25AB297F90F3013435BB2FB73BB79D0
:1013B000602B0BD9BB79662B08D8BB79573BDBB2C6
:1013C0005AB297F90F3013435BB2FB73BB79402BD2
:1013D0000BD9BB79462B08D8BB79373BDBB25AB265
:1013E00097F90F3013435BB2FB73FB7B184614373E
:1013F000BD465DF8047B704780B5AAB000AF786049
:101400003960544B00221A7008220021524804F01F
:101410008DFB00233B6707F174032B220021184644
:1014200004F084FB07F170003B684C4A4C4905F01E
:1014300003FB4C4804F0C0F807F1700141F2883317
:10144000494A484804F0CCF8032000F0AFFC0023E0
:10145000FB6007F1100360220021184604F066FBD0
:10146000424804F0D5FA03464149184605F004FB0A
:10147000024607F10C0311466422184604F02EFBC5
:10148000BB7CFA7C11461846FFF75AFF034687F8E3
:101490009F3007F10C0336491846FFF701FE03465B
:1014A000002B0CBF01230023DBB2002B03D0294B00
:1014B00001221A7040E097F89F30072B20D8254B67
:1014C00001221A700023C7F8A43097F89F30D7F88C
:1014D000A4209A4230DAD7F8A430093307F1A802E1
:1014E000134413F89C1C1B4AD7F8A430134401334F
:1014F0000A461A70D7F8A4300133C7F8A430E4E7DD
:101500000023C7F8A030D7F8A030072B14DCD7F899
:10151000A030093307F1A802134413F89C1C0D4AAC
:10152000D7F8A030134401330A461A70D7F8A03018
:101530000133C7F8A030E6E77B6806491A460B4638
:1015400003CB106051601B7813727868A837BD46D2
:1015500080BD00BF680200206902002024A40008AA
:1015600038A400082002002050A400082402002013
:1015700060A4000880B58AB000AF6423684A694956
:10158000694804F02DF80346002B0CBF012300230B
:10159000DBB2002B04D04FF4FA6000F007FCECE75C
:1015A000C8235F4A6149604804F01AF8C8235C4ABE
:1015B0005F495D4804F014F8002387F827300023C2
:1015C0003B6200233B755B4B1B787B7507F1160371
:1015D00000221A60C3F803203B46396A1846FFF719
:1015E0000BFF07F114033A461068516803C3127ADF
:1015F0001A703B7D012B12D13B6AB3F5006F0ED9F7
:101600004D4B1A683B6A1A4407F11403013319461B
:10161000104603F06BFE012387F8273071E03B7D15
:10162000012B03D13B6AB3F5006F6AD3424B1A68B2
:101630003B6A1A4407F1140301331946104603F0BC
:1016400055FE3B6A08333B623B6AB3F5466F04D1F3
:101650003A493B4804F0D6F84DE03B6AB3F5C75F22
:1016600004D13849364804F0CDF844E03B6A42F2F0
:101670006052934204D13449314804F0C3F83AE04F
:101680003B6A43F2E012934204D130492C4804F003
:10169000B9F830E03B6A43F66062934204D12C49CA
:1016A000274804F0AFF826E03B6A44F6E022934274
:1016B00004D12849224804F0A5F81CE03B6A45F211
:1016C0006072934204D124491D4804F09BF812E053
:1016D0003B6A46F2E032934204D12049184804F0B4
:1016E00091F808E03B6A47F2A062934203D11C499B
:1016F000134804F087F820214FF0904001F09EF944
:101700006AE797F82730012B03D116490C4804F0FB
:1017100079F897F8273018462837BD4680BD00BFB6
:1017200060A3000864A300082002002068A300084A
:1017300074A30008E8A400080000002068A40008C2
:101740004402002074A4000880A400088CA40008AF
:1017500098A40008A4A40008B0A40008BCA4000831
:10176000C8A40008D4A4000880B400AF72B600BFBB
:10177000FEE7000080B582B000AF786039607B681A
:10178000012B0CD13B684FF6FF72934207D10D49F4
:101790000D4803F09FFE0D490D4803F0ABFF7B6839
:1017A000002B0AD13B684FF6FF72934205D10848DF
:1017B00003F0BEFF044803F0ABFE00BF0837BD4690
:1017C00080BD00BF88020020200200200C03002002
:1017D0004402002080B500AF4FF6FF710120FFF7F3
:1017E000C9FF80BD80B500AF4FF6FF710020FFF745
:1017F000C1FF80BD80B483B000AF0F4B1B6E0E4A9B
:1018000043F0010313660C4B1B6E03F001037B6076
:101810007B68094B9B6D084A43F080539365064BE8
:101820009B6D03F080533B603B6800BF0C37BD46A7
:101830005DF8047B704700BF0010024080B400AF29
:10184000FEE780B400AFFEE780B400AFFEE780B4EF
:1018500000AFFEE780B400AFFEE780B400AF00BF8A
:10186000BD465DF8047B704780B400AF00BFBD4645
:101870005DF8047B704780B400AF00BFBD465DF8E3
:10188000047B704780B500AF00F070FA00BF80BDE8
:1018900080B500AF024802F01DFD00BF80BD00BF53
:1018A0008802002080B500AF024802F013FD00BF9F
:1018B00080BD00BF0C03002080B400AF0123184698
:1018C000BD465DF8047B704780B582B000AF78609C
:1018D000396004F0C9F8034616221A604FF0FF334E
:1018E00018460837BD4680BD80B582B000AF78602D
:1018F0004FF0FF317868FFF7E7FFFEE780B586B06D
:1019000000AFF860B9607A6000237B610AE0AFF352
:1019100000800146BB685A1CBA60CAB21A707B6963
:1019200001337B617A697B689A42F0DB7B681846F9
:101930001837BD4680BD80B586B000AFF860B9608D
:101940007A6000237B6109E0BB685A1CBA601B788F
:101950001846AFF300807B6901337B617A697B684D
:101960009A42F1DB7B6818461837BD4680BD80B4CB
:1019700083B000AF78604FF0FF3318460C37BD4698
:101980005DF8047B704780B483B000AF7860396045
:101990003B684FF400525A60002318460C37BD468E
:1019A0005DF8047B704780B483B000AF786001239A
:1019B00018460C37BD465DF8047B704780B485B08F
:1019C00000AFF860B9607A60002318461437BD464E
:1019D0005DF8047B7047000080B586B000AF78608A
:1019E000144A154BD31A7B617B693B61134B1B680F
:1019F000002B02D1114B124A1A60104B1A687B68F7
:101A000013443A699A4207D204F02EF803460C2296
:101A10001A604FF0FF3309E0084B1B68FB60074B6F
:101A20001A687B681344054A1360FB681846183728
:101A3000BD4680BD0080012000040000740200202B
:101A4000A803002080B400AF154BD3F88830144AA7
:101A500043F47003C2F88830124B1B68114A43F0FC
:101A6000010313600F4B00229A600E4B1B680D4A56
:101A700023F0A85323F4102313600A4B4FF4805231
:101A8000DA60084B1B68074A23F480231360054B78
:101A900000229A6100BFBD465DF8047B704700BF1D
:101AA00000ED00E00010024080B500AF144B154A75
:101AB0001A60134B4FF4E1325A60114B00229A60C6
:101AC0000F4B0022DA600E4B00221A610C4B0C22E5
:101AD0005A610B4B00229A61094B0022DA61084BD4
:101AE00000221A62064B00225A62054802F0CCFA24
:101AF0000346002B01D0FFF737FE00BF80BD00BFBB
:101B0000880200200038014080B500AF144B154A10
:101B10001A60134B4FF4E1325A60114B00229A6065
:101B20000F4B0022DA600E4B00221A610C4B0C2284
:101B30005A610B4B00229A61094B0022DA61084B73
:101B400000221A62064B00225A62054802F09CFAF3
:101B50000346002B01D0FFF707FE00BF80BD00BF8A
:101B60000C0300200044004080B58CB000AF7860CA
:101B700007F11C0300221A605A609A60DA601A6149
:101B80007B681B68364A934230D1364B1B6E354A10
:101B900043F480431366334B1B6E03F48043BB61F5
:101BA000BB69304BDB6C2F4A43F00203D3642D4BEF
:101BB000DB6C03F002037B617B69C023FB610223C2
:101BC0003B6200237B620323BB620723FB6207F1B6
:101BD0001C031946244800F057FD0022002125204F
:101BE00000F0F9F9252000F012FA35E07B681B6857
:101BF0001E4A934230D11B4B9B6D1A4A43F400336B
:101C00009365184B9B6D03F400333B613B69154BA7
:101C1000DB6C144A43F00103D364124BDB6C03F01A
:101C20000103FB60FB680C23FB6102233B62002382
:101C30007B620323BB620723FB6207F11C03194687
:101C40004FF0904000F020FD00220021262000F0FF
:101C5000C2F9262000F0DBF900BF3037BD4680BD59
:101C600000380140001002400004004800440040D9
:101C7000DFF834D0FFF7E6FE002103E00B4B5B58A2
:101C8000435004310A480B4B42189A42F6D30A4A91
:101C900002E0002342F8043B084B9A42F9D303F0D8
:101CA000E9FEFFF70BFAFEE7008001204CAA0008CE
:101CB000000000200402002004020020A4030020F1
:101CC000FEE780B582B000AF0023FB71032000F077
:101CD00077F9002000F00EF80346002B02D0012314
:101CE000FB7101E0FFF786FDFB7918460837BD461A
:101CF00080BD000080B584B000AF78600023FB7326
:101D0000174B1B78002B23D0164B1A68144B1B78EB
:101D100019464FF47A73B3FBF1F3B2FBF3F31846B1
:101D200000F087F90346002B0FD17B680F2B09D8F1
:101D3000002279684FF0FF3000F04DF90A4A7B68C5
:101D4000136007E00123FB7304E00123FB7301E050
:101D50000123FB73FB7B18461037BD4680BD00BFD7
:101D60000C000020040000200800002080B400AF18
:101D7000064B1B781A46064B1B681344044A136033
:101D800000BFBD465DF8047B704700BF0C0000201B
:101D90009003002080B400AF034B1B681846BD467B
:101DA0005DF8047B704700BF9003002080B584B0CD
:101DB00000AF7860FFF7EEFFB8607B68FB60FB6800
:101DC000B3F1FF3F05D00A4B1B781A46FB6813445A
:101DD000FB6000BFFFF7DEFF0246BB68D31AFA685C
:101DE0009A42F7D800BF00BF1037BD4680BD00BF84
:101DF0000C00002080B485B000AF78607B6803F0F1
:101E00000703FB600C4BDB68BB60BA684FF6FF034F
:101E10001340BB60FB681A02BB68134343F0BF6307
:101E200043F40033BB60044ABB68D36000BF14377F
:101E3000BD465DF8047B704700ED00E080B400AF64
:101E4000044BDB681B0A03F007031846BD465DF828
:101E5000047B704700ED00E080B483B000AF034620
:101E6000FB7197F90730002B0BDBFB7903F01F02A6
:101E7000074997F907305B09012000FA02F241F89F
:101E8000232000BF0C37BD465DF8047B704700BFC0
:101E900000E100E080B483B000AF03463960FB711D
:101EA00097F90730002B0ADB3B68DAB20C4997F947
:101EB00007301201D2B20B4483F800230AE03B68DA
:101EC000DAB20849FB7903F00F03043B1201D2B2E6
:101ED0000B441A7600BF0C37BD465DF8047B704793
:101EE00000E100E000ED00E080B489B000AFF860F0
:101EF000B9607A60FB6803F00703FB61FB69C3F11B
:101F00000703042B28BF0423BB61FB690433062BA2
:101F100002D9FB69033B00E000237B614FF0FF32F5
:101F2000BB6902FA03F3DA43BB681A407B699A4043
:101F30004FF0FF317B6901FA03F3D9437B680B4013
:101F4000134318462437BD465DF8047B70470000F4
:101F500080B400AFBFF34F8F00BF064BDB6803F4C4
:101F6000E0620449044B1343CB60BFF34F8F00BFC3
:101F700000BFFDE700ED00E00400FA0580B582B087
:101F800000AF78607B68013BB3F1807F01D3012310
:101F90000FE00A4A7B68013B53600F214FF0FF308E
:101FA000FFF778FF054B00229A60044B07221A6066
:101FB000002318460837BD4680BD00BF10E000E092
:101FC00080B582B000AF78607868FFF713FF00BF7C
:101FD0000837BD4680BD80B586B000AF0346B96006
:101FE0007A60FB7300237B61FFF728FF78617A68D2
:101FF000B9687869FFF778FF024697F90F30114604
:102000001846FFF747FF00BF1837BD4680BD80B5B3
:1020100082B000AF0346FB7197F907301846FFF70F
:102020001BFF00BF0837BD4680BD80B500AFFFF77E
:102030008FFF80B582B000AF78607868FFF79EFFB1
:10204000034618460837BD4680BD80B485B000AF52
:1020500078600023FB737B6893F82530DBB2022B9A
:1020600008D07B680422DA637B68002283F824208E
:10207000012322E07B681B681A687B681B6822F0DA
:102080000E021A607B681B681A687B681B6822F066
:1020900001021A607B685B6C03F01C027B681B6C9E
:1020A000012101FA02F25A607B68012283F825209F
:1020B0007B68002283F82420FB7B18461437BD463A
:1020C0005DF8047B704780B584B000AF7860002372
:1020D000FB737B6893F82530DBB2022B05D07B685D
:1020E0000422DA630123FB7329E07B681B681A680A
:1020F0007B681B6822F00E021A607B681B681A68F6
:102100007B681B6822F001021A607B685B6C03F03D
:102110001C027B681B6C012101FA02F25A607B6889
:10212000012283F825207B68002283F824207B6825
:102130009B6B002B03D07B689B6B78689847FB7B7D
:1021400018461037BD4680BD80B586B000AFF86038
:10215000B960C7E9002300233B612F4B1B78012B9B
:1021600001D1022353E02C4B01221A704CF2503063
:1021700000F094F80346FB75FB7D002B43D1264B02
:1021800000225A60254B1B6803F48063002B09D0A2
:10219000224B1B68214A23F4806313601E4B0222EA
:1021A0001A7702E01C4B00221A77FB68002B07D13C
:1021B000D7E90023B86800F0C7F801233B6110E0BD
:1021C000FB68012B02D0FB68022B0AD13B68194641
:1021D000B86800F0DFF8FB68022B02D14FF48023CF
:1021E0003B614CF2503000F059F80346FB753B69F7
:1021F000002B06D0094B5A693B69DB430749134062
:102200004B6100F0FDF9044B00221A70FB7D18466B
:102210001837BD4680BD00BF1000002000200240DE
:1022200080B483B000AF0023FB710B4B5B69002BC4
:102230000BDA094B094A9A60074B094A9A60064B28
:102240005B69002B01DA0123FB71FB7918460C371F
:10225000BD465DF8047B70470020024023016745BE
:10226000AB89EFCD80B400AF054B5B69044A43F006
:102270000043536100231846BD465DF8047B704758
:102280000020024080B400AF034B5B681846BD4697
:102290005DF8047B704700BF1000002080B584B05B
:1022A00000AF7860FFF776FDF8600DE07B68B3F172
:1022B000FF3F09D0FFF76EFD0246FB68D31A7A682C
:1022C0009A4201D8032337E01D4B1B6903F4803386
:1022D000002BEBD11A4B1A694CF2FA331340BB6056
:1022E000BB68002B1ED0174B5A68BB681343154AB6
:1022F0005360BB6803F04043002B07D0104B9A6932
:10230000BB6803F040430E4913438B61BB6823F065
:102310004043002B04D00A4ABB6823F040431361BA
:10232000012309E0064B1B6903F00103002B02D0D7
:10233000034B01221A61002318461037BD4680BDA9
:10234000002002401000002080B485B000AFF8608B
:10235000C7E900230E4B5B690D4A43F0010353614B
:10236000FB683A681A60BFF36F8F00BFD7E90001BE
:102370004FF000024FF000030A000023F968043117
:1023800013460B6000BF1437BD465DF8047B7047F1
:102390000020024080B489B000AF786039604023EB
:1023A000FB777B68BB613B687B61144B5B69134ABD
:1023B00043F480235361EFF31083FB60FB683B61C0
:1023C00072B600BF7B691A68BB691A60BB690433C7
:1023D000BB617B6904337B61FB7F013BFB77FB7F48
:1023E000002BEFD13B69BB60BB6883F3108800BF53
:1023F00000BF2437BD465DF8047B704700200240D3
:1024000080B584B000AF786039604C4B1B78012BED
:1024100001D102238DE0494B01221A704CF2503059
:10242000FFF73CFF0346FB73FB7B002B7DD1434B47
:1024300000225A60424B1B6803F40073002B19D032
:102440003F4B1B683E4A23F4007313603C4B1B68F0
:1024500003F48063002B09D0394B1B68384A23F4FE
:1024600080631360354B03221A7716E0334B012249
:102470001A7712E0324B1B6803F48063002B09D0FB
:102480002F4B1B682E4A23F4806313602B4B0222D0
:102490001A7702E0294B00221A777B681B68012B10
:1024A00013D17B685B68184600F04CF84CF2503052
:1024B000FFF7F4FE0346FB73214B5B69204A23F4CC
:1024C000004323F0040353612DE03B684FF0FF32DB
:1024D0001A607B689B68BB601DE07B685B6819467F
:1024E000B86800F057F84CF25030FFF7D7FE0346BB
:1024F000FB73134B5B69124A23F4FF6323F002035F
:102500005361FB7B002B03D03B68BA681A600AE07A
:10251000BB680133BB607B689A687B68DB681344E7
:10252000BA689A42D9D300F06BF8044B00221A70B3
:10253000FB7B18461037BD4680BD00BF1000002051
:102540000020024080B483B000AF78607B6803F065
:102550000103002B05D00E4B5B690D4A43F00403C9
:1025600053617B6803F00203002B05D0084B5B69C5
:10257000074A43F400435361054B5B69044A43F443
:102580008033536100BF0C37BD465DF8047B704754
:102590000020024080B483B000AF786039603B68AF
:1025A00003F00103002B06D0144B5B69134A23F49C
:1025B0000063536105E0114B5B69104A43F400630B
:1025C00053610E4B5B6923F4FF627B68DB0003F40D
:1025D000FF630A4913434B61084B5B69074A43F0A9
:1025E00002035361054B5B69044A43F48033536132
:1025F00000BF0C37BD465DF8047B704700200240E9
:1026000080B483B000AF1E4B1B7FFB71FB79012BA5
:1026100002D0FB79032B11D11A4B1B68194A43F4E2
:1026200000631360174B1B68164A23F400631360A2
:10263000144B1B68134A43F400731360FB79022B9D
:1026400002D0FB79032B11D10E4B1B680D4A43F4CA
:10265000805313600B4B1B680A4A23F480531360AA
:10266000084B1B68074A43F480631360044B002245
:102670001A7700BF0C37BD465DF8047B704700BF7A
:10268000100000200020024080B487B000AF7860C6
:10269000396000237B617FE13B681A6801217B6917
:1026A00001FA03F31340FB60FB68002B00F071811B
:1026B0003B685B68012B0BD03B685B68022B07D043
:1026C0003B685B68112B03D03B685B68122B30D1F1
:1026D0007B689B683B617B695B00032202FA03F322
:1026E000DB433A6913403B613B68DA687B695B0016
:1026F00002FA03F33A6913433B617B683A699A60D3
:102700007B685B683B6101227B6902FA03F3DB4370
:102710003A6913403B613B685B681B0903F00102A7
:102720007B6902FA03F33A6913433B617B683A69B8
:102730005A603B685B6803F00303032B18D17B6886
:10274000DB6A3B6101227B6902FA03F3DB433A69EE
:1027500013403B613B685B68DB0803F001027B6967
:1027600002FA03F33A6913433B617B683A69DA6220
:102770007B68DB683B617B695B00032202FA03F341
:10278000DB433A6913403B613B689A687B695B00B5
:1027900002FA03F33A6913433B617B683A69DA60F2
:1027A0003B685B68022B03D03B685B68122B23D12C
:1027B0007B69DA087B68083253F822303B617B6919
:1027C00003F007039B000F2202FA03F3DB433A698D
:1027D00013403B613B681A697B6903F007039B0068
:1027E00002FA03F33A6913433B617B69DA087B68B9
:1027F0000832396943F822107B681B683B617B69AA
:102800005B00032202FA03F3DB433A6913403B61A6
:102810003B685B6803F003027B695B0002FA03F329
:102820003A6913433B617B683A691A603B685B68AD
:1028300003F08053002B00F0AC805F4B1B6E5E4AB0
:1028400043F0010313665C4B1B6E03F00103BB6096
:10285000BB685A4A7B699B08023352F823303B61BC
:102860007B6903F003039B000F2202FA03F3DB43AF
:102870003A6913403B617B68B3F1904F25D07B6888
:102880004F4A93421FD07B684E4A934219D07B68CF
:102890004D4A934213D07B684C4A93420DD07B68DB
:1028A0004B4A934207D07B684A4A934201D10623A0
:1028B0000CE007230AE0052308E0042306E00323D5
:1028C00004E0022302E0012300E000237A6902F021
:1028D0000302920093403A6913433B6137497B6995
:1028E0009B0802333A6941F823203B4B1B683B614C
:1028F000FB68DB433A6913403B613B685B6803F468
:102900008033002B03D03A69FB6813433B61324AA2
:102910003B691360304B5B683B61FB68DB433A69A2
:1029200013403B613B685B6803F40033002B03D02A
:102930003A69FB6813433B61274A3B695360264B66
:102940009B683B61FB68DB433A6913403B613B6832
:102950005B6803F48013002B03D03A69FB681343D0
:102960003B611D4A3B6993601B4BDB683B61FB6825
:10297000DB433A6913403B613B685B6803F4001337
:10298000002B03D03A69FB6813433B61124A3B6951
:10299000D3607B6901337B613B681A687B6922FAEB
:1029A00003F3002B7FF478AE00BF00BF1C37BD4699
:1029B0005DF8047B704700BF00100240000001403A
:1029C0000004004800080048000C004800100048BF
:1029D00000140048001800480004014080B485B08D
:1029E00000AF78600B467B807B681A697B88134058
:1029F000002B02D00123FB7301E00023FB73FB7B60
:102A000018461437BD465DF8047B704780B483B028
:102A100000AF78600B467B8013467B707B78002B81
:102A200003D07A887B689A6102E07A887B689A6230
:102A300000BF0C37BD465DF8047B704780B485B09D
:102A400000AF78600B467B807B685B69FB607A88AF
:102A5000FB6813401A04FB68D9437B880B401A4378
:102A60007B689A6100BF1437BD465DF8047B7047F0
:102A700080B400AF044B1B6803F4C0631846BD4626
:102A80005DF8047B704700BF0070004080B485B0E3
:102A900000AF78607B68B3F5007F30D1234B1B68B3
:102AA00003F4C063B3F5007F38D0204B1B6823F4D8
:102AB000C0631E4A43F4007313601D4B1B6832222F
:102AC00002FB03F31B4AA2FB03239B0C0133FB60B5
:102AD00002E0FB68013BFB60144B5B6903F480631D
:102AE000B3F5806F02D1FB68002BF2D10F4B5B690D
:102AF00003F48063B3F5806F10D103230FE00B4B19
:102B00001B6803F4C063B3F5806F07D0074B1B68E5
:102B100023F4C063054A43F480631360002318461E
:102B20001437BD465DF8047B704700BF007000405D
:102B30000400002083DE1B4380B588B000AF7860BE
:102B40007B68002B01D10123D4E3A14B9B6803F0E8
:102B50000C03BB619E4BDB6803F003037B617B6866
:102B60001B6803F01003002B00F0E480BB69002B0E
:102B700007D0BB690C2B40F08B807B69012B40F0A8
:102B80008780934B1B6803F00203002B05D07B6802
:102B90009B69002B01D10123ACE37B681A6A8C4B43
:102BA0001B6803F00803002B04D0894B1B6803F05B
:102BB000F00305E0864BD3F894301B0903F0F003D3
:102BC000934223D27B681B6A184600F041FD0346FE
:102BD000002B01D001238DE37D4B1B687C4A43F021
:102BE000080313607A4B1B6823F0F0027B681B6AB2
:102BF000774913430B60764B5B6823F47F427B6815
:102C0000DB691B02724913434B6025E0704B1B6864
:102C10006F4A43F0080313606D4B1B6823F0F0020A
:102C20007B681B6A6A4913430B60694B5B6823F43A
:102C30007F427B68DB691B02654913434B60BB69BC
:102C4000002B09D17B681B6A184600F001FD034682
:102C5000002B01D001234DE300F036FC02465C4B13
:102C60009B681B0903F00F035A49CB5C03F01F0359
:102C700022FA03F3584A1360584B1B681846FFF7B3
:102C800039F80346FB73FB7B002B52D0FB7B31E30F
:102C90007B689B69002B32D04D4B1B684C4A43F03C
:102CA00001031360FFF776F8386108E0FFF772F868
:102CB00002463B69D31A022B01D903231AE3444B82
:102CC0001B6803F00203002BF0D0414B1B68404A05
:102CD00043F0080313603E4B1B6823F0F0027B684F
:102CE0001B6A3B4913430B60394B5B6823F47F42FB
:102CF0007B68DB691B02364913434B601AE0344B97
:102D00001B68334A23F001031360FFF743F838616F
:102D100008E0FFF73FF802463B69D31A022B01D9BE
:102D20000323E7E22A4B1B6803F00203002BF0D1D8
:102D300000E000BF7B681B6803F00103002B74D028
:102D4000BB69082B05D0BB690C2B0ED17B69032B0B
:102D50000BD11F4B1B6803F40033002B64D07B683E
:102D60005B68002B60D10123C4E27B685B68B3F52C
:102D7000803F06D1164B1B68154A43F4803313601D
:102D80001DE07B685B68B3F5A02F0CD1104B1B686E
:102D90000F4A43F4802313600D4B1B680C4A43F425
:102DA000803313600BE00A4B1B68094A23F480331D
:102DB0001360074B1B68064A23F4802313607B686B
:102DC0005B68002B1CD0FEF7E5FF386111E000BF07
:102DD00000100240FCA400080400002008000020AD
:102DE000FEF7D8FF02463B69D31A642B01D90323AF
:102DF00080E2AF4B1B6803F40033002BF0D014E0EB
:102E0000FEF7C8FF386108E0FEF7C4FF02463B69E1
:102E1000D31A642B01D903236CE2A54B1B6803F47E
:102E20000033002BF0D100E000BF7B681B6803F08B
:102E30000203002B60D0BB69042B05D0BB690C2BAF
:102E400019D17B69022B16D1994B1B6803F480635F
:102E5000002B05D07B68DB68002B01D1012349E200
:102E6000934B5B6823F0F8527B681B691B06904903
:102E700013434B6040E07B68DB68002B23D08C4B16
:102E80001B688B4A43F480731360FEF783FF38613D
:102E900008E0FEF77FFF02463B69D31A022B01D9F7
:102EA000032327E2824B1B6803F48063002BF0D0DE
:102EB0007F4B5B6823F0F8527B681B691B067C49DB
:102EC00013434B6018E07A4B1B68794A23F48073F4
:102ED0001360FEF75FFF386108E0FEF75BFF024614
:102EE0003B69D31A022B01D9032303E2704B1B6801
:102EF00003F48063002BF0D17B681B6803F00803A8
:102F0000002B3CD07B685B69002B1CD0684BD3F84E
:102F10009430674A43F00103C2F89430FEF73AFF59
:102F2000386108E0FEF736FF02463B69D31A022BF0
:102F300001D90323DEE15E4BD3F8943003F00203A2
:102F4000002BEFD01BE05A4BD3F89430584A23F0B3
:102F50000103C2F89430FEF71DFF386108E0FEF768
:102F600019FF02463B69D31A022B01D90323C1E1A1
:102F70004F4BD3F8943003F00203002BEFD17B6862
:102F80001B6803F00403002B00F0A6800023FB77EE
:102F9000474B9B6D03F08053002B0DD1444B9B6D31
:102FA000434A43F080539365414B9B6D03F080533C
:102FB000BB60BB680123FB773E4B1B6803F4807347
:102FC000002B18D13B4B1B683A4A43F480731360C3
:102FD000FEF7E0FE386108E0FEF7DCFE02463B69E2
:102FE000D31A022B01D9032384E1324B1B6803F46B
:102FF0008073002BF0D07B689B68012B08D12C4B91
:10300000D3F890302A4A43F00103C2F8903024E00C
:103010007B689B68052B10D1254BD3F89030244A50
:1030200043F00403C2F89030214BD3F89030204A8B
:1030300043F00103C2F890300FE01D4BD3F89030FD
:103040001B4A23F00103C2F89030194BD3F890309B
:10305000174A23F00403C2F890307B689B68002B6A
:1030600016D0FEF797FE38610AE0FEF793FE02469F
:103070003B69D31A41F28832934201D9032339E1E3
:103080000B4BD3F8903003F00203002BEDD01AE085
:10309000FEF780FE38610FE0FEF77CFE02463B69DA
:1030A000D31A41F28832934206D9032322E100BFAA
:1030B0000010024000700040904BD3F8903003F0B5
:1030C0000203002BE8D1FB7F012B05D18B4B9B6DBD
:1030D0008A4A23F0805393657B689B6A002B00F03B
:1030E00008817B689B6A022B40F0D080834BDB68B1
:1030F0007B617B6903F003027B68DB6A9A4230D113
:103100007B6903F070027B681B6B013B1B019A42D9
:1031100027D17B6903F4FE427B685B6B1B029A42FA
:103120001FD17B6903F400337A68926B072A14BFBE
:1031300001220022D2B2934213D17B6903F4C00270
:103140007B68DB6B5B08013B5B059A4209D17B69BD
:1031500003F0C0627B681B6C5B08013B5B069A4214
:103160006ED0BB690C2B69D0644B1B6803F0806385
:10317000002B05D1614B1B6803F08053002B01D05D
:103180000123B7E05D4B1B685C4A23F0807313603A
:10319000FEF700FE386108E0FEF7FCFD02463B69E1
:1031A000D31A022B01D90323A4E0544B1B6803F06C
:1031B0000073002BF0D1514BDA68514B13407A6801
:1031C000D16A7A68126B013A120111437A68526B24
:1031D000120211437A68D26B5208013A5205114328
:1031E0007A68126C5208013A520611437A68926B5F
:1031F000120952040A4341491343CB603F4B1B68F9
:103200003E4A43F0807313603C4BDB683B4A43F01B
:103210008073D360FEF7BEFD386108E0FEF7BAFDAB
:1032200002463B69D31A022B01D9032362E0334BD8
:103230001B6803F00073002BF0D05AE0012359E023
:103240002E4B1B6803F00073002B52D12B4B1B68D5
:103250002A4A43F080731360284BDB68274A43F007
:103260008073D360FEF796FD386108E0FEF792FDAB
:1032700002463B69D31A022B01D903233AE01F4BC4
:103280001B6803F00073002BF0D032E0BB690C2BFD
:103290002DD01A4B1B68194A23F080731360174B0B
:1032A0001B6803F02053002B05D1144BDB68134A35
:1032B00023F00303D360114BDB68104A23F08873BB
:1032C00023F48033D360FEF765FD386108E0FEF734
:1032D00061FD02463B69D31A022B01D9032309E0A1
:1032E000064B1B6803F00073002BF0D101E00123B3
:1032F00000E0002318462037BD4680BD0010024084
:103300008C809DF980B584B000AF786039607B68AF
:10331000002B01D10123C8E0664B1B6803F00703B3
:103320003A689A4210D9634B1B6823F0070261493F
:103330003B6813430B605F4B1B6803F007033A685D
:103340009A4201D00123B0E07B681B6803F00103BF
:10335000002B4CD07B685B68032B07D1564B1B6856
:1033600003F00073002B21D101239EE07B685B6892
:10337000022B07D1504B1B6803F40033002B15D1EF
:10338000012392E07B685B68002B07D14A4B1B68E6
:1033900003F00203002B09D1012386E0464B1B6892
:1033A00003F48063002B01D101237EE0424B9B6834
:1033B00023F003027B685B683F4913438B60FEF791
:1033C000E9FCF8600AE0FEF7E5FC0246FB68D31A68
:1033D00041F28832934201D9032366E0364B9B6861
:1033E00003F00C027B685B689B009A42EBD17B6820
:1033F0001B6803F00203002B08D02F4B9B6823F0BF
:10340000F0027B689B682C4913438B60294B1B6837
:1034100003F007033A689A4210D2264B1B6823F048
:10342000070224493B6813430B60224B1B6803F0DF
:1034300007033A689A4201D0012336E07B681B6893
:1034400003F00403002B08D01B4B9B6823F4E062BD
:103450007B68DB68184913438B607B681B6803F04B
:103460000803002B09D0144B9B6823F460527B683F
:103470001B69DB00104913438B6000F025F80246FE
:103480000D4B9B681B0903F00F030C49CB5C03F049
:103490001F0322FA03F30A4A13600A4B1B681846FB
:1034A000FEF728FC0346FB72FB7A18461037BD4630
:1034B00080BD00BF0020024000100240FCA40008B4
:1034C000040000200800002080B489B000AF002371
:1034D000FB610023BB613E4B9B6803F00C033B6127
:1034E0003B4BDB6803F00303FB603B69002B05D01B
:1034F0003B690C2B21D1FB68012B1ED1344B1B687F
:1035000003F00803002B07D1314BD3F894301B0A8A
:1035100003F00F03FB6105E02D4B1B681B0903F053
:103520000F03FB612B4AFB6952F82330FB613B69B7
:10353000002B0DD1FB69BB610AE03B69042B02D172
:10354000254BBB6104E03B69082B01D1234BBB61D8
:103550003B690C2B34D11E4BDB6803F00303BB60CB
:10356000BB68022B03D0BB68032B03D005E01A4BCA
:103570007B6105E0194B7B6102E0FB697B6100BF69
:10358000134BDB681B0903F0070301337B60104B0F
:10359000DB681B0A03F07F037A6902FB03F27B6896
:1035A000B2FBF3F37B610A4BDB685B0E03F00303B2
:1035B00001335B003B607A693B68B2FBF3F3BB61AC
:1035C000BB6918462437BD465DF8047B704700BFD1
:1035D0000010024014A500080024F40000127A0034
:1035E00080B400AF034B1B681846BD465DF8047BF2
:1035F000704700BF0400002080B500AFFFF7F0FF68
:103600000246064B9B681B0A03F007030449CB5C88
:1036100003F01F0322FA03F3184680BD0010024096
:103620000CA5000880B500AFFFF7DAFF0246064B95
:103630009B68DB0A03F007030449CB5C03F01F031C
:1036400022FA03F3184680BD001002400CA50008C2
:1036500080B586B000AF786000233B612A4B9B6D3C
:1036600003F08053002B03D0FFF702FA786114E0D7
:10367000254B9B6D244A43F080539365224B9B6DF1
:1036800003F08053FB60FB68FFF7F2F978611E4B93
:103690009B6D1D4A23F0805393657B69B3F5007FD2
:1036A0000BD17B68802B19D97B68A02B02D9022310
:1036B0003B6113E001233B6110E07B68802B02D962
:1036C00003233B610AE07B68802B02D102233B612C
:1036D00004E07B68702B01D101233B610B4B1B681D
:1036E00023F0070209493B6913430B60074B1B6832
:1036F00003F007033A699A4201D0012300E0002356
:1037000018461837BD4680BD001002400020024018
:1037100080B586B000AF78600023FB740023BB74D3
:103720007B681B6803F40063002B41D07B685B6EF1
:10373000B3F5400F2AD0B3F5400F24D8B3F5000FEE
:1037400008D0B3F5000F1ED8002B0AD0B3F5800FB8
:1037500010D018E0864BDB68854A43F48033D36091
:1037600015E07B6804330021184600F0BBFA0346DD
:10377000FB740CE07B6820330021184600F0A6FBA8
:103780000346FB7403E00123FB7400E000BFFB7CF5
:10379000002B0BD1764BD3F8883023F440027B68A2
:1037A0005B6E73491343C1F8883001E0FB7CBB7446
:1037B0007B681B6803F48053002B41D07B689B6EB1
:1037C000B3F1407F2AD0B3F1407F24D8B3F1007F1A
:1037D00008D0B3F1007F1ED8002B0AD0B3F1807F50
:1037E00010D018E0624BDB68614A43F48033D36049
:1037F00015E07B6804330021184600F073FA034695
:10380000FB740CE07B6820330021184600F05EFB5F
:103810000346FB7403E00123FB7400E000BFFB7C64
:10382000002B0BD1524BD3F8883023F040727B68C9
:103830009B6E4F491343C1F8883001E0FB7CBB7499
:103840007B681B6803F40033002B00F0A08000238A
:103850007B74474B9B6D03F08053002B01D10123F8
:1038600000E00023002B0DD0414B9B6D404A43F0FC
:10387000805393653E4B9B6D03F08053BB60BB68E8
:1038800001237B743B4B1B683A4A43F480731360FB
:10389000FEF780FAF86009E0FEF77CFA0246FB6862
:1038A000D31A022B02D90323FB7405E0314B1B68AA
:1038B00003F48073002BEFD0FB7C002B5CD12C4BEE
:1038C000D3F8903003F440737B617B69002B1FD0E9
:1038D0007B68D3F884307A699A4219D0244BD3F8A4
:1038E000903023F440737B61214BD3F89030204A11
:1038F00043F48033C2F890301D4BD3F890301C4A0B
:1039000023F48033C2F89030194A7B69C2F89030B2
:103910007B6903F00103002B16D0FEF73BFAF86039
:103920000BE0FEF737FA0246FB68D31A41F2883201
:10393000934202D90323FB7406E00D4BD3F8903079
:1039400003F00203002BECD0FB7C002B0CD1084BC6
:10395000D3F8903023F440727B68D3F88430044964
:103960001343C1F8903009E0FB7CBB7406E000BF54
:103970000010024000700040FB7CBB747B7C012B7C
:1039800005D19E4B9B6D9D4A23F0805393657B68C8
:103990001B6803F00103002B0AD0984BD3F8883042
:1039A00023F003027B689B6B94491343C1F8883072
:1039B0007B681B6803F00203002B0AD08F4BD3F8FF
:1039C000883023F00C027B68DB6B8C491343C1F811
:1039D00088307B681B6803F00403002B0AD0874BF8
:1039E000D3F8883023F030027B681B6C8349134383
:1039F000C1F888307B681B6803F00803002B0AD0ED
:103A00007E4BD3F8883023F0C0027B685B6C7B4927
:103A10001343C1F888307B681B6803F01003002B48
:103A20000AD0764BD3F8883023F440727B689B6CC5
:103A300072491343C1F888307B681B6803F0200388
:103A4000002B0AD06D4BD3F8883023F440627B689A
:103A5000DB6C6A491343C1F888307B681B6803F448
:103A60000073002B0AD0654BD3F8883023F4402232
:103A70007B68DB6D61491343C1F888307B681B6844
:103A800003F48063002B0AD05C4BD3F8883023F416
:103A900040127B681B6E59491343C1F888307B681C
:103AA0001B6803F04003002B0AD0544BD3F8883036
:103AB00023F440527B681B6D50491343C1F8883092
:103AC0007B681B6803F08003002B0AD04B4BD3F8B4
:103AD000883023F440427B685B6D48491343C1F84A
:103AE00088307B681B6803F48073002B0AD0434B3B
:103AF000D3F8883023F440327B689B6D3F491343F1
:103B0000C1F888307B681B6803F40053002B28D071
:103B10003A4BD3F8883023F040627B68DB6E37493C
:103B20001343C1F888307B68DB6EB3F1006F06D1B8
:103B3000324BDB68314A43F48013D36011E07B6879
:103B4000DB6EB3F1806F0CD17B6804330121184622
:103B500000F0C8F80346FB74FB7C002B01D0FB7C13
:103B6000BB747B681B6803F40023002B28D0234B15
:103B7000D3F8883023F040627B681B6F1F491343E2
:103B8000C1F888307B681B6FB3F1006F06D11B4B07
:103B9000DB681A4A43F48013D36011E07B681B6F23
:103BA000B3F1806F0CD17B6804330121184600F01B
:103BB00099F80346FB74FB7C002B01D0FB7CBB74A3
:103BC0007B681B6803F48023002B2BD00B4BD3F8AE
:103BD000883023F040627B685B6F08491343C1F86B
:103BE00088307B685B6FB3F1006F09D1034BDB68F2
:103BF000024A43F48013D36014E000BF0010024077
:103C00007B685B6FB3F1806F0CD17B68043301215B
:103C1000184600F067F80346FB74FB7C002B01D0CC
:103C2000FB7CBB747B681B6803F48043002B2FD0A4
:103C30002B4BD3F8883023F040527B689B6F284988
:103C40001343C1F888307B689B6FB3F1805F0DD15F
:103C50007B6804330221184600F044F80346FB74E5
:103C6000FB7C002B14D0FB7CBB7411E07B689B6F4A
:103C7000B3F1005F0CD17B6820330221184600F0BD
:103C800025F90346FB74FB7C002B01D0FB7CBB7445
:103C90007B681B6803F40043002B0AD0104BD3F859
:103CA000883023F080427B68DB6F0D491343C1F8F5
:103CB00088307B681B6803F48033002B0BD0084BE3
:103CC000D3F8883023F000427B68D3F88030044971
:103CD0001343C1F88830BB7C18461837BD4680BDF9
:103CE0000010024080B584B000AF786039600023D6
:103CF000FB73754BDB6803F00303002B18D0724B8A
:103D0000DB6803F003027B681B689A420DD17B6875
:103D10001B68002B09D06C4BDB681B0903F0070301
:103D20005A1C7B685B689A4247D00123FB7344E0CE
:103D30007B681B68032B18D0032B25D8012B02D0DE
:103D4000022B09D020E0604B1B6803F00203002B1C
:103D50001DD10123FB731AE05B4B1B6803F48063E6
:103D6000002B16D10123FB7313E0574B1B6803F4A0
:103D70000033002B0FD1544B1B6803F48023002B1E
:103D800009D10123FB7306E00123FB7304E000BFAC
:103D900002E000BF00E000BFFB7B002B0DD14A4BCF
:103DA000DB6823F073027B6819687B685B68013B02
:103DB0001B010B4344491343CB60FB7B002B7DD19C
:103DC000414B1B68404A23F080631360FDF7E2FF1C
:103DD000B86009E0FDF7DEFF0246BB68D31A022B8C
:103DE00002D90323FB7305E0374B1B6803F0006324
:103DF000002BEFD1FB7B002B60D13B68002B11D156
:103E0000314B1B6923F41F3323F440737A689268A3
:103E100011027A68D268120952040A432A491343EC
:103E20000B6127E03B68012B12D1274B1B6923F460
:103E3000C00323F4FE437A68926811027A6812691B
:103E40005208013A52050A431F4913430B6111E01E
:103E50001D4B1B6923F0C06323F4FE437A6892680C
:103E600011027A6852695208013A52060A43164909
:103E700013430B61144B1B68134A43F080631360B8
:103E8000FDF788FFB86009E0FDF784FF0246BB68D4
:103E9000D31A022B02D90323FB7305E00A4B1B68DC
:103EA00003F00063002BEFD0FB7B002B06D1064B09
:103EB0001A697B689B69044913430B61FB7B1846B5
:103EC0001037BD4680BD00BF0010024080B584B0F1
:103ED00000AF786039600023FB736A4BDB6803F046
:103EE0000303002B18D0674BDB6803F003027B68E9
:103EF0001B689A420DD17B681B68002B09D0614B6F
:103F0000DB681B0903F007035A1C7B685B689A4255
:103F100047D00123FB7344E07B681B68032B18D058
:103F2000032B25D8012B02D0022B09D020E0554BC2
:103F30001B6803F00203002B1DD10123FB731AE061
:103F4000504B1B6803F48063002B16D10123FB73D5
:103F500013E04C4B1B6803F40033002B0FD1494B8B
:103F60001B6803F48023002B09D10123FB7306E0B7
:103F70000123FB7304E000BF02E000BF00E000BFCC
:103F8000FB7B002B0DD13F4BDB6823F073027B687A
:103F900019687B685B68013B1B010B43394913437C
:103FA000CB60FB7B002B67D1364B1B68354A23F077
:103FB00080531360FDF7EEFEB86009E0FDF7EAFEFE
:103FC0000246BB68D31A022B02D90323FB7305E018
:103FD0002C4B1B6803F00053002BEFD1FB7B002B15
:103FE0004AD13B68002B11D1264B5B6923F41F3368
:103FF00023F440737A68926811027A68D2681209D1
:1040000052040A431F4913434B6111E01D4B5B6986
:1040100023F0C06323F4FE437A68926811027A6841
:1040200012695208013A52060A43164913434B617A
:10403000144B1B68134A43F080531360FDF7AAFE2C
:10404000B86009E0FDF7A6FE0246BB68D31A022B52
:1040500002D90323FB7305E00A4B1B6803F00053EE
:10406000002BEFD0FB7B002B06D1064B5A697B68F7
:104070005B69044913434B61FB7B18461037BD460F
:1040800080BD00BF0010024080B582B000AF7860F4
:104090007B68002B01D1012340E07B689B6F002BE4
:1040A00006D17B68002283F874207868FDF75CFDF8
:1040B0007B6824229A677B681B681A687B681B6888
:1040C00022F001021A60786800F026FB0346012BFB
:1040D00001D1012322E07B685B6A002B02D0786863
:1040E00000F0A4FD7B681B685A687B681B6822F49B
:1040F00090425A607B681B689A687B681B6822F054
:104100002A029A607B681B681A687B681B6842F009
:1041100001021A60786800F02BFE03461846083743
:10412000BD4680BD80B58AB002AFF860B9603B6023
:104130001346FB80FB689B6F202B40F08280BB689E
:10414000002B02D0FB88002B01D101237AE0FB6811
:1041500093F87430012B01D1022373E0FB68012234
:1041600083F87420FB680022C3F88020FB682122BA
:104170009A67FDF70FFE7861FB68FA88A3F8502074
:10418000FB68FA88A3F85220FB689B68B3F5805F50
:1041900008D1FB681B69002B04D10023FB61BB68BD
:1041A000BB6103E0BB68FB610023BB61FB680022CD
:1041B00083F874202DE03B6800937B690022802106
:1041C000F86800F01EFE0346002B01D0032339E0FF
:1041D000FB69002B0BD1BB691A88FB681B68C2F313
:1041E000080292B21A85BB690233BB6108E0FB6921
:1041F0001A78FB681B6892B21A85FB690133FB6170
:10420000FB68B3F852309BB2013B9AB2FB68A3F84B
:104210005220FB68B3F852309BB2002BCBD13B68E5
:1042200000937B6900224021F86800F0EAFD034614
:10423000002B01D0032305E0FB6820229A670023AE
:1042400000E0022318462037BD4680BD80B584B00B
:1042500000AFF860B9601346FB80FB68DB6F202B72
:1042600031D1BB68002B02D0FB88002B01D1012388
:104270002AE0FB6893F87430012B01D1022323E07C
:10428000FB68012283F87420FB6800221A66FB6831
:104290001B680F4A93420ED0FB681B685B6803F4EF
:1042A0000003002B07D0FB681B681A68FB681B68BB
:1042B00042F080621A60FB881A46B968F86800F01C
:1042C0001DFE034600E0022318461037BD4680BDA0
:1042D0000080004080B588B000AF78607B681B68C4
:1042E000DB69FB617B681B681B68BB617B681B68C3
:1042F0009B687B61FA6940F60F0313403B613B69A1
:10430000002B13D1FB6903F02003002B0ED0BB69F7
:1043100003F02003002B09D07B685B6E002B00F0BC
:10432000CE817B685B6E78689847C8E13B69002B5B
:1043300000F0E3807B6903F00103002B05D1BA692B
:10434000A64B1340002B00F0D880FB6903F001035B
:10435000002B10D0BB6903F48073002B0BD07B685B
:104360001B6801221A627B68D3F8803043F0010297
:104370007B68C3F88020FB6903F00203002B10D098
:104380007B6903F00103002B0BD07B681B680222C2
:104390001A627B68D3F8803043F004027B68C3F86C
:1043A0008020FB6903F00403002B10D07B6903F02D
:1043B0000103002B0BD07B681B6804221A627B6808
:1043C000D3F8803043F002027B68C3F88020FB6999
:1043D00003F00803002B15D0BB6903F02003002B6A
:1043E00004D17B6903F00103002B0BD07B681B68B1
:1043F00008221A627B68D3F8803043F008027B6899
:10440000C3F88020FB6903F40063002B11D0BB6963
:1044100003F08063002B0CD07B681B684FF40062B4
:104420001A627B68D3F8803043F020027B68C3F8BF
:1044300080207B68D3F88030002B00F04281FB693C
:1044400003F02003002B0CD0BB6903F02003002BEA
:1044500007D07B685B6E002B03D07B685B6E78684F
:1044600098477B68D3F88030FB607B681B689B684B
:1044700003F04003402B04D0FB6803F02803002B1B
:1044800031D0786800F0C2FD7B681B689B6803F040
:104490004003402B23D17B681B689A687B681B68AC
:1044A00022F040029A607B681B6F002B13D07B6860
:1044B0001B6F4B4A9A637B681B6F1846FDF703FE20
:1044C0000346002B17D07B681B6F9B6B7A68126FBB
:1044D000104698470FE0786800F008F90BE078681C
:1044E00000F004F907E0786800F000F97B6800222A
:1044F000C3F88020E5E000BFE3E07B681B6E012B82
:1045000040F0A980FB6903F01003002B00F0A380AA
:10451000BB6903F01003002B00F09D807B681B68D3
:1045200010221A627B681B689B6803F04003402BD3
:1045300058D17B681B6F1B685B683B813B89002BF4
:1045400000F0C1807B68B3F858303A899A4280F015
:10455000BA807B683A89A3F85A207B681B6F1B6876
:104560001B6803F02003002B2AD17B681B681A68A4
:104570007B681B6822F480721A607B681B689A68EB
:104580007B681B6822F001029A607B681B689A684E
:104590007B681B6822F040029A607B682022DA6701
:1045A0007B6800221A667B681B681A687B681B6838
:1045B00022F010021A607B681B6F1846FDF745FD5C
:1045C0007B68B3F858207B68B3F85A309BB2D31A93
:1045D0009BB21946786800F093F874E0200100045B
:1045E0006B5000087B68B3F858207B68B3F85A30EA
:1045F0009BB2D31A7B817B68B3F85A309BB2002BF5
:1046000063D07B89002B60D07B681B681A687B684D
:104610001B6822F490721A607B681B689A687B683A
:104620001B6822F001029A607B682022DA677B68AF
:1046300000221A667B6800225A667B681B681A682B
:104640007B681B6822F010021A607B891946786823
:1046500000F056F839E0FB6903F48013002B0DD00D
:104660007B6903F48003002B08D07B681B684FF440
:1046700080121A62786800F0FFFD29E0FB6903F000
:104680008003002B0DD0BB6903F08003002B08D002
:104690007B689B6E002B1AD07B689B6E786898476E
:1046A00015E0FB6903F04003002B11D0BB6903F058
:1046B0004003002B0CD0786800F0EDFC08E000BF50
:1046C00006E000BF04E000BF02E000BF00E000BF62
:1046D0002037BD4680BD00BF80B483B000AF786096
:1046E00000BF0C37BD465DF8047B704780B483B0D3
:1046F00000AF786000BF0C37BD465DF8047B7047A3
:1047000080B483B000AF78600B467B8000BF0C376D
:10471000BD465DF8047B7047B0B588B000AF7860E7
:104720000023BB767B689A687B681B691A437B68A9
:104730005B691A437B68DB691343FB617B681B6819
:104740001A68AD4B13407A681268F9690B4313601D
:104750007B681B685B6823F440517B68DA687B6880
:104760001B680A435A607B689B69FB617B681B6816
:10477000A24A934204D07B681B6AFA691343FB6127
:104780007B681B689B6823F430617B681B68FA694F
:104790000A439A607B681B68994A934221D1994BDE
:1047A000D3F8883003F00303032B17D801A252F883
:1047B00023F000BFC5470008D1470008CB470008D9
:1047C000D74700080123FB76E7E00223FB76E4E00D
:1047D0000423FB76E1E00823FB76DEE01023FB7682
:1047E000DBE07B681B68884A934232D1854BD3F863
:1047F000883003F00C030C2B28D801A252F823F0C8
:10480000354800084D4800084D4800084D4800084C
:10481000414800084D4800084D4800084D48000830
:104820003B4800084D4800084D4800084D48000826
:10483000474800080023FB76AFE00223FB76ACE09C
:104840000423FB76A9E00823FB76A6E01023FB7681
:10485000A3E07B681B686D4A934220D1694BD3F873
:10486000883003F03003302B13D0302B14D8202B9A
:1048700009D0202B10D8002B02D0102B06D00BE033
:104880000023FB7689E00223FB7686E00423FB7697
:1048900083E00823FB7680E01023FB767DE07B68D5
:1048A0001B685B4A934220D1564BD3F8883003F003
:1048B000C003C02B13D0C02B14D8802B09D0802B61
:1048C00010D8002B02D0402B06D00BE00023FB7643
:1048D00063E00223FB7660E00423FB765DE00823BF
:1048E000FB765AE01023FB7657E07B681B68494A49
:1048F000934225D1434BD3F8883003F44073B3F58A
:10490000407F17D0B3F5407F17D8B3F5007F0BD0A9
:10491000B3F5007F11D8002B03D0B3F5807F06D00C
:104920000BE00023FB7638E00223FB7635E004231E
:10493000FB7632E00823FB762FE01023FB762CE099
:104940007B681B682D4A934225D12E4BD3F88830C3
:1049500003F44063B3F5406F17D0B3F5406F17D839
:10496000B3F5006F0BD0B3F5006F11D8002B03D057
:10497000B3F5806F06D00BE00023FB760DE0022339
:10498000FB760AE00423FB7607E00823FB7604E0CD
:104990001023FB7601E01023FB767B681B68174A27
:1049A000934240F08780FB7E082B37D801A252F853
:1049B00023F000BFD94900081D4A0008E14900085A
:1049C0001D4A0008E74900081D4A00081D4A000862
:1049D0001D4A0008EF490008FEF70EFE786122E04C
:1049E0000D4B7B611FE0FEF76FFD78611BE04FF41C
:1049F00000437B6117E000BFF369FFEF00800040D8
:104A000000380140001002400044004000480040CF
:104A1000004C0040005000400024F40000237B6163
:104A20000123BB7600BF7B69002B00F0F1807B681F
:104A30005A6813465B0013447A699A4205D37B682F
:104A40005B681B037A699A4202D90123BB76DFE0D7
:104A50007B6918464FF000014FF000024FF0000351
:104A60000B0243EA10630202796849684908084664
:104A70004FF00001141843EB01057B685B681A4690
:104A80004FF0000320462946FCF7FEF802460B468D
:104A900013463B613B69B3F5407F08D33B69B3F5EF
:104AA000801F04D27B681B683A69DA60B0E001239A
:104AB000BB76ADE07B68DB69B3F5004F5CD1FB7E74
:104AC000082B28D801A252F823F000BFF14A0008B1
:104AD000F94A0008014B0008174B0008074B000873
:104AE000174B0008174B0008174B00080F4B000826
:104AF000FEF782FD786113E0FEF794FD78610FE028
:104B0000494B7B610CE0FEF7DFFC786108E04FF475
:104B100000437B6104E000237B610123BB7600BF7F
:104B20007B69002B74D07B695A007B685B685B08EB
:104B30001A447B685B68B2FBF3F39BB23B613B6951
:104B40000F2B16D93B69B3F5803F12D23B699BB25C
:104B500023F00F03FB813B695B089BB203F0070363
:104B60009AB2FB891343FB817B681B68FA89DA6080
:104B70004EE00123BB764BE0FB7E082B27D801A239
:104B800052F823F0A94B0008B14B0008B94B0008BC
:104B9000CF4B0008BF4B0008CF4B0008CF4B00089D
:104BA000CF4B0008C74B0008FEF726FD786113E0E5
:104BB000FEF738FD78610FE01B4B7B610CE0FEF7E0
:104BC00083FC786108E04FF400437B6104E000233C
:104BD0007B610123BB7600BF7B69002B18D07B680B
:104BE0005B685A087B691A447B685B68B2FBF3F325
:104BF0009BB23B613B690F2B08D93B69B3F5803F02
:104C000004D27B681B683A69DA6001E00123BB7655
:104C10007B6800225A667B6800229A66BB7E184633
:104C20002037BD46B0BD00BF0024F40080B483B07F
:104C300000AF78607B685B6A03F00103002B0AD049
:104C40007B681B685B6823F400317B689A6A7B6829
:104C50001B680A435A607B685B6A03F00203002BFF
:104C60000AD07B681B685B6823F480317B68DA6A52
:104C70007B681B680A435A607B685B6A03F0040325
:104C8000002B0AD07B681B685B6823F480217B685B
:104C90001A6B7B681B680A435A607B685B6A03F087
:104CA0000803002B0AD07B681B685B6823F4004173
:104CB0007B685A6B7B681B680A435A607B685B6A37
:104CC00003F01003002B0AD07B681B689B6823F459
:104CD00080517B689A6B7B681B680A439A607B688B
:104CE0005B6A03F02003002B0AD07B681B689B687B
:104CF00023F400517B68DA6B7B681B680A439A6077
:104D00007B685B6A03F04003002B1AD07B681B684A
:104D10005B6823F480117B681A6C7B681B680A430C
:104D20005A607B681B6CB3F5801F0AD17B681B68D7
:104D30005B6823F4C0017B685A6C7B681B680A437C
:104D40005A607B685B6A03F08003002B0AD07B68A3
:104D50001B685B6823F400217B689A6C7B681B6886
:104D60000A435A6000BF0C37BD465DF8047B7047AC
:104D700080B586B002AF78607B680022C3F88020DF
:104D8000FDF708F8F8607B681B681B6803F00803F0
:104D9000082B0ED16FF07E430093FB6800224FF486
:104DA0000011786800F02DF80346002B01D0032392
:104DB00023E07B681B681B6803F00403042B0ED1FF
:104DC0006FF07E430093FB6800224FF48001786807
:104DD00000F017F80346002B01D003230DE07B6899
:104DE00020229A677B682022DA677B6800221A6695
:104DF0007B68002283F87420002318461037BD46D4
:104E000080BD80B584B000AFF860B9603B601346E8
:104E1000FB715EE0BB69B3F1FF3F5AD0FCF7BAFF0C
:104E200002463B68D31ABA699A4202D3BB69002B87
:104E30001BD1FB681B681A68FB681B6822F4D072E0
:104E40001A60FB681B689A68FB681B6822F0010205
:104E50009A60FB6820229A67FB682022DA67FB6869
:104E6000002283F87420032343E0FB681B681B685F
:104E700003F00403002B2CD0FB681B68DB6903F4F0
:104E80000063B3F5006F24D1FB681B684FF4006228
:104E90001A62FB681B681A68FB681B6822F4D072F0
:104EA0001A60FB681B689A68FB681B6822F00102A5
:104EB0009A60FB6820229A67FB682022DA67FB6809
:104EC0002022C3F88020FB68002283F8742003238B
:104ED0000FE0FB681B68DA69BB681340BA689A4246
:104EE0000CBF01230023DBB21A46FB799A4291D012
:104EF000002318461037BD4680BD000080B485B041
:104F000000AFF860B9601346FB80FB68BA685A6569
:104F1000FB68FA88A3F85820FB68FA88A3F85A209F
:104F2000FB6800225A66FB689B68B3F5805F0ED170
:104F3000FB681B69002B05D1FB6840F2FF12A3F848
:104F40005C202DE0FB68FF22A3F85C2028E0FB68D2
:104F50009B68002B0DD1FB681B69002B04D1FB68FB
:104F6000FF22A3F85C201BE0FB687F22A3F85C20F3
:104F700016E0FB689B68B3F1805F0DD1FB681B698D
:104F8000002B04D1FB687F22A3F85C2008E0FB68BB
:104F90003F22A3F85C2003E0FB680022A3F85C201A
:104FA000FB680022C3F88020FB682222DA67FB68D6
:104FB0001B689A68FB681B6842F001029A60FB68F4
:104FC0009B68B3F5805F07D1FB681B69002B03D199
:104FD000FB680C4A5A6602E0FB680B4A5A66FB689B
:104FE000002283F87420FB681B681A68FB681B6842
:104FF00042F490721A60002318461437BD465DF8DB
:10500000047B7047A1510008C950000880B483B0E8
:1050100000AF78607B681B681A687B681B6822F4A5
:1050200090721A607B681B689A687B681B6822F024
:1050300001029A607B681B6E012B07D17B681B689D
:105040001A687B681B6822F010021A607B682022B5
:10505000DA677B6800221A667B6800225A6600BF06
:105060000C37BD465DF8047B704780B584B000AF57
:1050700078607B689B6AFB60FB680022A3F85A207B
:10508000FB680022A3F85220F868FFF72FFB00BF4F
:105090001037BD4680BD80B582B000AF78607B68B8
:1050A0001B681A687B681B6822F040021A607B68E4
:1050B00020229A677B6800229A667868FFF70CFBCB
:1050C00000BF0837BD4680BD80B584B000AF7860B2
:1050D0007B68B3F85C30FB817B68DB6F222B51D19E
:1050E0007B681B689B8CBB81BB89D9B2FB89DAB218
:1050F0007B685B6D0A40D2B21A707B685B6D5A1C8C
:105100007B685A657B68B3F85A309BB2013B9AB210
:105110007B68A3F85A207B68B3F85A309BB2002B07
:105120003AD17B681B681A687B681B6822F490720E
:105130001A607B681B689A687B681B6822F0010212
:105140009A607B682022DA677B6800225A667B6857
:105150001B6E012B0FD17B681B681A687B681B686C
:1051600022F010021A607B68B3F85830194678684C
:10517000FFF7C6FA02E07868FCF7C0F87B68002207
:105180001A6609E07B681B681B8B9AB27B681B68F8
:1051900042F0080292B21A8300BF1037BD4680BDAC
:1051A00080B584B000AF78607B68B3F85C30FB8179
:1051B0007B68DB6F222B51D17B681B689B8CBB818A
:1051C0007B685B6DBB60BA89FB8913409AB2BB6890
:1051D0001A807B685B6D9A1C7B685A657B68B3F8A4
:1051E0005A309BB2013B9AB27B68A3F85A207B6885
:1051F000B3F85A309BB2002B3AD17B681B681A680F
:105200007B681B6822F490721A607B681B689A683E
:105210007B681B6822F001029A607B682022DA67B3
:105220007B6800225A667B681B6E012B0FD17B685E
:105230001B681A687B681B6822F010021A607B6882
:10524000B3F8583019467868FFF75AFA02E07868E0
:10525000FCF754F87B6800221A6609E07B681B683B
:105260001B8B9AB27B681B6842F0080292B21A83C9
:1052700000BF1037BD4680BD80B483B000AF7860FA
:1052800000BF0C37BD465DF8047B704780B586B023
:1052900000AF7860FCF7C4FF7B68124A934202D8E3
:1052A0000123FB6001E00223FB6001237B610023FB
:1052B000BB607B683B6107F108030B491846FDF7AB
:1052C0009FF80346002B14BF01230023DBB2002B01
:1052D00002D0FCF7D7FF01E0FCF7C4FF1837BD464A
:1052E00080BD00BF00F80708780200202DE9B04F0C
:1052F00092B000AFF862B962FCF792FF07F1340395
:1053000009220021184600F011FC07F1340308229D
:10531000B96A184600F0E2FB4FF000024FF00003BC
:10532000C7E9102397F83B30D8B24FF00001D7E916
:10533000102342EA000443EA0105C7E91045D7E912
:1053400010234FF000004FF00001190241EA1261F2
:105350001002C7E9100197F83A30D8B24FF00001B7
:10536000D7E9102342EA000843EA0109C7E9108996
:10537000D7E910234FF000004FF00001190241EA75
:1053800012611002C7E9100197F83930D8B24FF016
:105390000001D7E9102342EA000A43EA010BC7E9FA
:1053A00010ABD7E910014FF000024FF000030B02E1
:1053B00043EA10630202C7E9102397F83830DAB2E3
:1053C0004FF00003D7E9100140EA02043C620B43AE
:1053D0007B62D7E90834C7E91034D7E910014FF0F0
:1053E00000024FF000030B0243EA10630202C7E918
:1053F000102397F83730DAB24FF00003D7E91001E5
:1054000040EA0204BC610B43FB61D7E90634C7E9FB
:105410001034D7E910014FF000024FF000030B02E7
:1054200043EA10630202C7E9102397F83630DAB274
:105430004FF00003D7E9100140EA02043C610B433E
:105440007B61D7E90434C7E91034D7E910014FF084
:1054500000024FF000030B0243EA10630202C7E9A7
:10546000102397F83530DAB24FF00003D7E9100176
:1054700040EA0204BC600B43FB60D7E90234C7E991
:105480001034D7E910014FF000024FF000030B0277
:1054900043EA10630202C7E9102397F83430DAB206
:1054A0004FF00003D7E9100140EA02043C600B43CF
:1054B0007B60D7E90034C7E91034D7E91023F96AD3
:1054C0000020FCF741FEFCF7CDFE00BF4837BD468B
:1054D000BDE8B08F80B582B000AF786039600B4A0C
:1054E0007B681A607B680433184600F05AFA7B68C0
:1054F00000221A777B6800225A777B683A681A6222
:105500007B6818460837BD4680BD00BF4CA5000823
:1055100080B582B000AF7860064A7B681A607B680D
:105520000433184600F044FA7B6818460837BD4635
:1055300080BD00BF4CA5000880B582B000AF786088
:105540007868FFF7E5FF2421786800F0B5F97B68FB
:1055500018460837BD4680BD80B582B000AF786080
:105560007B68186A7B681C3301221946FEF76EFEC1
:1055700000BF0837BD4680BD80B582B000AF7860FF
:105580007B681B7F0D2B03D17B6801225A7707E0D4
:105590007B681A1D7B681B7F1946104600F032FAA3
:1055A0007B68186A7B681C3301221946FEF74EFEA1
:1055B00000BF0837BD4680BD80B582B000AF7860BF
:1055C0007B6800225A777B6800221A777B68043355
:1055D000184600F0F3F900BF0837BD4680BD000053
:1055E000F0B589B000AFF860B9607A603B606B4697
:1055F0001E460023FB77F868FFF7DEFFB868FAF76E
:1056000037FE034603331C46BC612346013318466C
:105610004FF000014FF000024FF00003CB0043EACF
:105620005073C2002346013318464FF000014FF07B
:1056300000024FF00003CB0043EA5073C200234640
:1056400001330733DB08DB00ADEB030D6B460033A2
:105650007B617B6900221A705A1C631E002B04DBDD
:10566000002111700132013BF8E77B69BA682049DB
:10567000184601F0E1F9FB681C6A7D697B691846F0
:10568000FAF7F6FD03469AB23B6829462046FEF734
:1056900049FDFCF77FFB3861FB7F002B22D1FCF733
:1056A00079FB02463B69D31A3A689A4294BF0123B8
:1056B0000023DBB2002B14D1FB680433184600F042
:1056C000A7F903467968184601F0D6F90346002B7E
:1056D00014BF01230023DBB2002BDDD00123FB77B5
:1056E000DAE700BFFB7FB54618462437BD46F0BD5C
:1056F000F0A4000880B582B000AF786039600B4A32
:105700007B681A607B680433184600F04AF97B68AE
:1057100000221A777B6800225A777B683A681A62FF
:105720007B6818460837BD4680BD00BF5CA50008F1
:1057300080B582B000AF7860064A7B681A607B68EB
:105740000433184600F034F97B6818460837BD4624
:1057500080BD00BF5CA5000880B582B000AF786056
:105760007868FFF7E5FF2421786800F0A5F87B68EA
:1057700018460837BD4680BD80B582B000AF78605E
:105780007B68186A7B681C3301221946FEF75EFDB0
:1057900000BF0837BD4680BD80B582B000AF7860DD
:1057A0007B681B7F0D2B03D17B6801225A7707E0B2
:1057B0007B681A1D7B681B7F1946104600F022F992
:1057C0007B68186A7B681C3301221946FEF73EFD90
:1057D00000BF0837BD4680BD90B583B000AF78608C
:1057E00039607B681C6A3868FAF742FD03469AB252
:1057F0004FF4FA6339682046FEF794FC00BF0C377B
:10580000BD4690BDF0B585B000AF786039606B469D
:105810001E463868FAF72CFD034601331C46FC602F
:105820002346013318464FF000014FF000024FF0BD
:105830000003CB0043EA5073C200234601331846ED
:105840004FF000014FF000024FF00003CB0043EA9D
:105850005073C200234601330733DB08DB00ADEB96
:10586000030D6B460033BB60BB6800221A705A1CE4
:10587000631E002B04DB002111700132013BF8E7AD
:10588000BB683A680B49184601F0D6F87B681C6A79
:10589000BD68BB681846FAF7EBFC03469AB24FF4B2
:1058A000FA6329462046FEF73DFCB54600BF143793
:1058B000BD46F0BDF8A4000800F0ACB80AB100F095
:1058C0000DB9704708B50B68B3F1804F02D30D488E
:1058D00000F0B6F893420BD9B3EB420F4FEA420007
:1058E00006D2B0F1804F2ABF6FF0404308600B60D2
:1058F0000868013001D500F0A0F8BDE8084000F0CC
:105900008BB800BF64A5000850F8083B834202D062
:10591000184600F07FB87047012A10B502D10A7806
:10592000027010BDFFF7CAFFFBE72DE9F3470A9E9F
:105930001F46436801EB0208B21A1A44A3EB080998
:105940000346019253F8082B9A4218BF82680D460D
:1059500008BF0F2201A90446FFF7B4FF82461DB11C
:1059600021682A46FFF7D8FF37B12EB132463946B3
:105970000AEB0500FFF7D0FFB9F1000F07D021684F
:1059800035444A4641440AEB0500FFF7C5FF20466F
:10599000FFF7BAFF019BC4F800A0A36002B0BDE806
:1059A000F08700F108020260002242600272704734
:1059B00010B50446FFF7A8FF204610BD026800237B
:1059C0004360137070470346F7B553F8082B4668D9
:1059D0009A4218BF836806F1010508BF0F239D4254
:1059E00004460F4606D90123009300231A46314688
:1059F000FFF79BFF23689F552368656000225A5577
:105A000003B0F0BD10B50446FFF7DDFF204610BD22
:105A10000068704700F05AB8012838BF012010B55F
:105A20000446204600F04AF830B900F00DF808B9F5
:105A300000F012F88047F4E710BD08B500F00CF84C
:105A400008B500F009F80000024B1868BFF35B8F3F
:105A5000704700BF7C02002008B5062000F0D0FF90
:105A60000120FBF741FF0000014B1868704700BFA1
:105A70003000002070B50D4D0D4C641BA4100026A5
:105A8000A64209D10B4D0C4C04F05CFC641BA41025
:105A90000026A64205D170BD55F8043B9847013653
:105AA000EEE755F8043B98470136F2E73CAA0008B8
:105AB0003CAA00083CAA000844AA0008024B014680
:105AC000186800F08BB800BF30000020024B014680
:105AD000186800F033B800BF300000200A4491423B
