:020000040804EE
:1000000000800120CD090408250704082B070408F7
:1000100031070408370704083D0704080000000002
:10002000000000000000000000000000430704087A
:1000300051070408000000005F0704086D0704086A
:100040001D0A04081D0A04081D0A04081D0A0408E4
:100050001D0A04081D0A04081D0A04081D0A0408D4
:100060001D0A04081D0A04081D0A04081D0A0408C4
:100070001D0A04081D0A04081D0A04081D0A0408B4
:100080001D0A04081D0A04081D0A04081D0A0408A4
:100090001D0A04081D0A04081D0A04081D0A040894
:1000A0001D0A04081D0A04081D0A04081D0A040884
:1000B0001D0A04081D0A04081D0A04081D0A040874
:1000C0001D0A04081D0A04081D0A04081D0A040864
:1000D0001D0A0408790704088D0704081D0A04088E
:1000E0001D0A04081D0A04081D0A04081D0A040844
:1000F0001D0A04081D0A04081D0A04081D0A040834
:100100001D0A04081D0A04081D0A04081D0A040823
:100110001D0A04081D0A04081D0A04081D0A040813
:100120001D0A04081D0A04081D0A04081D0A040803
:100130001D0A04081D0A04081D0A04081D0A0408F3
:100140001D0A04081D0A04081D0A04081D0A0408E3
:100150001D0A04081D0A04081D0A04081D0A0408D3
:100160001D0A04081D0A04081D0A04081D0A0408C3
:100170001D0A04081D0A04081D0A040800000000E6
:080180001D0A04081D0A040811
:1001880010B5054C237833B9044B13B10448AFF3C9
:1001980000800123237010BD0C0000200000000027
:1001A8003037040808B5034B1BB103490348AFF3C4
:1001B800008008BD0000000010000020303704084F
:1001C800034613F8012B002AFBD1181A013870478F
:1001D80053B94AB9002908BF00281CBF4FF0FF31A6
:1001E8004FF0FF3000F06EB9ADF1080C6DE904CEA8
:1001F80000F006F8DDF804E0DDE9022304B07047FA
:100208002DE9F047089D04468C46002B40F083807A
:100218008A42174647D9B2FA82F242B1C2F12000A7
:1002280024FA00F09140974040EA010C94404FEACC
:100238001748230CBCFBF8F61FFA87FE08FB16C10B
:1002480043EA014306FB0EF1994209D9FB1806F16E
:10025800FF3080F01981994240F21681023E3B44FA
:100268005B1AA4B2B3FBF8F008FB103344EA03446A
:1002780000FB0EFEA64509D93C1900F1FF3380F0BA
:100288000581A64540F2028102383C4440EA064016
:10029800A4EB0E0400261DB1D4400023C5E9004399
:1002A8003146BDE8F08702B9FFDEB2FA82F2002AD1
:1002B80050D1CB1B4FEA174E1FFA87F80126B3FB24
:1002C800FEFC210C0EFB1C3341EA034108FB0CF336
:1002D8008B4207D979180CF1FF3002D28B4200F219
:1002E800E9808446C91AA3B2B1FBFEF00EFB1011D7
:1002F80043EA014408FB00F8A04507D93C1900F17E
:10030800FF3302D2A04500F2D9801846A4EB0804B6
:1003180040EA0C40BFE78B4209D9002D00F0B180BC
:100328000026C5E9000130463146BDE8F087B3FA3A
:1003380083F6002E4AD18B4202D3824200F2B88063
:10034800841A61EB030101208C46002DA8D0C5E971
:10035800004CA5E7C2F1200320FA03F6974001FA02
:1003680002F04FEA174ED9403043030CB1FBFEF6BA
:100378001FFA87F80EFB161143EA014306FB08F142
:10038800994204FA02F409D9FB1806F1FF3C80F0FF
:100398008D80994240F28A80023E3B445B1A81B2CA
:1003A800B3FBFEF00EFB103341EA034100FB08F3F8
:1003B8008B4207D9791800F1FF3C73D28B4271D96F
:1003C80002383944CB1A40EA064678E7C6F1200CD1
:1003D80003FA06F422FA0CF31C4320FA0CF701FA8C
:1003E80006F34FEA144E21FA0CF11F433B0CB1FB04
:1003F800FEF91FFA84F80EFB191143EA014109FBC3
:1004080008FA8A4502FA06F200FA06F308D96118D2
:1004180009F1FF3048D28A4546D9A9F10209214499
:10042800A1EB0A01BFB2B1FBFEF00EFB101147EAC7
:10043800014700FB08F8B84507D9E71900F1FF3173
:100448002ED2B8452CD90238274440EA0940A7EBF8
:100458000807A0FB02894F45C64649461AD317D05C
:100468005DB1B3EB0E0267EB010707FA0CFCF24033
:100478004CEA0202F740C5E9002700263146BDE8EC
:10048800F0872E4628460BE70646E9E61846FDE6BD
:100498004345E5D2B8EB020E69EB04010138DFE70A
:1004A8000846D2E760468DE78146B9E7664675E7B4
:1004B80030464AE7ACF1020C394413E702383C44B1
:1004C80024E700BF704700BF80B588B000AF07F1D0
:1004D8000C0300221A605A609A60DA601A61254B90
:1004E800DB6C244A43F00403D364224BDB6C03F037
:1004F8000403BB60BB681F4BDB6C1E4A43F001035F
:10050800D3641C4BDB6C03F001037B607B68194BE5
:10051800DB6C184A43F00203D364164BDB6C03F020
:1005280002033B603B68002220214FF0904000F01E
:100538004DFE4FF40053FB6000233B6101237B61B8
:1005480007F10C0319460C4800F096FC2023FB60C9
:1005580001233B6100237B610323BB6107F10C038B
:1005680019464FF0904000F087FC00BF2037BD4689
:1005780080BD00BF0010024000080048B0B58EB032
:1005880000AF1B4B1B4A9A6000F046FA00F038F89F
:10059800FFF79AFF00F062F900F030F9164B3C1DA6
:1005A8001D460FCD0FC495E8030020600434218058
:1005B80002340B0C237007F11B0300221A605A60E7
:1005C8009A60DA601A615A61C3F817203B1D184611
:1005D800FFF7F6FD03469AB2391D4FF4FA63074850
:1005E80002F066F94FF47A7000F092FAD6E700BF8D
:1005F80000ED00E00000040848370408AC000020C3
:1006080080B5B8B000AF07F19C034422002118461A
:1006180003F082F807F1880300221A605A609A6092
:10062800DA601A613B4688220021184603F074F804
:100638000223C7F89C304FF48073C7F8A830102302
:10064800C7F8AC300023C7F8C43007F19C0318463C
:1006580000F038FE0346002B01D000F036F80F23D7
:10066800C7F888300123C7F88C300023C7F89030CA
:100678000023C7F894300023C7F8983007F188039F
:100688000021184601F004FA0346002B01D000F0BF
:100698001CF803233B600023BB630023FB633B463A
:1006A800184601F0FBFB0346002B01D000F00DF8C3
:1006B8004FF4007000F0B0FD0346002B01D000F0AD
:1006C80004F800BFE037BD4680BD80B400AF72B605
:1006D80000BFFEE780B483B000AF0F4B1B6E0E4A1D
:1006E80043F0010313660C4B1B6E03F001037B60A0
:1006F8007B68094B9B6D084A43F080539365064B12
:100708009B6D03F080533B603B6800BF0C37BD46D0
:100718005DF8047B704700BF0010024080B400AF52
:10072800FEE780B400AFFEE780B400AFFEE780B418
:1007380000AFFEE780B400AFFEE780B400AF00BFB3
:10074800BD465DF8047B704780B400AF00BFBD466E
:100758005DF8047B704780B400AF00BFBD465DF80C
:10076800047B704780B500AF00F0B2F900BF80BDD0
:1007780080B500AF024802F02FF900BF80BD00BF6E
:100788002800002080B500AF024802F025F900BF1C
:1007980080BD00BFAC00002080B400AF154BD3F87B
:1007A8008830144A43F47003C2F88830124B1B682F
:1007B800114A43F0010313600F4B00229A600E4B5D
:1007C8001B680D4A23F0A85323F4102313600A4B27
:1007D8004FF48052DA60084B1B68074A23F48023E1
:1007E8001360054B00229A6100BFBD465DF8047B8B
:1007F800704700BF00ED00E00010024080B500AF78
:10080800144B154A1A60134B4FF4E1325A60114BDE
:1008180000229A600F4B0022DA600E4B00221A6108
:100828000C4B0C225A610B4B00229A61094B002297
:10083800DA61084B00221A62064B00225A62054808
:1008480001F0E8FF0346002B01D0FFF73EFF00BF91
:1008580080BD00BF280000200038014080B500AFEF
:10086800144B154A1A60134B4FF4E1325A60114B7E
:1008780000229A600F4B0022DA600E4B00221A61A8
:100888000C4B0C225A610B4B00229A61094B002237
:10089800DA61084B00221A62064B00225A620548A8
:1008A80001F0B8FF0346002B01D0FFF70EFF00BF91
:1008B80080BD00BFAC0000200044004080B58CB073
:1008C80000AF786007F11C0300221A605A609A6032
:1008D800DA601A617B681B68364A934230D1364B1E
:1008E8001B6E354A43F480431366334B1B6E03F487
:1008F8008043BB61BB69304BDB6C2F4A43F002037A
:10090800D3642D4BDB6C03F002037B617B69C0234E
:10091800FB6102233B6200237B620323BB62072344
:10092800FB6207F11C031946244800F0A5FA0022CF
:100938000021252000F0EBF9252000F004FA35E02D
:100948007B681B681E4A934230D11B4B9B6D1A4A29
:1009580043F400339365184B9B6D03F400333B61FC
:100968003B69154BDB6C144A43F00103D364124B0B
:10097800DB6C03F00103FB60FB680C23FB610223C3
:100988003B6200237B620323BB620723FB6207F100
:100998001C0319464FF0904000F06EFA0022002127
:1009A800262000F0B4F9262000F0CDF900BF30373A
:1009B800BD4680BD003801400010024000040048D8
:1009C80000440040DFF834D0FFF7E6FE002103E0E2
:1009D8000B4B5B58435004310A480B4B42189A4260
:1009E800F6D30A4A02E0002342F8043B084B9A4235
:1009F800F9D302F06DFEFFF7C1FDFEE7008001208C
:100A0800D4370408000000200C0000200C0000204F
:100A180034010020FEE7000080B582B000AF00235B
:100A2800FB710C4B1B680B4A43F480731360032063
:100A380000F062F9002000F00FF80346002B02D006
:100A48000123FB7101E0FFF745FEFB7918460837E3
:100A5800BD4680BD0020024080B584B000AF7860FC
:100A68000023FB73174B1B78002B23D0164B1A68F7
:100A7800144B1B7819464FF47A73B3FBF1F3B2FBAE
:100A8800F3F3184600F06DF90346002B0FD17B688D
:100A98000F2B09D8002279684FF0FF3000F037F9A2
:100AA8000A4A7B68136007E00123FB7304E0012313
:100AB800FB7301E00123FB73FB7B18461037BD462F
:100AC80080BD00BF080000200000002004000020B6
:100AD80080B400AF064B1B781A46064B1B681344BC
:100AE800044A136000BFBD465DF8047B704700BF31
:100AF800080000203001002080B400AF034B1B68C1
:100B08001846BD465DF8047B704700BF30010020E1
:100B180080B584B000AF7860FFF7EEFFB8607B68FF
:100B2800FB60FB68B3F1FF3F05D00A4B1B781A4600
:100B3800FB681344FB6000BFFFF7DEFF0246BB689B
:100B4800D31AFA689A42F7D800BF00BF1037BD46DB
:100B580080BD00BF0800002080B485B000AF786079
:100B68007B6803F00703FB600C4BDB68BB60BA686B
:100B78004FF6FF031340BB60FB681A02BB681343C0
:100B880043F0BF6343F40033BB60044ABB68D360DF
:100B980000BF1437BD465DF8047B704700ED00E0E8
:100BA80080B400AF044BDB681B0A03F00703184648
:100BB800BD465DF8047B704700ED00E080B483B06B
:100BC80000AF0346FB7197F90730002B0BDBFB796D
:100BD80003F01F02074997F907305B09012000FA63
:100BE80002F241F8232000BF0C37BD465DF8047BB4
:100BF800704700BF00E100E080B483B000AF034657
:100C08003960FB7197F90730002B0ADB3B68DAB2D1
:100C18000C4997F907301201D2B20B4483F800232C
:100C28000AE03B68DAB20849FB7903F00F03043B9A
:100C38001201D2B20B441A7600BF0C37BD465DF8DC
:100C4800047B704700E100E000ED00E080B489B06B
:100C580000AFF860B9607A60FB6803F00703FB61D6
:100C6800FB69C3F10703042B28BF0423BB61FB699D
:100C78000433062B02D9FB69033B00E000237B61A8
:100C88004FF0FF32BB6902FA03F3DA43BB681A403C
:100C98007B699A404FF0FF317B6901FA03F3D9432E
:100CA8007B680B40134318462437BD465DF8047B28
:100CB8007047000080B582B000AF78607B68013B68
:100CC800B3F1807F01D301230FE00A4A7B68013B1F
:100CD80053600F214FF0FF30FFF78EFF054B0022C6
:100CE8009A60044B07221A60002318460837BD464D
:100CF80080BD00BF10E000E080B582B000AF786032
:100D08007868FFF729FF00BF0837BD4680BD80B56A
:100D180086B000AF0346B9607A60FB7300237B613D
:100D2800FFF73EFF78617A68B9687869FFF78EFF48
:100D3800024697F90F3011461846FFF75DFF00BFCE
:100D48001837BD4680BD80B582B000AF0346FB7141
:100D580097F907301846FFF731FF00BF0837BD463F
:100D680080BD80B582B000AF78607868FFF7A2FFD9
:100D7800034618460837BD4680BD80B485B000AF2D
:100D880078600023FB737B6893F82530DBB2022B75
:100D980008D07B680422DA637B68002283F8242069
:100DA800012322E07B681B681A687B681B6822F0B5
:100DB8000E021A607B681B681A687B681B6822F041
:100DC80001021A607B685B6C03F01C027B681B6C79
:100DD800012101FA02F25A607B68012283F825207A
:100DE8007B68002283F82420FB7B18461437BD4615
:100DF8005DF8047B704780B584B000AF786000234D
:100E0800FB737B6893F82530DBB2022B05D07B6837
:100E18000422DA630123FB7329E07B681B681A68E4
:100E28007B681B6822F00E021A607B681B681A68D0
:100E38007B681B6822F001021A607B685B6C03F018
:100E48001C027B681B6C012101FA02F25A607B6864
:100E5800012283F825207B68002283F824207B6800
:100E68009B6B002B03D07B689B6B78689847FB7B58
:100E780018461037BD4680BD80B487B000AF786093
:100E8800396000237B617FE13B681A6801217B6937
:100E980001FA03F31340FB60FB68002B00F071813B
:100EA8003B685B68012B0BD03B685B68022B07D063
:100EB8003B685B68112B03D03B685B68122B30D111
:100EC8007B689B683B617B695B00032202FA03F342
:100ED800DB433A6913403B613B68DA687B695B0036
:100EE80002FA03F33A6913433B617B683A699A60F3
:100EF8007B685B683B6101227B6902FA03F3DB4391
:100F08003A6913403B613B685B681B0903F00102C7
:100F18007B6902FA03F33A6913433B617B683A69D8
:100F28005A603B685B6803F00303032B18D17B68A6
:100F3800DB6A3B6101227B6902FA03F3DB433A690E
:100F480013403B613B685B68DB0803F001027B6987
:100F580002FA03F33A6913433B617B683A69DA6240
:100F68007B68DB683B617B695B00032202FA03F361
:100F7800DB433A6913403B613B689A687B695B00D5
:100F880002FA03F33A6913433B617B683A69DA6012
:100F98003B685B68022B03D03B685B68122B23D14C
:100FA8007B69DA087B68083253F822303B617B6939
:100FB80003F007039B000F2202FA03F3DB433A69AD
:100FC80013403B613B681A697B6903F007039B0088
:100FD80002FA03F33A6913433B617B69DA087B68D9
:100FE8000832396943F822107B681B683B617B69CA
:100FF8005B00032202FA03F3DB433A6913403B61C7
:101008003B685B6803F003027B695B0002FA03F349
:101018003A6913433B617B683A691A603B685B68CD
:1010280003F08053002B00F0AC805F4B1B6E5E4AD0
:1010380043F0010313665C4B1B6E03F00103BB60B6
:10104800BB685A4A7B699B08023352F823303B61DC
:101058007B6903F003039B000F2202FA03F3DB43CF
:101068003A6913403B617B68B3F1904F25D07B68A8
:101078004F4A93421FD07B684E4A934219D07B68EF
:101088004D4A934213D07B684C4A93420DD07B68FB
:101098004B4A934207D07B684A4A934201D10623C0
:1010A8000CE007230AE0052308E0042306E00323F5
:1010B80004E0022302E0012300E000237A6902F041
:1010C8000302920093403A6913433B6137497B69B5
:1010D8009B0802333A6941F823203B4B1B683B616C
:1010E800FB68DB433A6913403B613B685B6803F488
:1010F8008033002B03D03A69FB6813433B61324AC3
:101108003B691360304B5B683B61FB68DB433A69C2
:1011180013403B613B685B6803F40033002B03D04A
:101128003A69FB6813433B61274A3B695360264B86
:101138009B683B61FB68DB433A6913403B613B6852
:101148005B6803F48013002B03D03A69FB681343F0
:101158003B611D4A3B6993601B4BDB683B61FB6845
:10116800DB433A6913403B613B685B6803F4001357
:10117800002B03D03A69FB6813433B61124A3B6971
:10118800D3607B6901337B613B681A687B6922FA0B
:1011980003F3002B7FF478AE00BF00BF1C37BD46B9
:1011A8005DF8047B704700BF00100240000001405A
:1011B8000004004800080048000C004800100048DF
:1011C80000140048001800480004014080B483B0AF
:1011D80000AF78600B467B8013467B707B78002BD2
:1011E80003D07A887B689A6102E07A887B689A6281
:1011F80000BF0C37BD465DF8047B704780B400AF74
:10120800044B1B6803F4C0631846BD465DF8047BB5
:10121800704700BF0070004080B485B000AF7860B0
:101228007B68B3F5007F30D1234B1B6803F4C063A0
:10123800B3F5007F38D0204B1B6823F4C0631E4AE7
:1012480043F4007313601D4B1B68322202FB03F347
:101258001B4AA2FB03239B0C0133FB6002E0FB68E3
:10126800013BFB60144B5B6903F48063B3F5806F4B
:1012780002D1FB68002BF2D10F4B5B6903F480634A
:10128800B3F5806F10D103230FE00B4B1B6803F4F9
:10129800C063B3F5806F07D0074B1B6823F4C063A6
:1012A800054A43F480631360002318461437BD468B
:1012B8005DF8047B704700BF00700040000000200C
:1012C80083DE1B4380B588B000AF78607B68002B55
:1012D80001D10123D4E3A14B9B6803F00C03BB614C
:1012E8009E4BDB6803F003037B617B681B6803F09C
:1012F8001003002B00F0E480BB69002B07D0BB690A
:101308000C2B40F08B807B69012B40F08780934B3E
:101318001B6803F00203002B05D07B689B69002B38
:1013280001D10123ACE37B681A6A8C4B1B6803F07C
:101338000803002B04D0894B1B6803F0F00305E079
:10134800864BD3F894301B0903F0F003934223D261
:101358007B681B6A184600F041FD0346002B01D04C
:1013680001238DE37D4B1B687C4A43F0080313601F
:101378007A4B1B6823F0F0027B681B6A774913439A
:101388000B60764B5B6823F47F427B68DB691B024A
:10139800724913434B6025E0704B1B686F4A43F05A
:1013A800080313606D4B1B6823F0F0027B681B6A0F
:1013B8006A4913430B60694B5B6823F47F427B687F
:1013C800DB691B02654913434B60BB69002B09D1DC
:1013D8007B681B6A184600F001FD0346002B01D00C
:1013E80001234DE300F036FC02465C4B9B681B0969
:1013F80003F00F035A49CB5C03F01F0322FA03F3EF
:10140800584A1360584B1B681846FFF725FB0346DC
:10141800FB73FB7B002B52D0FB7B31E37B689B6922
:10142800002B32D04D4B1B684C4A43F0010313602C
:10143800FFF762FB386108E0FFF75EFB02463B6995
:10144800D31A022B01D903231AE3444B1B6803F078
:101458000203002BF0D0414B1B68404A43F00803BD
:1014680013603E4B1B6823F0F0027B681B6A3B4904
:1014780013430B60394B5B6823F47F427B68DB695D
:101488001B02364913434B601AE0344B1B68334A3E
:1014980023F001031360FFF72FFB386108E0FFF723
:1014A8002BFB02463B69D31A022B01D90323E7E23F
:1014B8002A4B1B6803F00203002BF0D100E000BFA9
:1014C8007B681B6803F00103002B74D0BB69082BF1
:1014D80005D0BB690C2B0ED17B69032B0BD11F4B9D
:1014E8001B6803F40033002B64D07B685B68002B17
:1014F80060D10123C4E27B685B68B3F5803F06D105
:10150800164B1B68154A43F4803313601DE07B6853
:101518005B68B3F5A02F0CD1104B1B680F4A43F43E
:10152800802313600D4B1B680C4A43F4803313600F
:101538000BE00A4B1B68094A23F480331360074BFE
:101548001B68064A23F4802313607B685B68002BC2
:101558001CD0FFF7D1FA386111E000BF001002403B
:101568007C3704080000002004000020FFF7C4FABC
:1015780002463B69D31A642B01D9032380E2AF4B9F
:101588001B6803F40033002BF0D014E0FFF7B4FA23
:10159800386108E0FFF7B0FA02463B69D31A642BBA
:1015A80001D903236CE2A54B1B6803F40033002B1D
:1015B800F0D100E000BF7B681B6803F00203002B3A
:1015C80060D0BB69042B05D0BB690C2B19D17B6992
:1015D800022B16D1994B1B6803F48063002B05D0AE
:1015E8007B68DB68002B01D1012349E2934B5B68E0
:1015F80023F0F8527B681B691B06904913434B6024
:1016080040E07B68DB68002B23D08C4B1B688B4A3F
:1016180043F480731360FFF76FFA386108E0FFF74F
:101628006BFA02463B69D31A022B01D9032327E23E
:10163800824B1B6803F48063002BF0D07F4B5B6800
:1016480023F0F8527B681B691B067C4913434B60E7
:1016580018E07A4B1B68794A23F480731360FFF70C
:101668004BFA386108E0FFF747FA02463B69D31A9C
:10167800022B01D9032303E2704B1B6803F4806338
:10168800002BF0D17B681B6803F00803002B3CD0CB
:101698007B685B69002B1CD0684BD3F89430674A91
:1016A80043F00103C2F89430FFF726FA386108E0E6
:1016B800FFF722FA02463B69D31A022B01D903230A
:1016C800DEE15E4BD3F8943003F00203002BEFD039
:1016D8001BE05A4BD3F89430584A23F00103C2F860
:1016E8009430FFF709FA386108E0FFF705FA024677
:1016F8003B69D31A022B01D90323C1E14F4BD3F81D
:10170800943003F00203002BEFD17B681B6803F0D1
:101718000403002B00F0A6800023FB77474B9B6D4A
:1017280003F08053002B0DD1444B9B6D434A43F08B
:1017380080539365414B9B6D03F08053BB60BB683E
:101748000123FB773E4B1B6803F48073002B18D1F1
:101758003B4B1B683A4A43F480731360FFF7CCF99C
:10176800386108E0FFF7C8F902463B69D31A022B33
:1017780001D9032384E1324B1B6803F48073002BE7
:10178800F0D07B689B68012B08D12C4BD3F89030A4
:101798002A4A43F00103C2F8903024E07B689B6832
:1017A800052B10D1254BD3F89030244A43F004037D
:1017B800C2F89030214BD3F89030204A43F001030F
:1017C800C2F890300FE01D4BD3F890301B4A23F03D
:1017D8000103C2F89030194BD3F89030174A23F020
:1017E8000403C2F890307B689B68002B16D0FFF783
:1017F80083F938610AE0FFF77FF902463B69D31A9B
:1018080041F28832934201D9032339E10B4BD3F8D3
:10181800903003F00203002BEDD01AE0FFF76CF9CB
:1018280038610FE0FFF768F902463B69D31A41F2C5
:101838008832934206D9032322E100BF00100240F8
:1018480000700040904BD3F8903003F00203002B57
:10185800E8D1FB7F012B05D18B4B9B6D8A4A23F086
:10186800805393657B689B6A002B00F008817B6836
:101878009B6A022B40F0D080834BDB687B617B69DD
:1018880003F003027B68DB6A9A4230D17B6903F07C
:1018980070027B681B6B013B1B019A4227D17B6955
:1018A80003F4FE427B685B6B1B029A421FD17B6983
:1018B80003F400337A68926B072A14BF01220022CE
:1018C800D2B2934213D17B6903F4C0027B68DB6B0D
:1018D8005B08013B5B059A4209D17B6903F0C06252
:1018E8007B681B6C5B08013B5B069A426ED0BB6948
:1018F8000C2B69D0644B1B6803F08063002B05D167
:10190800614B1B6803F08053002B01D00123B7E023
:101918005D4B1B685C4A23F080731360FFF7ECF89B
:10192800386108E0FFF7E8F802463B69D31A022B52
:1019380001D90323A4E0544B1B6803F00073002B68
:10194800F0D1514BDA68514B13407A68D16A7A6802
:10195800126B013A120111437A68526B1202114359
:101968007A68D26B5208013A520511437A68126CB0
:101978005208013A520611437A68926B12095204CE
:101988000A4341491343CB603F4B1B683E4A43F02F
:10199800807313603C4BDB683B4A43F08073D36031
:1019A800FFF7AAF8386108E0FFF7A6F802463B6996
:1019B800D31A022B01D9032362E0334B1B6803F0CF
:1019C8000073002BF0D05AE0012359E02E4B1B681E
:1019D80003F00073002B52D12B4B1B682A4A43F0AB
:1019E80080731360284BDB68274A43F08073D36009
:1019F800FFF782F8386108E0FFF77EF802463B6996
:101A0800D31A022B01D903233AE01F4B1B6803F0BA
:101A18000073002BF0D032E0BB690C2B2DD01A4B91
:101A28001B68194A23F080731360174B1B6803F077
:101A38002053002B05D1144BDB68134A23F0030312
:101A4800D360114BDB68104A23F0887323F480338A
:101A5800D360FFF751F8386108E0FFF74DF8024608
:101A68003B69D31A022B01D9032309E0064B1B68F3
:101A780003F00073002BF0D101E0012300E0002304
:101A880018462037BD4680BD001002408C809DF965
:101A980080B584B000AF786039607B68002B01D1D5
:101AA8000123C8E0664B1B6803F007033A689A42B3
:101AB80010D9634B1B6823F0070261493B68134345
:101AC8000B605F4B1B6803F007033A689A4201D02A
:101AD8000123B0E07B681B6803F00103002B4CD0A6
:101AE8007B685B68032B07D1564B1B6803F00073B8
:101AF800002B21D101239EE07B685B68022B07D174
:101B0800504B1B6803F40033002B15D1012392E0DE
:101B18007B685B68002B07D14A4B1B6803F0020304
:101B2800002B09D1012386E0464B1B6803F4806330
:101B3800002B01D101237EE0424B9B6823F0030276
:101B48007B685B683F4913438B60FEF7D5FFF860FD
:101B58000AE0FEF7D1FF0246FB68D31A41F2883249
:101B6800934201D9032366E0364B9B6803F00C02CD
:101B78007B685B689B009A42EBD17B681B6803F02B
:101B88000203002B08D02F4B9B6823F0F0027B68E0
:101B98009B682C4913438B60294B1B6803F0070390
:101BA8003A689A4210D2264B1B6823F00702244950
:101BB8003B6813430B60224B1B6803F007033A682A
:101BC8009A4201D0012336E07B681B6803F00403C6
:101BD800002B08D01B4B9B6823F4E0627B68DB6812
:101BE800184913438B607B681B6803F00803002BBC
:101BF80009D0144B9B6823F460527B681B69DB0097
:101C0800104913438B6000F025F802460D4B9B6882
:101C18001B0903F00F030C49CB5C03F01F0322FAE6
:101C280003F30A4A13600A4B1B681846FEF714FFB1
:101C38000346FB72FB7A18461037BD4680BD00BFCD
:101C480000200240001002407C37040800000020F9
:101C58000400002080B489B000AF0023FB6100239A
:101C6800BB613E4B9B6803F00C033B613B4BDB685D
:101C780003F00303FB603B69002B05D03B690C2B89
:101C880021D1FB68012B1ED1344B1B6803F00803DC
:101C9800002B07D1314BD3F894301B0A03F00F0304
:101CA800FB6105E02D4B1B681B0903F00F03FB616B
:101CB8002B4AFB6952F82330FB613B69002B0DD19D
:101CC800FB69BB610AE03B69042B02D1254BBB6170
:101CD80004E03B69082B01D1234BBB613B690C2B0A
:101CE80034D11E4BDB6803F00303BB60BB68022BD7
:101CF80003D0BB68032B03D005E01A4B7B6105E0DA
:101D0800194B7B6102E0FB697B6100BF134BDB6809
:101D18001B0903F0070301337B60104BDB681B0AC8
:101D280003F07F037A6902FB03F27B68B2FBF3F3EB
:101D38007B610A4BDB685B0E03F0030301335B0036
:101D48003B607A693B68B2FBF3F3BB61BB69184639
:101D58002437BD465DF8047B704700BF0010024081
:101D6800943704080024F40000127A0080B400AF0D
:101D7800034B1B681846BD465DF8047B704700BFDF
:101D88000000002080B500AFFFF7F0FF0246064BC9
:101D98009B681B0A03F007030449CB5C03F01F038D
:101DA80022FA03F3184680BD001002408C3704085D
:101DB80080B500AFFFF7DAFF0246064B9B68DB0AE7
:101DC80003F007030449CB5C03F01F0322FA03F373
:101DD800184680BD001002408C37040880B586B0D4
:101DE80000AF786000233B612A4B9B6D03F0805362
:101DF800002B03D0FFF702FA786114E0254B9B6DA6
:101E0800244A43F080539365224B9B6D03F0805323
:101E1800FB60FB68FFF7F2F978611E4B9B6D1D4A6A
:101E280023F0805393657B69B3F5007F0BD17B6802
:101E3800802B19D97B68A02B02D902233B6113E0C0
:101E480001233B6110E07B68802B02D903233B61AF
:101E58000AE07B68802B02D102233B6104E07B68A7
:101E6800702B01D101233B610B4B1B6823F0070248
:101E780009493B6913430B60074B1B6803F00703D1
:101E88003A699A4201D0012300E000231846183726
:101E9800BD4680BD001002400020024080B586B0DB
:101EA80000AF78600023FB740023BB747B681B6859
:101EB80003F40063002B41D07B685B6EB3F5400FE1
:101EC8002AD0B3F5400F24D8B3F5000F08D0B3F5E6
:101ED800000F1ED8002B0AD0B3F5800F10D018E0E1
:101EE800864BDB68854A43F48033D36015E07B6812
:101EF80004330021184600F0BBFA0346FB740CE0DB
:101F08007B6820330021184600F0A6FB0346FB74CB
:101F180003E00123FB7400E000BFFB7C002B0BD126
:101F2800764BD3F8883023F440027B685B6E7349A4
:101F38001343C1F8883001E0FB7CBB747B681B68E5
:101F480003F48053002B41D07B689B6EB3F1407F34
:101F58002AD0B3F1407F24D8B3F1007F08D0B3F181
:101F6800007F1ED8002B0AD0B3F1807F10D018E074
:101F7800624BDB68614A43F48033D36015E07B68C9
:101F880004330021184600F073FA0346FB740CE092
:101F98007B6820330021184600F05EFB0346FB7483
:101FA80003E00123FB7400E000BFFB7C002B0BD196
:101FB800524BD3F8883023F040727B689B6E4F49B0
:101FC8001343C1F8883001E0FB7CBB747B681B6855
:101FD80003F40033002B00F0A08000237B74474BF0
:101FE8009B6D03F08053002B01D1012300E00023F7
:101FF800002B0DD0414B9B6D404A43F080539365B5
:102008003E4B9B6D03F08053BB60BB6801237B7420
:102018003B4B1B683A4A43F480731360FEF76CFD30
:10202800F86009E0FEF768FD0246FB68D31A022B48
:1020380002D90323FB7405E0314B1B6803F480735A
:10204800002BEFD0FB7C002B5CD12C4BD3F89030CD
:1020580003F440737B617B69002B1FD07B68D3F846
:1020680084307A699A4219D0244BD3F8903023F4FB
:1020780040737B61214BD3F89030204A43F480337E
:10208800C2F890301D4BD3F890301C4A23F48033AB
:10209800C2F89030194A7B69C2F890307B6903F026
:1020A8000103002B16D0FEF727FDF8600BE0FEF7C2
:1020B80023FD0246FB68D31A41F28832934202D9C3
:1020C8000323FB7406E00D4BD3F8903003F00203B2
:1020D800002BECD0FB7C002B0CD1084BD3F89030B4
:1020E80023F440727B68D3F8843004491343C1F861
:1020F800903009E0FB7CBB7406E000BF0010024092
:1021080000700040FB7CBB747B7C012B05D19E4B8F
:102118009B6D9D4A23F0805393657B681B6803F091
:102128000103002B0AD0984BD3F8883023F0030220
:102138007B689B6B94491343C1F888307B681B68A4
:1021480003F00203002B0AD08F4BD3F8883023F01A
:102158000C027B68DB6B8C491343C1F888307B68C1
:102168001B6803F00403002B0AD0874BD3F8883090
:1021780023F030027B681B6C83491343C1F8883015
:102188007B681B6803F00803002B0AD07E4BD3F84A
:10219800883023F0C0027B685B6C7B491343C1F82D
:1021A80088307B681B6803F01003002B0AD0764B3D
:1021B800D3F8883023F440727B689B6C72491343D0
:1021C800C1F888307B681B6803F02003002B0AD015
:1021D8006D4BD3F8883023F440627B68DB6C6A4926
:1021E8001343C1F888307B681B6803F40073002B25
:1021F8000AD0654BD3F8883023F440227B68DB6D26
:1022080061491343C1F888307B681B6803F4806315
:10221800002B0AD05C4BD3F8883023F440127B683B
:102228001B6E59491343C1F888307B681B6803F05B
:102238004003002B0AD0544BD3F8883023F4405283
:102248007B681B6D50491343C1F888307B681B6855
:1022580003F08003002B0AD04B4BD3F8883023F4CB
:1022680040427B685B6D48491343C1F888307B68FE
:102278001B6803F48073002B0AD0434BD3F88830D3
:1022880023F440327B689B6D3F491343C1F8883083
:102298007B681B6803F40053002B28D03A4BD3F813
:1022A800883023F040627B68DB6E37491343C1F8FE
:1022B80088307B68DB6EB3F1006F06D1324BDB6888
:1022C800314A43F48013D36011E07B68DB6EB3F1CD
:1022D800806F0CD17B6804330121184600F0C8F8E0
:1022E8000346FB74FB7C002B01D0FB7CBB747B6832
:1022F8001B6803F40023002B28D0234BD3F8883025
:1023080023F040627B681B6F1F491343C1F8883074
:102318007B681B6FB3F1006F06D11B4BDB681A4A51
:1023280043F48013D36011E07B681B6FB3F1806FB7
:102338000CD17B6804330121184600F099F8034654
:10234800FB74FB7C002B01D0FB7CBB747B681B6897
:1023580003F48023002B2BD00B4BD3F8883023F0C9
:1023680040627B685B6F08491343C1F888307B681B
:102378005B6FB3F1006F09D1034BDB68024A43F48A
:102388008013D36014E000BF001002407B685B6FCD
:10239800B3F1806F0CD17B6804330121184600F03B
:1023A80067F80346FB74FB7C002B01D0FB7CBB74F5
:1023B8007B681B6803F48043002B2FD02B4BD3F88A
:1023C800883023F040527B689B6F28491343C1F83B
:1023D80088307B689B6FB3F1805F0DD17B680433D5
:1023E8000221184600F044F80346FB74FB7C002BDE
:1023F80014D0FB7CBB7411E07B689B6FB3F1005F6A
:102408000CD17B6820330221184600F025F90346D9
:10241800FB74FB7C002B01D0FB7CBB747B681B68C6
:1024280003F40043002B0AD0104BD3F8883023F074
:1024380080427B68DB6F0D491343C1F888307B68A5
:102448001B6803F48033002B0BD0084BD3F888307B
:1024580023F000427B68D3F8803004491343C1F865
:102468008830BB7C18461837BD4680BD0010024036
:1024780080B584B000AF786039600023FB73754B7A
:10248800DB6803F00303002B18D0724BDB6803F002
:1024980003027B681B689A420DD17B681B68002B7E
:1024A80009D06C4BDB681B0903F007035A1C7B68D7
:1024B8005B689A4247D00123FB7344E07B681B6842
:1024C800032B18D0032B25D8012B02D0022B09D0BF
:1024D80020E0604B1B6803F00203002B1DD1012391
:1024E800FB731AE05B4B1B6803F48063002B16D167
:1024F8000123FB7313E0574B1B6803F40033002BD5
:102508000FD1544B1B6803F48023002B09D10123FE
:10251800FB7306E00123FB7304E000BF02E000BF89
:1025280000E000BFFB7B002B0DD14A4BDB6823F09A
:1025380073027B6819687B685B68013B1B010B436E
:1025480044491343CB60FB7B002B7DD1414B1B6877
:10255800404A23F080631360FEF7CEFAB86009E0C2
:10256800FEF7CAFA0246BB68D31A022B02D9032324
:10257800FB7305E0374B1B6803F00063002BEFD1BA
:10258800FB7B002B60D13B68002B11D1314B1B69C1
:1025980023F41F3323F440737A68926811027A682F
:1025A800D268120952040A432A4913430B6127E0EF
:1025B8003B68012B12D1274B1B6923F4C00323F47A
:1025C800FE437A68926811027A6812695208013AE1
:1025D80052050A431F4913430B6111E01D4B1B6948
:1025E80023F0C06323F4FE437A68926811027A6884
:1025F80052695208013A52060A43164913430B61BD
:10260800144B1B68134A43F080631360FEF774FA97
:10261800B86009E0FEF770FA0246BB68D31A022BCD
:1026280002D90323FB7305E00A4B1B6803F0006320
:10263800002BEFD0FB7B002B06D1064B1A697B6879
:102648009B69044913430B61FB7B18461037BD4651
:1026580080BD00BF0010024080B584B000AF786034
:1026680039600023FB736A4BDB6803F00303002B1C
:1026780018D0674BDB6803F003027B681B689A423B
:102688000DD17B681B68002B09D0614BDB681B09E7
:1026980003F007035A1C7B685B689A4247D0012302
:1026A800FB7344E07B681B68032B18D0032B25D8E9
:1026B800012B02D0022B09D020E0554B1B6803F0F8
:1026C8000203002B1DD10123FB731AE0504B1B683A
:1026D80003F48063002B16D10123FB7313E04C4BEA
:1026E8001B6803F40033002B0FD1494B1B6803F41C
:1026F8008023002B09D10123FB7306E00123FB7320
:1027080004E000BF02E000BF00E000BFFB7B002B3D
:102718000DD13F4BDB6823F073027B6819687B6837
:102728005B68013B1B010B4339491343CB60FB7BBF
:10273800002B67D1364B1B68354A23F08053136052
:10274800FEF7DAF9B86009E0FEF7D6F90246BB6889
:10275800D31A022B02D90323FB7305E02C4B1B6809
:1027680003F00053002BEFD1FB7B002B4AD13B68D1
:10277800002B11D1264B5B6923F41F3323F44073DC
:102788007A68926811027A68D268120952040A4378
:102798001F4913434B6111E01D4B5B6923F0C06374
:1027A80023F4FE437A68926811027A681269520823
:1027B800013A52060A43164913434B61144B1B68EE
:1027C800134A43F080531360FEF796F9B86009E0A6
:1027D800FEF792F90246BB68D31A022B02D90323EB
:1027E800FB7305E00A4B1B6803F00053002BEFD086
:1027F800FB7B002B06D1064B5A697B685B69044951
:1028080013434B61FB7B18461037BD4680BD00BFA4
:102818000010024080B582B000AF78607B68002B62
:1028280001D1012340E07B689B6F002B06D17B68B8
:10283800002283F874207868FEF740F87B68242229
:102848009A677B681B681A687B681B6822F001021C
:102858001A60786800F0E2FA0346012B01D10123DF
:1028680022E07B685B6A002B02D0786800F060FD8C
:102878007B681B685A687B681B6822F490425A6020
:102888007B681B689A687B681B6822F02A029A603A
:102898007B681B681A687B681B6842F001021A6033
:1028A800786800F0E7FD034618460837BD4680BD46
:1028B80080B58AB002AFF860B9603B601346FB8010
:1028C800FB689B6F202B40F08280BB68002B02D0F6
:1028D800FB88002B01D101237AE0FB6893F8743060
:1028E800012B01D1022373E0FB68012283F87420D5
:1028F800FB680022C3F88020FB6821229A67FEF754
:10290800FBF87861FB68FA88A3F85020FB68FA881E
:10291800A3F85220FB689B68B3F5805F08D1FB6879
:102928001B69002B04D10023FB61BB68BB6103E07A
:10293800BB68FB610023BB61FB68002283F874203D
:102948002DE03B6800937B6900228021F86800F045
:10295800DAFD0346002B01D0032339E0FB69002B85
:102968000BD1BB691A88FB681B68C2F3080292B2D4
:102978001A85BB690233BB6108E0FB691A78FB68FA
:102988001B6892B21A85FB690133FB61FB68B3F8D7
:1029980052309BB2013B9AB2FB68A3F85220FB6805
:1029A800B3F852309BB2002BCBD13B6800937B69C4
:1029B80000224021F86800F0A6FD0346002B01D054
:1029C800032305E0FB6820229A67002300E0022326
:1029D80018462037BD4680BD80B588B000AF786006
:1029E8007B681B68DB69FB617B681B681B68BB61D4
:1029F8007B681B689B687B61FA6940F60F0313408C
:102A08003B613B69002B13D1FB6903F02003002BCA
:102A18000ED0BB6903F02003002B09D07B685B6EE6
:102A2800002B00F0CE817B685B6E78689847C8E120
:102A38003B69002B00F0E3807B6903F00103002B66
:102A480005D1BA69A64B1340002B00F0D880FB696A
:102A580003F00103002B10D0BB6903F48073002B33
:102A68000BD07B681B6801221A627B68D3F8803020
:102A780043F001027B68C3F88020FB6903F002037E
:102A8800002B10D07B6903F00103002B0BD07B686F
:102A98001B6802221A627B68D3F8803043F0040274
:102AA8007B68C3F88020FB6903F00403002B10D077
:102AB8007B6903F00103002B0BD07B681B680422A1
:102AC8001A627B68D3F8803043F002027B68C3F84F
:102AD8008020FB6903F00803002B15D0BB6903F0C5
:102AE8002003002B04D17B6903F00103002B0BD0DA
:102AF8007B681B6808221A627B68D3F8803043F031
:102B080008027B68C3F88020FB6903F40063002B8C
:102B180011D0BB6903F08063002B0CD07B681B6865
:102B28004FF400621A627B68D3F8803043F02002C9
:102B38007B68C3F880207B68D3F88030002B00F0D6
:102B48004281FB6903F02003002B0CD0BB6903F022
:102B58002003002B07D07B685B6E002B03D07B68BB
:102B68005B6E786898477B68D3F88030FB607B6839
:102B78001B689B6803F04003402B04D0FB6803F0FC
:102B88002803002B31D0786800F039FD7B681B687A
:102B98009B6803F04003402B23D17B681B689A682D
:102BA8007B681B6822F040029A607B681B6F002BD1
:102BB80013D07B681B6F4B4A9A637B681B6F184660
:102BC800FEF719F90346002B17D07B681B6F9B6B28
:102BD8007A68126F104698470FE0786800F008F995
:102BE8000BE0786800F004F907E0786800F000F975
:102BF8007B680022C3F88020E5E000BFE3E07B6843
:102C08001B6E012B40F0A980FB6903F01003002B19
:102C180000F0A380BB6903F01003002B00F09D8037
:102C28007B681B6810221A627B681B689B6803F02C
:102C38004003402B58D17B681B6F1B685B683B8146
:102C48003B89002B00F0C1807B68B3F858303A8983
:102C58009A4280F0BA807B683A89A3F85A207B6848
:102C68001B6F1B681B6803F02003002B2AD17B68AD
:102C78001B681A687B681B6822F480721A607B687C
:102C88001B689A687B681B6822F001029A607B685F
:102C98001B689A687B681B6822F040029A607B6810
:102CA8002022DA677B6800221A667B681B681A682C
:102CB8007B681B6822F010021A607B681B6F18463D
:102CC800FEF75BF87B68B3F858207B68B3F85A3096
:102CD8009BB2D31A9BB21946786800F093F874E057
:102CE80020010004653604087B68B3F858207B6827
:102CF800B3F85A309BB2D31A7B817B68B3F85A3049
:102D08009BB2002B63D07B89002B60D07B681B684B
:102D18001A687B681B6822F490721A607B681B68CB
:102D28009A687B681B6822F001029A607B682022FF
:102D3800DA677B6800221A667B6800225A667B681D
:102D48001B681A687B681B6822F010021A607B896E
:102D58001946786800F056F839E0FB6903F48013E7
:102D6800002B0DD07B6903F48003002B08D07B680F
:102D78001B684FF480121A62786800F09EFC29E004
:102D8800FB6903F08003002B0DD0BB6903F08003BF
:102D9800002B08D07B689B6E002B1AD07B689B6E3B
:102DA8007868984715E0FB6903F04003002B11D0C1
:102DB800BB6903F04003002B0CD0786800F064FC7A
:102DC80008E000BF06E000BF04E000BF02E000BF6B
:102DD80000E000BF2037BD4680BD00BF80B483B08F
:102DE80000AF786000BF0C37BD465DF8047B7047C4
:102DF80080B483B000AF786000BF0C37BD465DF883
:102E0800047B704780B483B000AF78600B467B804A
:102E180000BF0C37BD465DF8047B7047B0B588B07D
:102E280000AF78600023BB767B689A687B681B6973
:102E38001A437B685B691A437B68DB691343FB6150
:102E48007B681B681A68AD4B13407A681268F96989
:102E58000B4313607B681B685B6823F440517B68F5
:102E6800DA687B681B680A435A607B689B69FB6168
:102E78007B681B68A24A934204D07B681B6AFA6984
:102E88001343FB617B681B689B6823F430617B6894
:102E98001B68FA690A439A607B681B68994A9342DF
:102EA80021D1994BD3F8883003F00303032B17D8AB
:102EB80001A252F823F000BFD12E0408DD2E040829
:102EC800D72E0408E32E04080123FB76E7E002234B
:102ED800FB76E4E00423FB76E1E00823FB76DEE002
:102EE8001023FB76DBE07B681B68884A934232D16B
:102EF800854BD3F8883003F00C030C2B28D801A29B
:102F080052F823F0412F0408592F0408592F0408B8
:102F1800592F04084D2F0408592F0408592F040865
:102F2800592F0408472F0408592F0408592F04085B
:102F3800592F0408532F04080023FB76AFE002231F
:102F4800FB76ACE00423FB76A9E00823FB76A6E039
:102F58001023FB76A3E07B681B686D4A934220D15F
:102F6800694BD3F8883003F03003302B13D0302B63
:102F780014D8202B09D0202B10D8002B02D0102BCE
:102F880006D00BE00023FB7689E00223FB7686E07F
:102F98000423FB7683E00823FB7680E01023FB768E
:102FA8007DE07B681B685B4A934220D1564BD3F87F
:102FB800883003F0C003C02B13D0C02B14D8802B4B
:102FC80009D0802B10D8002B02D0402B06D00BE064
:102FD8000023FB7663E00223FB7660E00423FB76A4
:102FE8005DE00823FB765AE01023FB7657E07B6808
:102FF8001B68494A934225D1434BD3F8883003F4E0
:103008004073B3F5407F17D0B3F5407F17D8B3F5B9
:10301800007F0BD0B3F5007F11D8002B03D0B3F598
:10302800807F06D00BE00023FB7638E00223FB7696
:1030380035E00423FB7632E00823FB762FE01023EB
:10304800FB762CE07B681B682D4A934225D12E4BDA
:10305800D3F8883003F44063B3F5406F17D0B3F565
:10306800406F17D8B3F5006F0BD0B3F5006F11D8C8
:10307800002B03D0B3F5806F06D00BE00023FB765E
:103088000DE00223FB760AE00423FB7607E0082321
:10309800FB7604E01023FB7601E01023FB767B68C7
:1030A8001B68174A934240F08780FB7E082B37D86D
:1030B80001A252F823F000BFE530040829310408C2
:1030C800ED30040829310408F330040829310408D4
:1030D8002931040829310408FB300408FEF752FEA0
:1030E800786122E00D4B7B611FE0FEF7B3FD78614C
:1030F8001BE04FF400437B6117E000BFF369FFEF6B
:1031080000800040003801400010024000440040A8
:1031180000480040004C0040005000400024F400EB
:1031280000237B610123BB7600BF7B69002B00F085
:10313800F1807B685A6813465B0013447A699A42A7
:1031480005D37B685B681B037A699A4202D901231D
:10315800BB76DFE07B6918464FF000014FF00002B4
:103168004FF000030B0243EA1063020279684968D2
:10317800490808464FF00001141843EB01057B6825
:103188005B681A464FF0000320462946FDF720F8F1
:1031980002460B4613463B613B69B3F5407F08D3B3
:1031A8003B69B3F5801F04D27B681B683A69DA6013
:1031B800B0E00123BB76ADE07B68DB69B3F5004F77
:1031C8005CD1FB7E082B28D801A252F823F000BF5F
:1031D800FD310408053204080D32040823320408BE
:1031E8001332040823320408233204082332040863
:1031F8001B320408FEF7C6FD786113E0FEF7D8FD20
:1032080078610FE0494B7B610CE0FEF723FD7861A4
:1032180008E04FF400437B6104E000237B61012355
:10322800BB7600BF7B69002B74D07B695A007B6832
:103238005B685B081A447B685B68B2FBF3F39BB27C
:103248003B613B690F2B16D93B69B3F5803F12D21E
:103258003B699BB223F00F03FB813B695B089BB280
:1032680003F007039AB2FB891343FB817B681B6851
:10327800FA89DA604EE00123BB764BE0FB7E082B2F
:1032880027D801A252F823F0B5320408BD32040849
:10329800C5320408DB320408CB320408DB320408E8
:1032A800DB320408DB320408D3320408FEF76AFD77
:1032B800786113E0FEF77CFD78610FE01B4B7B61C2
:1032C8000CE0FEF7C7FC786108E04FF400437B612F
:1032D80004E000237B610123BB7600BF7B69002BE0
:1032E80018D07B685B685A087B691A447B685B68FE
:1032F800B2FBF3F39BB23B613B690F2B08D93B69E7
:10330800B3F5803F04D27B681B683A69DA6001E054
:103318000123BB767B6800225A667B6800229A6686
:10332800BB7E18462037BD46B0BD00BF0024F40060
:1033380080B483B000AF78607B685B6A03F00103F8
:10334800002B0AD07B681B685B6823F400317B681C
:103358009A6A7B681B680A435A607B685B6A03F059
:103368000203002B0AD07B681B685B6823F480315A
:103378007B68DA6A7B681B680A435A607B685B6A09
:1033880003F00403002B0AD07B681B685B6823F4F6
:1033980080217B681A6B7B681B680A435A607B68CC
:1033A8005B6A03F00803002B0AD07B681B685B6824
:1033B80023F400417B685A6B7B681B680A435A6098
:1033C8007B685B6A03F01003002B0AD07B681B68DC
:1033D8009B6823F480517B689A6B7B681B680A435F
:1033E8009A607B685B6A03F02003002B0AD07B6835
:1033F8001B689B6823F400517B68DA6B7B681B6849
:103408000A439A607B685B6A03F04003002B1AD07A
:103418007B681B685B6823F480117B681A6C7B6887
:103428001B680A435A607B681B6CB3F5801F0AD17E
:103438007B681B685B6823F4C0017B685A6C7B68F7
:103448001B680A435A607B685B6A03F08003002BA1
:103458000AD07B681B685B6823F400217B689A6C40
:103468007B681B680A435A6000BF0C37BD465DF88D
:10347800047B704780B586B002AF78607B68002215
:10348800C3F88020FDF738FBF8607B681B681B6871
:1034980003F00803082B0ED16FF07E430093FB68FE
:1034A80000224FF40011786800F02DF80346002B35
:1034B80001D0032323E07B681B681B6803F0040327
:1034C800042B0ED16FF07E430093FB6800224FF46B
:1034D8008001786800F017F80346002B01D0032319
:1034E8000DE07B6820229A677B682022DA677B6878
:1034F80000221A667B68002283F87420002318468D
:103508001037BD4680BD80B584B000AFF860B960A3
:103518003B601346FB715EE0BB69B3F1FF3F5AD0D5
:10352800FDF7EAFA02463B68D31ABA699A4202D30F
:10353800BB69002B1BD1FB681B681A68FB681B68FA
:1035480022F4D0721A60FB681B689A68FB681B68D3
:1035580022F001029A60FB6820229A67FB68202209
:10356800DA67FB68002283F87420032343E0FB68D2
:103578001B681B6803F00403002B2CD0FB681B6836
:10358800DB6903F40063B3F5006F24D1FB681B68A3
:103598004FF400621A62FB681B681A68FB681B68B4
:1035A80022F4D0721A60FB681B689A68FB681B6873
:1035B80022F001029A60FB6820229A67FB682022A9
:1035C800DA67FB682022C3F88020FB68002283F8B2
:1035D800742003230FE0FB681B68DA69BB6813409B
:1035E800BA689A420CBF01230023DBB21A46FB7962
:1035F8009A4291D0002318461037BD4680BD80B44A
:1036080083B000AF78607B681B681A687B681B68AA
:1036180022F490721A607B681B689A687B681B6842
:1036280022F001029A607B681B6E012B07D17B6830
:103638001B681A687B681B6822F010021A607B6896
:103648002022DA677B6800221A667B6800225A66A5
:1036580000BF0C37BD465DF8047B704780B584B069
:1036680000AF78607B689B6AFB60FB680022A3F868
:103678005A20FB680022A3F85220F868FFF7B8FB2D
:1036880000BF1037BD4680BD80B582B000AF7860FE
:103698007B681B681A687B681B6822F040021A6006
:1036A8007B6820229A677B6800229A667868FFF711
:1036B80095FB00BF0837BD4680BD80B483B000AF1E
:1036C800786000BF0C37BD465DF8047B704700008A
:1036D80070B50D4D0D4C641BA4100026A64209D1EF
:1036E8000B4D0C4C00F020F8641BA4100026A642D9
:1036F80005D170BD55F8043B98470136EEE755F8FB
:10370800043B98470136F2E7CC370408CC37040865
:10371800CC370408D037040802440346934200D14A
:10372800704703F8011BF9E7F8B500BFF8BC08BCFF
:103738009E467047F8B500BFF8BC08BC9E46704767
:103748000A5468697320697320464F5441204669BA
:10375800726D7761726500000000000000000000D3
:103768000000000000000000000000000000000051
:103778000000000000000000000000000102030437
:10378800060708090000000001020304A0860100E2
:10379800400D0300801A060000350C0040420F005F
:1037A80080841E0000093D0000127A000024F40005
:0C37B80000366E010048E801006CDC02E5
:0837C40044CAFF7F0100000070
:0437CC00AD0104083F
:0437D000890104085F
:0C37D40000093D00100000000100000092
:04000005080409CD15
:00000001FF
