:020000040800F2
:1000000000800120551B0008211700082717000851
:100010002D170008331700083917000800000000EA
:100020000000000000000000000000003F17000872
:100030004D170008000000005B1700086917000852
:10004000A51B0008A51B0008A51B0008A51B000890
:10005000A51B0008A51B0008A51B0008A51B000880
:10006000A51B0008A51B0008A51B0008A51B000870
:10007000A51B0008A51B0008A51B0008A51B000860
:10008000A51B0008A51B0008A51B0008A51B000850
:10009000A51B0008A51B0008A51B0008A51B000840
:1000A000A51B0008A51B0008A51B0008A51B000830
:1000B000A51B0008A51B0008A51B0008A51B000820
:1000C000A51B0008A51B0008A51B0008A51B000810
:1000D000A51B00087517000889170008A51B000854
:1000E000A51B0008A51B0008A51B0008A51B0008F0
:1000F000A51B0008A51B0008A51B0008A51B0008E0
:10010000A51B0008A51B0008A51B0008A51B0008CF
:10011000A51B0008A51B0008A51B0008A51B0008BF
:10012000A51B0008A51B0008A51B0008A51B0008AF
:10013000A51B0008A51B0008A51B0008A51B00089F
:10014000A51B0008A51B0008A51B0008A51B00088F
:10015000A51B0008A51B0008A51B0008A51B00087F
:10016000A51B0008A51B0008A51B0008A51B00086F
:10017000A51B0008A51B0008A51B00080000000027
:08018000A51B0008A51B0008E7
:1001900010B5054C237833B9044B13B10448AFF3C1
:1001A00000800123237010BD140200200000000015
:1001B0005C9A000808B5034B1BB103490348AFF331
:1001C000008008BD00000000180200205C9A0008B2
:1001D00001F0FF01102A2BDB10F0070F08D010F8F8
:1001E000013B013A8B422DD010F0070F42B3F6D1FC
:1001F000F0B441EA012141EA014122F007047FF015
:1002000000070023F0E80256083C85EA010586EA6B
:10021000010685FA47F5A3FA87F586FA47F6A5FAA7
:1002200087F68EB9EED1F0BC01F0FF0102F00702B3
:1002300032B110F8013B013A83EA010313B1F8D15E
:100240000020704701387047002D06BF354603383F
:10025000073815F0010F07D1013015F4807F02BF78
:10026000013015F4C03F0130F0BC0138704700BFC9
:10027000034613F8012B002AFBD1181A01387047E6
:1002800081F0004102E000BF83F0004330B54FEA47
:1002900041044FEA430594EA050F08BF90EA020FB4
:1002A0001FBF54EA000C55EA020C7FEA645C7FEA47
:1002B000655C00F0E2804FEA5454D4EB5555B8BF6A
:1002C0006D420CDD2C4480EA020281EA030382EADB
:1002D000000083EA010180EA020281EA0303362D6D
:1002E00088BF30BD11F0004F4FEA01314FF4801C40
:1002F0004CEA113102D0404261EB410113F0004F52
:100300004FEA03334CEA133302D0524263EB430308
:1003100094EA050F00F0A780A4F10104D5F1200EA6
:100320000DDB02FA0EFC22FA05F2801841F1000101
:1003300003FA0EF2801843FA05F359410EE0A5F1D5
:1003400020050EF1200E012A03FA0EFC28BF4CF006
:10035000020C43FA05F3C01851EBE37101F00045BC
:1003600007D54FF0000EDCF1000C7EEB00006EEBC9
:100370000101B1F5801F1BD3B1F5001F0CD3490853
:100380005FEA30004FEA3C0C04F101044FEA4452AA
:1003900012F5800F80F09A80BCF1004F08BF5FEA31
:1003A000500C50F1000041EB045141EA050130BD11
:1003B0005FEA4C0C404141EB0101013C28BFB1F523
:1003C000801FE9D291F0000F04BF01460020B1FA6E
:1003D00081F308BF2033A3F10B03B3F120020CDA41
:1003E0000C3208DD02F1140CC2F10C0201FA0CF01F
:1003F00021FA02F10CE002F11402D8BFC2F1200C84
:1004000001FA02F120FA0CFCDCBF41EA0C01904039
:10041000E41AA2BF01EB0451294330BD6FEA040482
:100420001F3C1CDA0C340EDC04F11404C4F120026D
:1004300020FA04F001FA02F340EA030021FA04F37F
:1004400045EA030130BDC4F10C04C4F1200220FAD6
:1004500002F001FA04F340EA0300294630BD21FA14
:1004600004F0294630BD94F0000F83F4801306BFDA
:1004700081F480110134013D4EE77FEA645C18BFCE
:100480007FEA655C29D094EA050F08BF90EA020F65
:1004900005D054EA000C04BF1946104630BD91EA5D
:1004A000030F1EBF0021002030BD5FEA545C05D160
:1004B0004000494128BF41F0004130BD14F580049F
:1004C0003CBF01F5801130BD01F0004545F0FE4113
:1004D00041F470014FF0000030BD7FEA645C1ABF48
:1004E000194610467FEA655C1CBF0B46024650EA7F
:1004F000013406BF52EA033591EA030F41F40021AB
:1005000030BD00BF90F0000F04BF0021704730B530
:100510004FF4806404F132044FF000054FF0000105
:1005200050E700BF90F0000F04BF0021704730B5C6
:100530004FF4806404F1320410F0004548BF40429B
:100540004FF000013EE700BF42004FEAE2014FEAF0
:1005500031014FEA02701FBF12F07F4393F07F4FCB
:1005600081F06051704732F07F4208BF704793F0CE
:100570007F4F04BF41F40021704730B54FF46074E1
:1005800001F0004521F000411CE700BF50EA0102E4
:1005900008BF704730B54FF000050AE050EA01028D
:1005A00008BF704730B511F0004502D5404261EBFD
:1005B00041014FF4806404F132045FEA915C3FF43E
:1005C000D8AE4FF003025FEADC0C18BF03325FEADB
:1005D000DC0C18BF033202EBDC02C2F1200300FA8C
:1005E00003FC20FA02F001FA03FE40EA0E0021FAB1
:1005F00002F11444BDE600BF70B54FF0FF0C4CF49F
:10060000E06C1CEA11541DBF1CEA135594EA0C0F50
:1006100095EA0C0F00F0DEF82C4481EA030621EA8B
:100620004C5123EA4C5350EA013518BF52EA0335C6
:1006300041F4801143F4801338D0A0FB02CE4FF078
:100640000005E1FB02E506F00042E0FB03E54FF0A8
:100650000006E1FB03569CF0000F18BF4EF0010EA0
:10066000A4F1FF04B6F5007F64F5407404D25FEA9C
:100670004E0E6D4146EB060642EAC62141EA55514F
:100680004FEAC52040EA5E504FEACE2EB4F1FD0C91
:1006900088BFBCF5E06F1ED8BEF1004F08BF5FEA0F
:1006A000500E50F1000041EB045170BD06F00046C1
:1006B00046EA010140EA020081EA0301B4EB5C046E
:1006C000C2BFD4EB0C0541EA045170BD41F4801166
:1006D0004FF0000E013C00F3AB8014F1360FDEBF8B
:1006E000002001F0004170BDC4F10004203C35DA67
:1006F0000C341BDC04F11404C4F1200500FA05F3EA
:1007000020FA04F001FA05F240EA020001F000428A
:1007100021F0004110EBD37021FA04F642EB060100
:100720005EEA430E08BF20EAD37070BDC4F10C042A
:10073000C4F1200500FA04F320FA05F001FA04F2EE
:1007400040EA020001F0004110EBD37041F10001DA
:100750005EEA430E08BF20EAD37070BDC4F12005E5
:1007600000FA05F24EEA020E20FA04F301FA05F24D
:1007700043EA020321FA04F001F0004121FA04F2F5
:1007800020EA020000EBD3705EEA430E08BF20EAC5
:10079000D37070BD94F0000F0FD101F000464000FF
:1007A00041EB010111F4801F08BF013CF7D041EA81
:1007B000060195F0000F18BF704703F00046520085
:1007C00043EB030313F4801F08BF013DF7D043EA56
:1007D0000603704794EA0C0F0CEA135518BF95EA0C
:1007E0000C0F0CD050EA410618BF52EA4306D1D193
:1007F00081EA030101F000414FF0000070BD50EAB2
:10080000410606BF1046194652EA430619D094EA3B
:100810000C0F02D150EA013613D195EA0C0F05D125
:1008200052EA03361CBF104619460AD181EA030179
:1008300001F0004141F0FE4141F470014FF0000031
:1008400070BD41F0FE4141F4780170BD70B54FF0CC
:10085000FF0C4CF4E06C1CEA11541DBF1CEA13554C
:1008600094EA0C0F95EA0C0F00F0A7F8A4EB05042E
:1008700081EA030E52EA03354FEA013100F0888025
:100880004FEA03334FF0805545EA131343EA1263EE
:100890004FEA022245EA111545EA10654FEA0026A3
:1008A0000EF000419D4208BF964244F1FD0404F55C
:1008B000407402D25B084FEA3202B61A65EB0305B8
:1008C0005B084FEA32024FF480104FF4002CB6EB75
:1008D000020E75EB030E22BFB61A754640EA0C00F5
:1008E0005B084FEA3202B6EB020E75EB030E22BF35
:1008F000B61A754640EA5C005B084FEA3202B6EB76
:10090000020E75EB030E22BFB61A754640EA9C0034
:100910005B084FEA3202B6EB020E75EB030E22BF04
:10092000B61A754640EADC0055EA060E18D04FEAC2
:10093000051545EA16754FEA06164FEAC30343EA62
:1009400052734FEAC2025FEA1C1CC0D111F4801F2F
:100950000BD141EA00014FF000004FF0004CB6E728
:1009600011F4801F04BF01430020B4F1FD0C88BFC7
:10097000BCF5E06F3FF6AFAEB5EB030C04BFB6EBD2
:10098000020C5FEA500C50F1000041EB045170BDC5
:100990000EF0004E4EEA113114EB5C04C2BFD4EBF2
:1009A0000C0541EA045170BD41F480114FF0000E76
:1009B000013C90E645EA060E8DE60CEA135594EAF2
:1009C0000C0F08BF95EA0C0F3FF43BAF94EA0C0FF5
:1009D0000AD150EA01347FF434AF95EA0C0F7FF46A
:1009E00025AF104619462CE795EA0C0F06D152EABE
:1009F00003353FF4FDAE1046194622E750EA4106A2
:100A000018BF52EA43067FF4C5AE50EA41047FF4B2
:100A10000DAF52EA43057FF4EBAE12E74FF0FF3C17
:100A200006E000BF4FF0010C02E000BF4FF0010CE8
:100A30004DF804CD4FEA410C7FEA6C5C4FEA430C61
:100A400018BF7FEA6C5C1BD001B050EA410C0CBFB0
:100A500052EA430C91EA030F02BF90EA020F002012
:100A6000704710F1000F91EA030F58BF994208BF79
:100A700090422CBFD8176FEAE37040F00100704736
:100A80004FEA410C7FEA6C5C02D150EA013C07D18D
:100A90004FEA430C7FEA6C5CD6D152EA033CD3D0D8
:100AA0005DF8040B704700BF8446104662468C46D2
:100AB0001946634600E000BF01B5FFF7B7FF002805
:100AC00048BF10F1000F01BD4DF808EDFFF7F4FF2E
:100AD0000CBF012000205DF808FB00BF4DF808EDB9
:100AE000FFF7EAFF34BF012000205DF808FB00BFDC
:100AF0004DF808EDFFF7E0FF94BF012000205DF8FE
:100B000008FB00BF4DF808EDFFF7CEFF94BF0120B2
:100B100000205DF808FB00BF4DF808EDFFF7C4FFAB
:100B200034BF012000205DF808FB00BF4FEA410CF4
:100B30007FEA6C5C02D150EA013C0AD14FEA430CD7
:100B40007FEA6C5C02D152EA033C02D14FF0000014
:100B500070474FF0010070474FEA410212F5001252
:100B600015D211D56FF47873B3EB625212D94FEAF4
:100B7000C12343F0004343EA505311F0004F23FADE
:100B800002F018BF404270474FF00000704750EA33
:100B9000013005D111F0004008BF6FF000407047F0
:100BA0004FF00000704700BF4A0011D212F500124A
:100BB00011D20DD56FF47873B3EB62520ED44FEAB5
:100BC000C12343F0004343EA505323FA02F0704735
:100BD0004FF00000704750EA013002D14FF0FF3073
:100BE00070474FF0000070474FEA4102B2F1E04316
:100BF00024BFB3F5001CDCF1FE5C0DD901F0004C04
:100C00004FEAC0024CEA5070B2F1004F40EB830053
:100C100008BF20F00100704711F0804F21D113F17F
:100C20003872BCBF01F00040704741F480114FEAB8
:100C30005252C2F11802C2F1200C10FA0CF320FA41
:100C400002F018BF40F001004FEAC1234FEAD3235E
:100C500003FA0CFC40EA0C0023FA02F34FEA4303C8
:100C6000CCE77FEA625307D150EA01331EBF4FF051
:100C7000FE4040F44000704701F0004040F0FE406C
:100C800040F40000704700BF53B94AB9002908BFBB
:100C900000281CBF4FF0FF314FF0FF3000F0A4B927
:100CA000ADF1080C6DE904CE00F03CF8DDF804E08D
:100CB000DDE9022304B0704738B500220023044662
:100CC0000D46FFF70BFF28B920462946BDE83840FE
:100CD00000F00AB8204605F1004100F005F8404256
:100CE00061EB410138BD00BFD0B50C4B0022064678
:100CF0000F46FFF781FCFFF757FF0446FFF702FCA2
:100D0000074B0022FFF778FC02460B463046394677
:100D1000FFF7BAFAFFF748FF2146D0BD0000F03DCB
:100D20000000F0412DE9F047089D04468C46002B59
:100D300040F083808A42174647D9B2FA82F242B124
:100D4000C2F1200024FA00F09140974040EA010CE3
:100D500094404FEA1748230CBCFBF8F61FFA87FEB5
:100D600008FB16C143EA014306FB0EF1994209D97B
:100D7000FB1806F1FF3080F01981994240F216818C
:100D8000023E3B445B1AA4B2B3FBF8F008FB1033FD
:100D900044EA034400FB0EFEA64509D93C1900F1C4
:100DA000FF3380F00581A64540F2028102383C44C1
:100DB00040EA0640A4EB0E0400261DB1D4400023F7
:100DC000C5E900433146BDE8F08702B9FFDEB2FA5B
:100DD00082F2002A50D1CB1B4FEA174E1FFA87F838
:100DE0000126B3FBFEFC210C0EFB1C3341EA034140
:100DF00008FB0CF38B4207D979180CF1FF3002D2B3
:100E00008B4200F2E9808446C91AA3B2B1FBFEF01E
:100E10000EFB101143EA014408FB00F8A04507D976
:100E20003C1900F1FF3302D2A04500F2D9801846E8
:100E3000A4EB080440EA0C40BFE78B4209D9002D1F
:100E400000F0B1800026C5E9000130463146BDE81A
:100E5000F087B3FA83F6002E4AD18B4202D3824246
:100E600000F2B880841A61EB030101208C46002D4A
:100E7000A8D0C5E9004CA5E7C2F1200320FA03F68B
:100E8000974001FA02F04FEA174ED9403043030C65
:100E9000B1FBFEF61FFA87F80EFB161143EA014379
:100EA00006FB08F1994204FA02F409D9FB1806F18D
:100EB000FF3C80F08D80994240F28A80023E3B44A4
:100EC0005B1A81B2B3FBFEF00EFB103341EA034123
:100ED00000FB08F38B4207D9791800F1FF3C73D26D
:100EE0008B4271D902383944CB1A40EA064678E77A
:100EF000C6F1200C03FA06F422FA0CF31C4320FA84
:100F00000CF701FA06F34FEA144E21FA0CF11F43D5
:100F10003B0CB1FBFEF91FFA84F80EFB191143EAF2
:100F2000014109FB08FA8A4502FA06F200FA06F3C3
:100F300008D9611809F1FF3048D28A4546D9A9F18C
:100F400002092144A1EB0A01BFB2B1FBFEF00EFB86
:100F5000101147EA014700FB08F8B84507D9E7191F
:100F600000F1FF312ED2B8452CD90238274440EA8F
:100F70000940A7EB0807A0FB02894F45C646494632
:100F80001AD317D05DB1B3EB0E0267EB010707FA76
:100F90000CFCF2404CEA0202F740C5E900270026AB
:100FA0003146BDE8F0872E4628460BE70646E9E6BF
:100FB0001846FDE64345E5D2B8EB020E69EB0401A5
:100FC0000138DFE70846D2E760468DE78146B9E79A
:100FD000664675E730464AE7ACF1020C394413E740
:100FE00002383C4424E700BF704700BF80B588B09A
:100FF00000AF07F10C0300221A605A609A60DA60B1
:101000001A61254BDB6C244A43F00403D364224B62
:10101000DB6C03F00403BB60BB681F4BDB6C1E4A38
:1010200043F00103D3641C4BDB6C03F001037B60D2
:101030007B68194BDB6C184A43F00203D364164BF0
:10104000DB6C03F002033B603B68002220214FF081
:10105000904001F09BF94FF40053FB6000233B618B
:1010600001237B6107F10C0319460C4800F0CCFF0B
:101070002023FB6001233B6100237B610323BB61D1
:1010800007F10C0319464FF0904000F0BDFF00BF80
:101090002037BD4680BD00BF001002400008004858
:1010A00080B582B000AF786039603968786805F043
:1010B0006DF8034618460837BD4680BD80B58EB032
:1010C00000AF00F071FD00F063F8FFF78FFF00F054
:1010D0008DFC00F05BFC294803F0C0FD284803F0BC
:1010E000CDFE264B5B7F012B0AD1264804F012F877
:1010F00003461946224803F007FF204803F0DEFDAF
:101100004FF40051204801F029F90346002B0CBF91
:1011100001230023DBB2002BE3D0C82000F0C0FD88
:101120003B1D0221184600F0CFF81849144803F07F
:10113000EBFE3B1D1946124803F0D0FE3B1D023367
:1011400019460F4803F0CAFE3B1D053319460C48EB
:1011500003F0C4FE3B1D0A331946094803F0BEFEE6
:101160003B1D0D331946064803F0B8FE3B1D2E33D8
:101170001946034803F0B2FEB3E700BF3002002077
:10118000540200203402002000080048789A000829
:1011900080B5B8B000AF07F19C0344220021184687
:1011A00004F046F807F1880300221A605A609A603A
:1011B000DA601A613B4688220021184604F038F8AC
:1011C0000223C7F89C304FF48073C7F8A83010236F
:1011D000C7F8AC300023C7F8C43007F19C031846A9
:1011E00001F050F90346002B14BF01230023DBB2AA
:1011F000002B01D000F02AFA0F23C7F88830012312
:10120000C7F88C300023C7F890300023C7F894301B
:101210000023C7F8983007F188030021184601F031
:1012200017FD0346002B14BF01230023DBB2002B64
:1012300001D000F00BFA03233B600023BB630023C3
:10124000FB633B46184601F009FF0346002B14BF21
:1012500001230023DBB2002B01D000F0F7F94FF49B
:10126000007001F0B9F80346002B14BF01230023DE
:10127000DBB2002B01D000F0E9F900BFE037BD463A
:1012800080BD000080B582B000AF78607B681B68CD
:10129000094A934203D1094803F0F0FC07E07B6858
:1012A0001B68074A934202D1064803F0F7FD00BFCE
:1012B0000837BD4680BD00BF003801403002002025
:1012C00000440040540200202DE9F0419CB000AFE2
:1012D000786039606B469846A44B184631231A460D
:1012E000002103F0A5FF3B68002B06D1A04B002294
:1012F0001A60A04B00221A6009E03B68012B06D05F
:101300003B68022B03D19B4B1B68994A1360002357
:10131000FB6007F1100342220021184603F088FF0A
:10132000934B1B6807F10C00934A944904F006FFA5
:1013300007F10C014FF4FA63914A924803F0D2FC92
:10134000914803F0E7FE03469049184604F01EFF5B
:1013500003461846FEF78CFF03465C1E7C66234658
:10136000013318464FF000014FF000024FF0000328
:10137000CB0043EA5073C2002346013318464FF0B6
:1013800000014FF000024FF00003CB0043EA50731E
:10139000C200234601330733DB08DB00ADEB030D4E
:1013A0006B4600333B663B6E00221A705A1C631E6C
:1013B000002B04DB002111700132013BF8E73C6E89
:1013C000714803F0A7FE03467049184604F0DEFE9C
:1013D00003461946204604F0D1FE3B6E6C49184680
:1013E000FFF75EFE03461846FEF742FF03465C1E0B
:1013F000FC652346013318464FF000014FF0000210
:101400004FF00003CB0043EA5073C2002346013380
:1014100018464FF000014FF000024FF00003CB00E0
:1014200043EA5073C200234601330733DB08DB0075
:10143000ADEB030D6B460033BB65BB6D00221A702C
:101440005A1C631E002B04DB002111700132013B8A
:10145000F8E7BC6D3B6E4E491846FFF721FE034688
:101460001946204604F08AFE0023BB66BB6E01339A
:10147000BB66404B1B6801333E4A1360BA6DBB6EBE
:1014800013441B783A2B00D0F0E700BFBB6D1A78ED
:10149000364B1A70BB6D5A78344B9A70BB6D9A7884
:1014A000324BDA70BB6DDA78304B5A71BB6D1A79FA
:1014B0002E4B9A71BB6D5A792C4BDA71BB6D9A79B0
:1014C0002A4B1A72BB6DDA79284B9A72BB6D1A7A65
:1014D000264BDA72254B9B78244AD278114618465F
:1014E00000F058F803467B650023FB667B6D5B00CC
:1014F000FA6E9A420DDAFB6E0933BA6DD15C1B4A63
:10150000FB6E13440D330A461A70FB6E0133FB6603
:10151000ECE77B6D5B000933BA6DD25C134B83F84B
:101520002E207B6D05335B00BA6DD25C0F4B83F8C8
:101530002F207B680D4A14469C4604F1300E654608
:1015400026460FCE28606960AA60EB6010340CF16B
:10155000100C7445F3D16346224612781A70C546C2
:1015600078687037BD46BDE8F08100BF00000020FC
:10157000780200207C020020809A0008989A0008D7
:10158000B09A00083002002034020020B49A00080B
:10159000BC9A000880B485B000AF03460A46FB71D0
:1015A0001346BB710023FB73FB792F2B05D9FB7905
:1015B000392B02D8FB79303BFB73FB79602B05D9C3
:1015C000FB79662B02D8FB79573BFB73FB79402BE9
:1015D00005D9FB79462B02D8FB79373BFB73FB7BA4
:1015E0001B01FB73BB792F2B0BD9BB79392B08D887
:1015F000BB79303BDBB25AB297F90F3013435BB281
:10160000FB73BB79602B0BD9BB79662B08D8BB79F0
:10161000573BDBB25AB297F90F3013435BB2FB73FF
:10162000BB79402B0BD9BB79462B08D8BB79373B0C
:10163000DBB25AB297F90F3013435BB2FB73FB7BFB
:1016400018461437BD465DF8047B704780B400AF80
:1016500072B600BFFEE7000080B582B000AF7860D0
:1016600039607B68012B0CD13B684FF6FF729342C7
:1016700007D10D490D4803F0AFFA0D490D4803F0AD
:10168000BBFB7B68002B0AD13B684FF6FF7293428D
:1016900005D1084803F0CEFB044803F0BBFA00BFB5
:1016A0000837BD4680BD00BF9002002030020020F8
:1016B000140300205402002080B500AF4FF6FF71E4
:1016C0000120FFF7C9FF80BD80B500AF4FF6FF7165
:1016D0000020FFF7C1FF80BD80B483B000AF0F4B87
:1016E0001B6E0E4A43F0010313660C4B1B6E03F096
:1016F00001037B607B68094B9B6D084A43F0805374
:101700009365064B9B6D03F080533B603B6800BFC5
:101710000C37BD465DF8047B704700BF00100240E7
:1017200080B400AFFEE780B400AFFEE780B400AF46
:10173000FEE780B400AFFEE780B400AFFEE780B400
:1017400000AF00BFBD465DF8047B704780B400AFBA
:1017500000BFBD465DF8047B704780B400AF00BF9A
:10176000BD465DF8047B704780B500AF00F078FAA5
:1017700000BF80BD80B500AF024802F051FA00BF43
:1017800080BD00BF9002002080B500AF024802F08B
:1017900047FA00BF80BD00BF1403002080B400AF33
:1017A00001231846BD465DF8047B704780B582B0C2
:1017B00000AF7860396003F0D9FC034616221A6046
:1017C0004FF0FF3318460837BD4680BD80B582B064
:1017D00000AF78604FF0FF317868FFF7E7FFFEE772
:1017E00080B586B000AFF860B9607A6000237B6195
:1017F0000AE0AFF300800146BB685A1CBA60CAB267
:101800001A707B6901337B617A697B689A42F0DBED
:101810007B6818461837BD4680BD80B586B000AFDE
:10182000F860B9607A6000237B6109E0BB685A1CEC
:10183000BA601B781846AFF300807B6901337B6187
:101840007A697B689A42F1DB7B6818461837BD4697
:1018500080BD80B483B000AF78604FF0FF3318468E
:101860000C37BD465DF8047B704780B483B000AF91
:10187000786039603B684FF400525A600023184684
:101880000C37BD465DF8047B704780B483B000AF71
:101890007860012318460C37BD465DF8047B70471D
:1018A00080B485B000AFF860B9607A600023184654
:1018B0001437BD465DF8047B7047000080B586B0E4
:1018C00000AF7860144A154BD31A7B617B693B618A
:1018D000134B1B68002B02D1114B124A1A60104B9C
:1018E0001A687B6813443A699A4207D203F03EFCB7
:1018F00003460C221A604FF0FF3309E0084B1B68C7
:10190000FB60074B1A687B681344054A1360FB6849
:1019100018461837BD4680BD008001200004000035
:1019200080020020B003002080B400AF154BD3F834
:101930008830144A43F47003C2F88830124B1B6895
:10194000114A43F0010313600F4B00229A600E4BC3
:101950001B680D4A23F0A85323F4102313600A4B8D
:101960004FF48052DA60084B1B68074A23F4802347
:101970001360054B00229A6100BFBD465DF8047BF1
:10198000704700BF00ED00E00010024080B500AFDE
:10199000144B154A1A60134B4FF4E1325A60114B45
:1019A00000229A600F4B0022DA600E4B00221A616F
:1019B0000C4B0C225A610B4B00229A61094B0022FE
:1019C000DA61084B00221A62064B00225A6205486F
:1019D00002F000F80346002B01D0FFF737FE00BFEE
:1019E00080BD00BF900200200038014080B500AFEC
:1019F000144B154A1A60134B4FF4E1325A60114BE5
:101A000000229A600F4B0022DA600E4B00221A610E
:101A10000C4B0C225A610B4B00229A61094B00229D
:101A2000DA61084B00221A62064B00225A6205480E
:101A300001F0D0FF0346002B01D0FFF707FE00BFE7
:101A400080BD00BF140300200044004080B58CB06E
:101A500000AF786007F11C0300221A605A609A6098
:101A6000DA601A617B681B68364A934230D1364B84
:101A70001B6E354A43F480431366334B1B6E03F4ED
:101A80008043BB61BB69304BDB6C2F4A43F00203E0
:101A9000D3642D4BDB6C03F002037B617B69C023B5
:101AA000FB6102233B6200237B620323BB620723AB
:101AB000FB6207F11C031946244800F0A5FA002236
:101AC0000021252000F0EBF9252000F004FA35E094
:101AD0007B681B681E4A934230D11B4B9B6D1A4A90
:101AE00043F400339365184B9B6D03F400333B6163
:101AF0003B69154BDB6C144A43F00103D364124B72
:101B0000DB6C03F00103FB60FB680C23FB61022329
:101B10003B6200237B620323BB620723FB6207F166
:101B20001C0319464FF0904000F06EFA002200218D
:101B3000262000F0B4F9262000F0CDF900BF3037A0
:101B4000BD4680BD0038014000100240000400483E
:101B500000440040DFF834D0FFF7E6FE002103E048
:101B60000B4B5B58435004310A480B4B42189A42C6
:101B7000F6D30A4A02E0002342F8043B084B9A429B
:101B8000F9D303F0F9FAFFF799FAFEE70080012094
:101B90004CA00008000000201402002014020020C5
:101BA000AC030020FEE7000080B582B000AF002348
:101BB000FB710C4B1B680B4A43F4807313600320CA
:101BC00000F062F9002000F00FF80346002B02D06D
:101BD0000123FB7101E0FFF77FFDFB791846083711
:101BE000BD4680BD0020024080B584B000AF786063
:101BF0000023FB73174B1B78002B23D0164B1A685E
:101C0000144B1B7819464FF47A73B3FBF1F3B2FB14
:101C1000F3F3184600F06DF90346002B0FD17B68F3
:101C20000F2B09D8002279684FF0FF3000F037F908
:101C30000A4A7B68136007E00123FB7304E0012379
:101C4000FB7301E00123FB73FB7B18461037BD4695
:101C500080BD00BF3C000020340000203800002080
:101C600080B400AF064B1B781A46064B1B68134422
:101C7000044A136000BFBD465DF8047B704700BF97
:101C80003C0000209803002080B400AF034B1B6889
:101C90001846BD465DF8047B704700BF98030020DE
:101CA00080B584B000AF7860FFF7EEFFB8607B6866
:101CB000FB60FB68B3F1FF3F05D00A4B1B781A4667
:101CC000FB681344FB6000BFFFF7DEFF0246BB6802
:101CD000D31AFA689A42F7D800BF00BF1037BD4642
:101CE00080BD00BF3C00002080B485B000AF7860AC
:101CF0007B6803F00703FB600C4BDB68BB60BA68D2
:101D00004FF6FF031340BB60FB681A02BB68134326
:101D100043F0BF6343F40033BB60044ABB68D36045
:101D200000BF1437BD465DF8047B704700ED00E04E
:101D300080B400AF044BDB681B0A03F007031846AE
:101D4000BD465DF8047B704700ED00E080B483B0D1
:101D500000AF0346FB7197F90730002B0BDBFB79D3
:101D600003F01F02074997F907305B09012000FAC9
:101D700002F241F8232000BF0C37BD465DF8047B1A
:101D8000704700BF00E100E080B483B000AF0346BD
:101D90003960FB7197F90730002B0ADB3B68DAB238
:101DA0000C4997F907301201D2B20B4483F8002393
:101DB0000AE03B68DAB20849FB7903F00F03043B01
:101DC0001201D2B20B441A7600BF0C37BD465DF843
:101DD000047B704700E100E000ED00E080B489B0D2
:101DE00000AFF860B9607A60FB6803F00703FB613D
:101DF000FB69C3F10703042B28BF0423BB61FB6904
:101E00000433062B02D9FB69033B00E000237B610E
:101E10004FF0FF32BB6902FA03F3DA43BB681A40A2
:101E20007B699A404FF0FF317B6901FA03F3D94394
:101E30007B680B40134318462437BD465DF8047B8E
:101E40007047000080B582B000AF78607B68013BCE
:101E5000B3F1807F01D301230FE00A4A7B68013B85
:101E600053600F214FF0FF30FFF78EFF054B00222C
:101E70009A60044B07221A60002318460837BD46B3
:101E800080BD00BF10E000E080B582B000AF786098
:101E90007868FFF729FF00BF0837BD4680BD80B5D1
:101EA00086B000AF0346B9607A60FB7300237B61A4
:101EB000FFF73EFF78617A68B9687869FFF78EFFAF
:101EC000024697F90F3011461846FFF75DFF00BF35
:101ED0001837BD4680BD80B582B000AF0346FB71A8
:101EE00097F907301846FFF731FF00BF0837BD46A6
:101EF00080BD80B582B000AF78607868FFF7A2FF40
:101F0000034618460837BD4680BD80B485B000AF93
:101F100078600023FB737B6893F82530DBB2022BDB
:101F200008D07B680422DA637B68002283F82420CF
:101F3000012322E07B681B681A687B681B6822F01B
:101F40000E021A607B681B681A687B681B6822F0A7
:101F500001021A607B685B6C03F01C027B681B6CDF
:101F6000012101FA02F25A607B68012283F82520E0
:101F70007B68002283F82420FB7B18461437BD467B
:101F80005DF8047B704780B584B000AF78600023B3
:101F9000FB737B6893F82530DBB2022B05D07B689E
:101FA0000422DA630123FB7329E07B681B681A684B
:101FB0007B681B6822F00E021A607B681B681A6837
:101FC0007B681B6822F001021A607B685B6C03F07F
:101FD0001C027B681B6C012101FA02F25A607B68CB
:101FE000012283F825207B68002283F824207B6867
:101FF0009B6B002B03D07B689B6B78689847FB7BBF
:1020000018461037BD4680BD80B487B000AF7860F9
:10201000396000237B617FE13B681A6801217B699D
:1020200001FA03F31340FB60FB68002B00F07181A1
:102030003B685B68012B0BD03B685B68022B07D0C9
:102040003B685B68112B03D03B685B68122B30D177
:102050007B689B683B617B695B00032202FA03F3A8
:10206000DB433A6913403B613B68DA687B695B009C
:1020700002FA03F33A6913433B617B683A699A6059
:102080007B685B683B6101227B6902FA03F3DB43F7
:102090003A6913403B613B685B681B0903F001022E
:1020A0007B6902FA03F33A6913433B617B683A693F
:1020B0005A603B685B6803F00303032B18D17B680D
:1020C000DB6A3B6101227B6902FA03F3DB433A6975
:1020D00013403B613B685B68DB0803F001027B69EE
:1020E00002FA03F33A6913433B617B683A69DA62A7
:1020F0007B68DB683B617B695B00032202FA03F3C8
:10210000DB433A6913403B613B689A687B695B003B
:1021100002FA03F33A6913433B617B683A69DA6078
:102120003B685B68022B03D03B685B68122B23D1B2
:102130007B69DA087B68083253F822303B617B699F
:1021400003F007039B000F2202FA03F3DB433A6913
:1021500013403B613B681A697B6903F007039B00EE
:1021600002FA03F33A6913433B617B69DA087B683F
:102170000832396943F822107B681B683B617B6930
:102180005B00032202FA03F3DB433A6913403B612D
:102190003B685B6803F003027B695B0002FA03F3B0
:1021A0003A6913433B617B683A691A603B685B6834
:1021B00003F08053002B00F0AC805F4B1B6E5E4A37
:1021C00043F0010313665C4B1B6E03F00103BB601D
:1021D000BB685A4A7B699B08023352F823303B6143
:1021E0007B6903F003039B000F2202FA03F3DB4336
:1021F0003A6913403B617B68B3F1904F25D07B680F
:102200004F4A93421FD07B684E4A934219D07B6855
:102210004D4A934213D07B684C4A93420DD07B6861
:102220004B4A934207D07B684A4A934201D1062326
:102230000CE007230AE0052308E0042306E003235B
:1022400004E0022302E0012300E000237A6902F0A7
:102250000302920093403A6913433B6137497B691B
:102260009B0802333A6941F823203B4B1B683B61D2
:10227000FB68DB433A6913403B613B685B6803F4EE
:102280008033002B03D03A69FB6813433B61324A29
:102290003B691360304B5B683B61FB68DB433A6929
:1022A00013403B613B685B6803F40033002B03D0B1
:1022B0003A69FB6813433B61274A3B695360264BED
:1022C0009B683B61FB68DB433A6913403B613B68B9
:1022D0005B6803F48013002B03D03A69FB68134357
:1022E0003B611D4A3B6993601B4BDB683B61FB68AC
:1022F000DB433A6913403B613B685B6803F40013BE
:10230000002B03D03A69FB6813433B61124A3B69D7
:10231000D3607B6901337B613B681A687B6922FA71
:1023200003F3002B7FF478AE00BF00BF1C37BD461F
:102330005DF8047B704700BF0010024000000140C0
:102340000004004800080048000C00480010004845
:1023500000140048001800480004014080B485B013
:1023600000AF78600B467B807B681A697B881340DE
:10237000002B02D00123FB7301E00023FB73FB7BE6
:1023800018461437BD465DF8047B704780B483B0AF
:1023900000AF78600B467B8013467B707B78002B08
:1023A00003D07A887B689A6102E07A887B689A62B7
:1023B00000BF0C37BD465DF8047B704780B400AFAA
:1023C000044B1B6803F4C0631846BD465DF8047BEC
:1023D000704700BF0070004080B485B000AF7860E7
:1023E0007B68B3F5007F30D1234B1B6803F4C063D7
:1023F000B3F5007F38D0204B1B6823F4C0631E4A1E
:1024000043F4007313601D4B1B68322202FB03F37D
:102410001B4AA2FB03239B0C0133FB6002E0FB6819
:10242000013BFB60144B5B6903F48063B3F5806F81
:1024300002D1FB68002BF2D10F4B5B6903F4806380
:10244000B3F5806F10D103230FE00B4B1B6803F42F
:10245000C063B3F5806F07D0074B1B6823F4C063DC
:10246000054A43F480631360002318461437BD46C1
:102470005DF8047B704700BF00700040340000200E
:1024800083DE1B4380B588B000AF78607B68002B8B
:1024900001D10123D4E3A14B9B6803F00C03BB6182
:1024A0009E4BDB6803F003037B617B681B6803F0D2
:1024B0001003002B00F0E480BB69002B07D0BB6940
:1024C0000C2B40F08B807B69012B40F08780934B75
:1024D0001B6803F00203002B05D07B689B69002B6F
:1024E00001D10123ACE37B681A6A8C4B1B6803F0B3
:1024F0000803002B04D0894B1B6803F0F00305E0B0
:10250000864BD3F894301B0903F0F003934223D297
:102510007B681B6A184600F041FD0346002B01D082
:1025200001238DE37D4B1B687C4A43F00803136055
:102530007A4B1B6823F0F0027B681B6A77491343D0
:102540000B60764B5B6823F47F427B68DB691B0280
:10255000724913434B6025E0704B1B686F4A43F090
:10256000080313606D4B1B6823F0F0027B681B6A45
:102570006A4913430B60694B5B6823F47F427B68B5
:10258000DB691B02654913434B60BB69002B09D112
:102590007B681B6A184600F001FD0346002B01D042
:1025A00001234DE300F036FC02465C4B9B681B099F
:1025B00003F00F035A49CB5C03F01F0322FA03F325
:1025C000584A1360584B1B681846FFF70DFB03462B
:1025D000FB73FB7B002B52D0FB7B31E37B689B6959
:1025E000002B32D04D4B1B684C4A43F00103136063
:1025F000FFF74AFB386108E0FFF746FB02463B69FC
:10260000D31A022B01D903231AE3444B1B6803F0AE
:102610000203002BF0D0414B1B68404A43F00803F3
:1026200013603E4B1B6823F0F0027B681B6A3B493A
:1026300013430B60394B5B6823F47F427B68DB6993
:102640001B02364913434B601AE0344B1B68334A74
:1026500023F001031360FFF717FB386108E0FFF771
:1026600013FB02463B69D31A022B01D90323E7E28D
:102670002A4B1B6803F00203002BF0D100E000BFDF
:102680007B681B6803F00103002B74D0BB69082B27
:1026900005D0BB690C2B0ED17B69032B0BD11F4BD3
:1026A0001B6803F40033002B64D07B685B68002B4D
:1026B00060D10123C4E27B685B68B3F5803F06D13B
:1026C000164B1B68154A43F4803313601DE07B688A
:1026D0005B68B3F5A02F0CD1104B1B680F4A43F475
:1026E000802313600D4B1B680C4A43F48033136046
:1026F0000BE00A4B1B68094A23F480331360074B35
:102700001B68064A23F4802313607B685B68002BF8
:102710001CD0FFF7B9FA386111E000BF0010024089
:10272000009B00083400002038000020FFF7ACFABE
:1027300002463B69D31A642B01D9032380E2AF4BD5
:102740001B6803F40033002BF0D014E0FFF79CFA71
:10275000386108E0FFF798FA02463B69D31A642B08
:1027600001D903236CE2A54B1B6803F40033002B53
:10277000F0D100E000BF7B681B6803F00203002B70
:1027800060D0BB69042B05D0BB690C2B19D17B69C8
:10279000022B16D1994B1B6803F48063002B05D0E4
:1027A0007B68DB68002B01D1012349E2934B5B6816
:1027B00023F0F8527B681B691B06904913434B605A
:1027C00040E07B68DB68002B23D08C4B1B688B4A76
:1027D00043F480731360FFF757FA386108E0FFF79E
:1027E00053FA02463B69D31A022B01D9032327E28D
:1027F000824B1B6803F48063002BF0D07F4B5B6837
:1028000023F0F8527B681B691B067C4913434B601D
:1028100018E07A4B1B68794A23F480731360FFF742
:1028200033FA386108E0FFF72FFA02463B69D31A02
:10283000022B01D9032303E2704B1B6803F480636E
:10284000002BF0D17B681B6803F00803002B3CD001
:102850007B685B69002B1CD0684BD3F89430674AC7
:1028600043F00103C2F89430FFF70EFA386108E034
:10287000FFF70AFA02463B69D31A022B01D9032358
:10288000DEE15E4BD3F8943003F00203002BEFD06F
:102890001BE05A4BD3F89430584A23F00103C2F896
:1028A0009430FFF7F1F9386108E0FFF7EDF90246DF
:1028B0003B69D31A022B01D90323C1E14F4BD3F853
:1028C000943003F00203002BEFD17B681B6803F008
:1028D0000403002B00F0A6800023FB77474B9B6D81
:1028E00003F08053002B0DD1444B9B6D434A43F0C2
:1028F00080539365414B9B6D03F08053BB60BB6875
:102900000123FB773E4B1B6803F48073002B18D127
:102910003B4B1B683A4A43F480731360FFF7B4F9EA
:10292000386108E0FFF7B0F902463B69D31A022B81
:1029300001D9032384E1324B1B6803F48073002B1D
:10294000F0D07B689B68012B08D12C4BD3F89030DA
:102950002A4A43F00103C2F8903024E07B689B6868
:10296000052B10D1254BD3F89030244A43F00403B3
:10297000C2F89030214BD3F89030204A43F0010345
:10298000C2F890300FE01D4BD3F890301B4A23F073
:102990000103C2F89030194BD3F89030174A23F056
:1029A0000403C2F890307B689B68002B16D0FFF7B9
:1029B0006BF938610AE0FFF767F902463B69D31A01
:1029C00041F28832934201D9032339E10B4BD3F80A
:1029D000903003F00203002BEDD01AE0FFF754F91A
:1029E00038610FE0FFF750F902463B69D31A41F214
:1029F0008832934206D9032322E100BF001002402F
:102A000000700040904BD3F8903003F00203002B8D
:102A1000E8D1FB7F012B05D18B4B9B6D8A4A23F0BC
:102A2000805393657B689B6A002B00F008817B686C
:102A30009B6A022B40F0D080834BDB687B617B6913
:102A400003F003027B68DB6A9A4230D17B6903F0B2
:102A500070027B681B6B013B1B019A4227D17B698B
:102A600003F4FE427B685B6B1B029A421FD17B69B9
:102A700003F400337A68926B072A14BF0122002204
:102A8000D2B2934213D17B6903F4C0027B68DB6B43
:102A90005B08013B5B059A4209D17B6903F0C06288
:102AA0007B681B6C5B08013B5B069A426ED0BB697E
:102AB0000C2B69D0644B1B6803F08063002B05D19D
:102AC000614B1B6803F08053002B01D00123B7E05A
:102AD0005D4B1B685C4A23F080731360FFF7D4F8EA
:102AE000386108E0FFF7D0F802463B69D31A022BA1
:102AF00001D90323A4E0544B1B6803F00073002B9F
:102B0000F0D1514BDA68514B13407A68D16A7A6838
:102B1000126B013A120111437A68526B120211438F
:102B20007A68D26B5208013A520511437A68126CE6
:102B30005208013A520611437A68926B1209520404
:102B40000A4341491343CB603F4B1B683E4A43F065
:102B5000807313603C4BDB683B4A43F08073D36067
:102B6000FFF792F8386108E0FFF78EF802463B69FC
:102B7000D31A022B01D9032362E0334B1B6803F005
:102B80000073002BF0D05AE0012359E02E4B1B6854
:102B900003F00073002B52D12B4B1B682A4A43F0E1
:102BA00080731360284BDB68274A43F08073D3603F
:102BB000FFF76AF8386108E0FFF766F802463B69FC
:102BC000D31A022B01D903233AE01F4B1B6803F0F1
:102BD0000073002BF0D032E0BB690C2B2DD01A4BC8
:102BE0001B68194A23F080731360174B1B6803F0AE
:102BF0002053002B05D1144BDB68134A23F0030349
:102C0000D360114BDB68104A23F0887323F48033C0
:102C1000D360FFF739F8386108E0FFF735F802466E
:102C20003B69D31A022B01D9032309E0064B1B6829
:102C300003F00073002BF0D101E0012300E000233A
:102C400018462037BD4680BD001002408C809DF99B
:102C500080B584B000AF786039607B68002B01D10B
:102C60000123C8E0664B1B6803F007033A689A42E9
:102C700010D9634B1B6823F0070261493B6813437B
:102C80000B605F4B1B6803F007033A689A4201D060
:102C90000123B0E07B681B6803F00103002B4CD0DC
:102CA0007B685B68032B07D1564B1B6803F00073EE
:102CB000002B21D101239EE07B685B68022B07D1AA
:102CC000504B1B6803F40033002B15D1012392E015
:102CD0007B685B68002B07D14A4B1B6803F002033B
:102CE000002B09D1012386E0464B1B6803F4806367
:102CF000002B01D101237EE0424B9B6823F00302AD
:102D00007B685B683F4913438B60FEF7BDFFF8604B
:102D10000AE0FEF7B9FF0246FB68D31A41F2883297
:102D2000934201D9032366E0364B9B6803F00C0203
:102D30007B685B689B009A42EBD17B681B6803F061
:102D40000203002B08D02F4B9B6823F0F0027B6816
:102D50009B682C4913438B60294B1B6803F00703C6
:102D60003A689A4210D2264B1B6823F00702244986
:102D70003B6813430B60224B1B6803F007033A6860
:102D80009A4201D0012336E07B681B6803F00403FC
:102D9000002B08D01B4B9B6823F4E0627B68DB6848
:102DA000184913438B607B681B6803F00803002BF2
:102DB00009D0144B9B6823F460527B681B69DB00CD
:102DC000104913438B6000F025F802460D4B9B68B9
:102DD0001B0903F00F030C49CB5C03F01F0322FA1D
:102DE00003F30A4A13600A4B1B681846FEF7FCFE01
:102DF0000346FB72FB7A18461037BD4680BD00BF04
:102E00000020024000100240009B00083400002017
:102E10003800002080B489B000AF0023FB6100239C
:102E2000BB613E4B9B6803F00C033B613B4BDB6893
:102E300003F00303FB603B69002B05D03B690C2BBF
:102E400021D1FB68012B1ED1344B1B6803F0080312
:102E5000002B07D1314BD3F894301B0A03F00F033A
:102E6000FB6105E02D4B1B681B0903F00F03FB61A1
:102E70002B4AFB6952F82330FB613B69002B0DD1D3
:102E8000FB69BB610AE03B69042B02D1254BBB61A6
:102E900004E03B69082B01D1234BBB613B690C2B40
:102EA00034D11E4BDB6803F00303BB60BB68022B0D
:102EB00003D0BB68032B03D005E01A4B7B6105E010
:102EC000194B7B6102E0FB697B6100BF134BDB6840
:102ED0001B0903F0070301337B60104BDB681B0AFF
:102EE00003F07F037A6902FB03F27B68B2FBF3F322
:102EF0007B610A4BDB685B0E03F0030301335B006D
:102F00003B607A693B68B2FBF3F3BB61BB6918466F
:102F10002437BD465DF8047B704700BF00100240B7
:102F2000189B00080024F40000127A0080B400AF5F
:102F3000034B1B681846BD465DF8047B704700BF15
:102F40003400002080B500AFFFF7F0FF0246064BCB
:102F50009B681B0A03F007030449CB5C03F01F03C3
:102F600022FA03F3184680BD00100240109B0008AF
:102F700080B500AFFFF7DAFF0246064B9B68DB0A1D
:102F800003F007030449CB5C03F01F0322FA03F3A9
:102F9000184680BD00100240109B000880B586B026
:102FA00000AF786000233B612A4B9B6D03F0805398
:102FB000002B03D0FFF702FA786114E0254B9B6DDC
:102FC000244A43F080539365224B9B6D03F080535A
:102FD000FB60FB68FFF7F2F978611E4B9B6D1D4AA1
:102FE00023F0805393657B69B3F5007F0BD17B6839
:102FF000802B19D97B68A02B02D902233B6113E0F7
:1030000001233B6110E07B68802B02D903233B61E5
:103010000AE07B68802B02D102233B6104E07B68DD
:10302000702B01D101233B610B4B1B6823F007027E
:1030300009493B6913430B60074B1B6803F0070307
:103040003A699A4201D0012300E00023184618375C
:10305000BD4680BD001002400020024080B586B011
:1030600000AF78600023FB740023BB747B681B688F
:1030700003F40063002B41D07B685B6EB3F5400F17
:103080002AD0B3F5400F24D8B3F5000F08D0B3F51C
:10309000000F1ED8002B0AD0B3F5800F10D018E017
:1030A000864BDB68854A43F48033D36015E07B6848
:1030B00004330021184600F0BBFA0346FB740CE011
:1030C0007B6820330021184600F0A6FB0346FB7402
:1030D00003E00123FB7400E000BFFB7C002B0BD15D
:1030E000764BD3F8883023F440027B685B6E7349DB
:1030F0001343C1F8883001E0FB7CBB747B681B681C
:1031000003F48053002B41D07B689B6EB3F1407F6A
:103110002AD0B3F1407F24D8B3F1007F08D0B3F1B7
:10312000007F1ED8002B0AD0B3F1807F10D018E0AA
:10313000624BDB68614A43F48033D36015E07B68FF
:1031400004330021184600F073FA0346FB740CE0C8
:103150007B6820330021184600F05EFB0346FB74B9
:1031600003E00123FB7400E000BFFB7C002B0BD1CC
:10317000524BD3F8883023F040727B689B6E4F49E6
:103180001343C1F8883001E0FB7CBB747B681B688B
:1031900003F40033002B00F0A08000237B74474B26
:1031A0009B6D03F08053002B01D1012300E000232D
:1031B000002B0DD0414B9B6D404A43F080539365EB
:1031C0003E4B9B6D03F08053BB60BB6801237B7457
:1031D0003B4B1B683A4A43F480731360FEF754FD7F
:1031E000F86009E0FEF750FD0246FB68D31A022B97
:1031F00002D90323FB7405E0314B1B6803F4807391
:10320000002BEFD0FB7C002B5CD12C4BD3F8903003
:1032100003F440737B617B69002B1FD07B68D3F87C
:1032200084307A699A4219D0244BD3F8903023F431
:1032300040737B61214BD3F89030204A43F48033B4
:10324000C2F890301D4BD3F890301C4A23F48033E1
:10325000C2F89030194A7B69C2F890307B6903F05C
:103260000103002B16D0FEF70FFDF8600BE0FEF710
:103270000BFD0246FB68D31A41F28832934202D911
:103280000323FB7406E00D4BD3F8903003F00203E8
:10329000002BECD0FB7C002B0CD1084BD3F89030EA
:1032A00023F440727B68D3F8843004491343C1F897
:1032B000903009E0FB7CBB7406E000BF00100240C8
:1032C00000700040FB7CBB747B7C012B05D19E4BC6
:1032D0009B6D9D4A23F0805393657B681B6803F0C8
:1032E0000103002B0AD0984BD3F8883023F0030257
:1032F0007B689B6B94491343C1F888307B681B68DB
:1033000003F00203002B0AD08F4BD3F8883023F050
:103310000C027B68DB6B8C491343C1F888307B68F7
:103320001B6803F00403002B0AD0874BD3F88830C6
:1033300023F030027B681B6C83491343C1F888304B
:103340007B681B6803F00803002B0AD07E4BD3F880
:10335000883023F0C0027B685B6C7B491343C1F863
:1033600088307B681B6803F01003002B0AD0764B73
:10337000D3F8883023F440727B689B6C7249134306
:10338000C1F888307B681B6803F02003002B0AD04B
:103390006D4BD3F8883023F440627B68DB6C6A495C
:1033A0001343C1F888307B681B6803F40073002B5B
:1033B0000AD0654BD3F8883023F440227B68DB6D5C
:1033C00061491343C1F888307B681B6803F480634C
:1033D000002B0AD05C4BD3F8883023F440127B6872
:1033E0001B6E59491343C1F888307B681B6803F092
:1033F0004003002B0AD0544BD3F8883023F44052BA
:103400007B681B6D50491343C1F888307B681B688B
:1034100003F08003002B0AD04B4BD3F8883023F401
:1034200040427B685B6D48491343C1F888307B6834
:103430001B6803F48073002B0AD0434BD3F8883009
:1034400023F440327B689B6D3F491343C1F88830B9
:103450007B681B6803F40053002B28D03A4BD3F849
:10346000883023F040627B68DB6E37491343C1F834
:1034700088307B68DB6EB3F1006F06D1324BDB68BE
:10348000314A43F48013D36011E07B68DB6EB3F103
:10349000806F0CD17B6804330121184600F0C8F816
:1034A0000346FB74FB7C002B01D0FB7CBB747B6868
:1034B0001B6803F40023002B28D0234BD3F888305B
:1034C00023F040627B681B6F1F491343C1F88830AB
:1034D0007B681B6FB3F1006F06D11B4BDB681A4A88
:1034E00043F48013D36011E07B681B6FB3F1806FEE
:1034F0000CD17B6804330121184600F099F803468B
:10350000FB74FB7C002B01D0FB7CBB747B681B68CD
:1035100003F48023002B2BD00B4BD3F8883023F0FF
:1035200040627B685B6F08491343C1F888307B6851
:103530005B6FB3F1006F09D1034BDB68024A43F4C0
:103540008013D36014E000BF001002407B685B6F03
:10355000B3F1806F0CD17B6804330121184600F071
:1035600067F80346FB74FB7C002B01D0FB7CBB742B
:103570007B681B6803F48043002B2FD02B4BD3F8C0
:10358000883023F040527B689B6F28491343C1F871
:1035900088307B689B6FB3F1805F0DD17B6804330B
:1035A0000221184600F044F80346FB74FB7C002B14
:1035B00014D0FB7CBB7411E07B689B6FB3F1005FA0
:1035C0000CD17B6820330221184600F025F9034610
:1035D000FB74FB7C002B01D0FB7CBB747B681B68FD
:1035E00003F40043002B0AD0104BD3F8883023F0AB
:1035F00080427B68DB6F0D491343C1F888307B68DC
:103600001B6803F48033002B0BD0084BD3F88830B1
:1036100023F000427B68D3F8803004491343C1F89B
:103620008830BB7C18461837BD4680BD001002406C
:1036300080B584B000AF786039600023FB73754BB0
:10364000DB6803F00303002B18D0724BDB6803F038
:1036500003027B681B689A420DD17B681B68002BB4
:1036600009D06C4BDB681B0903F007035A1C7B680D
:103670005B689A4247D00123FB7344E07B681B6878
:10368000032B18D0032B25D8012B02D0022B09D0F5
:1036900020E0604B1B6803F00203002B1DD10123C7
:1036A000FB731AE05B4B1B6803F48063002B16D19D
:1036B0000123FB7313E0574B1B6803F40033002B0B
:1036C0000FD1544B1B6803F48023002B09D1012335
:1036D000FB7306E00123FB7304E000BF02E000BFC0
:1036E00000E000BFFB7B002B0DD14A4BDB6823F0D1
:1036F00073027B6819687B685B68013B1B010B43A5
:1037000044491343CB60FB7B002B7DD1414B1B68AD
:10371000404A23F080631360FEF7B6FAB86009E010
:10372000FEF7B2FA0246BB68D31A022B02D9032372
:10373000FB7305E0374B1B6803F00063002BEFD1F0
:10374000FB7B002B60D13B68002B11D1314B1B69F7
:1037500023F41F3323F440737A68926811027A6865
:10376000D268120952040A432A4913430B6127E025
:103770003B68012B12D1274B1B6923F4C00323F4B0
:10378000FE437A68926811027A6812695208013A17
:1037900052050A431F4913430B6111E01D4B1B697E
:1037A00023F0C06323F4FE437A68926811027A68BA
:1037B00052695208013A52060A43164913430B61F3
:1037C000144B1B68134A43F080631360FEF75CFAE6
:1037D000B86009E0FEF758FA0246BB68D31A022B1C
:1037E00002D90323FB7305E00A4B1B6803F0006357
:1037F000002BEFD0FB7B002B06D1064B1A697B68B0
:103800009B69044913430B61FB7B18461037BD4687
:1038100080BD00BF0010024080B584B000AF78606A
:1038200039600023FB736A4BDB6803F00303002B52
:1038300018D0674BDB6803F003027B681B689A4271
:103840000DD17B681B68002B09D0614BDB681B091D
:1038500003F007035A1C7B685B689A4247D0012338
:10386000FB7344E07B681B68032B18D0032B25D81F
:10387000012B02D0022B09D020E0554B1B6803F02E
:103880000203002B1DD10123FB731AE0504B1B6870
:1038900003F48063002B16D10123FB7313E04C4B20
:1038A0001B6803F40033002B0FD1494B1B6803F452
:1038B0008023002B09D10123FB7306E00123FB7356
:1038C00004E000BF02E000BF00E000BFFB7B002B74
:1038D0000DD13F4BDB6823F073027B6819687B686E
:1038E0005B68013B1B010B4339491343CB60FB7BF6
:1038F000002B67D1364B1B68354A23F08053136089
:10390000FEF7C2F9B86009E0FEF7BEF90246BB68EF
:10391000D31A022B02D90323FB7305E02C4B1B683F
:1039200003F00053002BEFD1FB7B002B4AD13B6807
:10393000002B11D1264B5B6923F41F3323F4407312
:103940007A68926811027A68D268120952040A43AE
:103950001F4913434B6111E01D4B5B6923F0C063AA
:1039600023F4FE437A68926811027A681269520859
:10397000013A52060A43164913434B61144B1B6824
:10398000134A43F080531360FEF77EF9B86009E0F4
:10399000FEF77AF90246BB68D31A022B02D9032339
:1039A000FB7305E00A4B1B6803F00053002BEFD0BC
:1039B000FB7B002B06D1064B5A697B685B69044987
:1039C00013434B61FB7B18461037BD4680BD00BFDB
:1039D0000010024080B582B000AF78607B68002B99
:1039E00001D1012340E07B689B6F002B06D17B68EF
:1039F000002283F874207868FEF728F87B68242278
:103A00009A677B681B681A687B681B6822F0010252
:103A10001A60786800F026FB0346012B01D10123D0
:103A200022E07B685B6A002B02D0786800F0A4FD7E
:103A30007B681B685A687B681B6822F490425A6056
:103A40007B681B689A687B681B6822F02A029A6070
:103A50007B681B681A687B681B6842F001021A6069
:103A6000786800F02BFE034618460837BD4680BD37
:103A700080B58AB002AFF860B9603B601346FB8046
:103A8000FB689B6F202B40F08280BB68002B02D02C
:103A9000FB88002B01D101237AE0FB6893F8743096
:103AA000012B01D1022373E0FB68012283F874200B
:103AB000FB680022C3F88020FB6821229A67FEF78A
:103AC000E3F87861FB68FA88A3F85020FB68FA886D
:103AD000A3F85220FB689B68B3F5805F08D1FB68B0
:103AE0001B69002B04D10023FB61BB68BB6103E0B1
:103AF000BB68FB610023BB61FB68002283F8742074
:103B00002DE03B6800937B6900228021F86800F07B
:103B10001EFE0346002B01D0032339E0FB69002B76
:103B20000BD1BB691A88FB681B68C2F3080292B20A
:103B30001A85BB690233BB6108E0FB691A78FB6830
:103B40001B6892B21A85FB690133FB61FB68B3F80D
:103B500052309BB2013B9AB2FB68A3F85220FB683B
:103B6000B3F852309BB2002BCBD13B6800937B69FA
:103B700000224021F86800F0EAFD0346002B01D046
:103B8000032305E0FB6820229A67002300E002235C
:103B900018462037BD4680BD80B584B000AFF860C0
:103BA000B9601346FB80FB68DB6F202B31D1BB680B
:103BB000002B02D0FB88002B01D101232AE0FB68F7
:103BC00093F87430012B01D1022323E0FB6801221A
:103BD00083F87420FB6800221A66FB681B680F4A92
:103BE00093420ED0FB681B685B6803F40003002B54
:103BF00007D0FB681B681A68FB681B6842F080628C
:103C00001A60FB881A46B968F86800F01DFE034682
:103C100000E0022318461037BD4680BD00800040FA
:103C200080B588B000AF78607B681B68DB69FB619A
:103C30007B681B681B68BB617B681B689B687B613A
:103C4000FA6940F60F0313403B613B69002B13D127
:103C5000FB6903F02003002B0ED0BB6903F02003A7
:103C6000002B09D07B685B6E002B00F0CE817B6857
:103C70005B6E78689847C8E13B69002B00F0E380F1
:103C80007B6903F00103002B05D1BA69A64B1340F1
:103C9000002B00F0D880FB6903F00103002B10D04B
:103CA000BB6903F48073002B0BD07B681B68012277
:103CB0001A627B68D3F8803043F001027B68C3F856
:103CC0008020FB6903F00203002B10D07B6903F016
:103CD0000103002B0BD07B681B6802221A627B68F1
:103CE000D3F8803043F004027B68C3F88020FB697E
:103CF00003F00403002B10D07B6903F00103002BB9
:103D00000BD07B681B6804221A627B68D3F8803072
:103D100043F002027B68C3F88020FB6903F00803CC
:103D2000002B15D0BB6903F02003002B04D17B6965
:103D300003F00103002B0BD07B681B6808221A627A
:103D40007B68D3F8803043F008027B68C3F880209A
:103D5000FB6903F40063002B11D0BB6903F080639F
:103D6000002B0CD07B681B684FF400621A627B68E2
:103D7000D3F8803043F020027B68C3F880207B6852
:103D8000D3F88030002B00F04281FB6903F0200360
:103D9000002B0CD0BB6903F02003002B07D07B68FD
:103DA0005B6E002B03D07B685B6E786898477B68FE
:103DB000D3F88030FB607B681B689B6803F040038E
:103DC000402B04D0FB6803F02803002B31D0786827
:103DD00000F0C2FD7B681B689B6803F04003402B2A
:103DE00023D17B681B689A687B681B6822F04002BD
:103DF0009A607B681B6F002B13D07B681B6F4B4A4C
:103E00009A637B681B6F1846FEF7BDF80346002BCC
:103E100017D07B681B6F9B6B7A68126F10469847B0
:103E20000FE0786800F008F90BE0786800F004F91A
:103E300007E0786800F000F97B680022C3F8802072
:103E4000E5E000BFE3E07B681B6E012B40F0A9803A
:103E5000FB6903F01003002B00F0A380BB6903F0A3
:103E60001003002B00F09D807B681B6810221A62F3
:103E70007B681B689B6803F04003402B58D17B682C
:103E80001B6F1B685B683B813B89002B00F0C18086
:103E90007B68B3F858303A899A4280F0BA807B68E0
:103EA0003A89A3F85A207B681B6F1B681B6803F0D4
:103EB0002003002B2AD17B681B681A687B681B686B
:103EC00022F480721A607B681B689A687B681B68A2
:103ED00022F001029A607B681B689A687B681B6805
:103EE00022F040029A607B682022DA677B68002219
:103EF0001A667B681B681A687B681B6822F01002D0
:103F00001A607B681B6F1846FDF7FFFF7B68B3F8EC
:103F100058207B68B3F85A309BB2D31A9BB219462B
:103F2000786800F093F874E020010004B7490008B5
:103F30007B68B3F858207B68B3F85A309BB2D31A29
:103F40007B817B68B3F85A309BB2002B63D07B89AE
:103F5000002B60D07B681B681A687B681B6822F4A2
:103F600090721A607B681B689A687B681B6822F0F5
:103F700001029A607B682022DA677B6800221A6659
:103F80007B6800225A667B681B681A687B681B681E
:103F900022F010021A607B891946786800F056F802
:103FA00039E0FB6903F48013002B0DD07B6903F427
:103FB0008003002B08D07B681B684FF480121A62C4
:103FC000786800F0FFFD29E0FB6903F08003002B17
:103FD0000DD0BB6903F08003002B08D07B689B6E7B
:103FE000002B1AD07B689B6E7868984715E0FB69B8
:103FF00003F04003002B11D0BB6903F04003002BFA
:104000000CD0786800F0EDFC08E000BF06E000BFCF
:1040100004E000BF02E000BF00E000BF2037BD4663
:1040200080BD00BF80B483B000AF786000BF0C37A4
:10403000BD465DF8047B704780B483B000AF786004
:1040400000BF0C37BD465DF8047B704780B483B079
:1040500000AF78600B467B8000BF0C37BD465DF833
:10406000047B7047B0B588B000AF78600023BB76A2
:104070007B689A687B681B691A437B685B691A4393
:104080007B68DB691343FB617B681B681A68AD4B77
:1040900013407A681268F9690B4313607B681B68E8
:1040A0005B6823F440517B68DA687B681B680A43CD
:1040B0005A607B689B69FB617B681B68A24A9342DC
:1040C00004D07B681B6AFA691343FB617B681B6839
:1040D0009B6823F430617B681B68FA690A439A6025
:1040E0007B681B68994A934221D1994BD3F8883059
:1040F00003F00303032B17D801A252F823F000BFEB
:10410000114100081D410008174100082341000823
:104110000123FB76E7E00223FB76E4E00423FB7651
:10412000E1E00823FB76DEE01023FB76DBE07B6832
:104130001B68884A934232D1854BD3F8883003F00C
:104140000C030C2B28D801A252F823F0814100085F
:104150009941000899410008994100088D410008E3
:1041600099410008994100089941000887410008D9
:1041700099410008994100089941000893410008BD
:104180000023FB76AFE00223FB76ACE00423FB7652
:10419000A9E00823FB76A6E01023FB76A3E07B686A
:1041A0001B686D4A934220D1694BD3F8883003F0E5
:1041B0003003302B13D0302B14D8202B09D0202BD8
:1041C00010D8002B02D0102B06D00BE00023FB767A
:1041D00089E00223FB7686E00423FB7683E0082354
:1041E000FB7680E01023FB767DE07B681B685B4AF2
:1041F000934220D1564BD3F8883003F0C003C02B34
:1042000013D0C02B14D8802B09D0802B10D8002BB2
:1042100002D0402B06D00BE00023FB7663E00223A4
:10422000FB7660E00423FB765DE00823FB765AE032
:104230001023FB7657E07B681B68494A934225D1DF
:10424000434BD3F8883003F44073B3F5407F17D065
:10425000B3F5407F17D8B3F5007F0BD0B3F5007FDF
:1042600011D8002B03D0B3F5807F06D00BE00023DC
:10427000FB7638E00223FB7635E00423FB7632E060
:104280000823FB762FE01023FB762CE07B681B686D
:104290002D4A934225D12E4BD3F8883003F4406346
:1042A000B3F5406F17D0B3F5406F17D8B3F5006F73
:1042B0000BD0B3F5006F11D8002B03D0B3F5806F8E
:1042C00006D00BE00023FB760DE00223FB760AE02C
:1042D0000423FB7607E00823FB7604E01023FB763B
:1042E00001E01023FB767B681B68174A934240F07D
:1042F0008780FB7E082B37D801A252F823F000BF3D
:1043000025430008694300082D430008694300085D
:104310003343000869430008694300086943000803
:104320003B430008FEF70EFE786122E00D4B7B61F7
:104330001FE0FEF76FFD78611BE04FF400437B61E7
:1043400017E000BFF369FFEF008000400038014034
:10435000001002400044004000480040004C004073
:10436000005000400024F40000237B610123BB7651
:1043700000BF7B69002B00F0F1807B685A68134610
:104380005B0013447A699A4205D37B685B681B0320
:104390007A699A4202D90123BB76DFE07B6918462D
:1043A0004FF000014FF000024FF000030B0243EA10
:1043B0001063020279684968490808464FF0000115
:1043C000141843EB01057B685B681A464FF0000345
:1043D00020462946FCF758FC02460B4613463B6133
:1043E0003B69B3F5407F08D33B69B3F5801F04D226
:1043F0007B681B683A69DA60B0E00123BB76ADE008
:104400007B68DB69B3F5004F5CD1FB7E082B28D8B5
:1044100001A252F823F000BF3D44000845440008C3
:104420004D440008634400085344000863440008F6
:1044300063440008634400085B440008FEF782FD03
:10444000786113E0FEF794FD78610FE0494B7B61E2
:104450000CE0FEF7DFFC786108E04FF400437B617D
:1044600004E000237B610123BB7600BF7B69002B46
:1044700074D07B695A007B685B685B081A447B6870
:104480005B68B2FBF3F39BB23B613B690F2B16D920
:104490003B69B3F5803F12D23B699BB223F00F0317
:1044A000FB813B695B089BB203F007039AB2FB896F
:1044B0001343FB817B681B68FA89DA604EE00123B5
:1044C000BB764BE0FB7E082B27D801A252F823F0E5
:1044D000F5440008FD440008054500081B45000898
:1044E0000B4500081B4500081B4500081B4500083C
:1044F00013450008FEF726FD786113E0FEF738FD4E
:1045000078610FE01B4B7B610CE0FEF783FC786168
:1045100008E04FF400437B6104E000237B6101234A
:10452000BB7600BF7B69002B18D07B685B685A089C
:104530007B691A447B685B68B2FBF3F39BB23B6117
:104540003B690F2B08D93B69B3F5803F04D27B68E8
:104550001B683A69DA6001E00123BB767B680022C0
:104560005A667B6800229A66BB7E18462037BD4695
:10457000B0BD00BF0024F40080B483B000AF786009
:104580007B685B6A03F00103002B0AD07B681B6821
:104590005B6823F400317B689A6A7B681B680A4376
:1045A0005A607B685B6A03F00203002B0AD07B68C9
:1045B0001B685B6823F480317B68DA6A7B681B6860
:1045C0000A435A607B685B6A03F00403002B0AD03D
:1045D0007B681B685B6823F480217B681A6B7B68AF
:1045E0001B680A435A607B685B6A03F00803002B70
:1045F0000AD07B681B685B6823F400417B685A6BB8
:104600007B681B680A435A607B685B6A03F010038F
:10461000002B0AD07B681B689B6823F480517B6861
:104620009A6B7B681B680A439A607B685B6A03F03D
:104630002003002B0AD07B681B689B6823F4005181
:104640007B68DA6B7B681B680A439A607B685B6AED
:1046500003F04003002B1AD07B681B685B6823F4CF
:1046600080117B681A6C7B681B680A435A607B6800
:104670001B6CB3F5801F0AD17B681B685B6823F451
:10468000C0017B685A6C7B681B680A435A607B6870
:104690005B6A03F08003002B0AD07B681B685B68B1
:1046A00023F400217B689A6C7B681B680A435A607C
:1046B00000BF0C37BD465DF8047B704780B586B0FF
:1046C00002AF78607B680022C3F88020FDF7DCFA37
:1046D000F8607B681B681B6803F00803082B0ED189
:1046E0006FF07E430093FB6800224FF4001178685E
:1046F00000F02DF80346002B01D0032323E07B6854
:104700001B681B6803F00403042B0ED16FF07E437B
:104710000093FB6800224FF48001786800F017F8DE
:104720000346002B01D003230DE07B6820229A670B
:104730007B682022DA677B6800221A667B68002289
:1047400083F87420002318461037BD4680BD80B51D
:1047500084B000AFF860B9603B601346FB715EE067
:10476000BB69B3F1FF3F5AD0FDF78EFA02463B68B2
:10477000D31ABA699A4202D3BB69002B1BD1FB68DA
:104780001B681A68FB681B6822F4D0721A60FB6809
:104790001B689A68FB681B6822F001029A60FB683C
:1047A00020229A67FB682022DA67FB68002283F8E0
:1047B0007420032343E0FB681B681B6803F00403B9
:1047C000002B2CD0FB681B68DB6903F40063B3F596
:1047D000006F24D1FB681B684FF400621A62FB680B
:1047E0001B681A68FB681B6822F4D0721A60FB68A9
:1047F0001B689A68FB681B6822F001029A60FB68DC
:1048000020229A67FB682022DA67FB682022C3F81F
:104810008020FB68002283F8742003230FE0FB68EC
:104820001B68DA69BB681340BA689A420CBF01235F
:104830000023DBB21A46FB799A4291D00023184636
:104840001037BD4680BD000080B485B000AFF86071
:10485000B9601346FB80FB68BA685A65FB68FA8842
:10486000A3F85820FB68FA88A3F85A20FB680022B6
:104870005A66FB689B68B3F5805F0ED1FB681B69C5
:10488000002B05D1FB6840F2FF12A3F85C202DE05D
:10489000FB68FF22A3F85C2028E0FB689B68002BE4
:1048A0000DD1FB681B69002B04D1FB68FF22A3F824
:1048B0005C201BE0FB687F22A3F85C2016E0FB680D
:1048C0009B68B3F1805F0DD1FB681B69002B04D19D
:1048D000FB687F22A3F85C2008E0FB683F22A3F876
:1048E0005C2003E0FB680022A3F85C20FB68002248
:1048F000C3F88020FB682222DA67FB681B689A688D
:10490000FB681B6842F001029A60FB689B68B3F584
:10491000805F07D1FB681B69002B03D1FB680C4A41
:104920005A6602E0FB680B4A5A66FB68002283F86D
:104930007420FB681B681A68FB681B6842F490725D
:104940001A60002318461437BD465DF8047B704793
:10495000ED4A0008154A000880B483B000AF7860C3
:104960007B681B681A687B681B6822F490721A6067
:104970007B681B689A687B681B6822F001029A605A
:104980007B681B6E012B07D17B681B681A687B68EC
:104990001B6822F010021A607B682022DA677B68AD
:1049A00000221A667B6800225A6600BF0C37BD469B
:1049B0005DF8047B704780B584B000AF78607B6899
:1049C0009B6AFB60FB680022A3F85A20FB68002268
:1049D000A3F85220F868FFF72FFB00BF1037BD4641
:1049E00080BD80B582B000AF78607B681B681A68B4
:1049F0007B681B6822F040021A607B6820229A675D
:104A00007B6800229A667868FFF70CFB00BF0837C6
:104A1000BD4680BD80B584B000AF78607B68B3F8D8
:104A20005C30FB817B68DB6F222B51D17B681B687C
:104A30009B8CBB81BB89D9B2FB89DAB27B685B6D89
:104A40000A40D2B21A707B685B6D5A1C7B685A654B
:104A50007B68B3F85A309BB2013B9AB27B68A3F8EB
:104A60005A207B68B3F85A309BB2002B3AD17B684E
:104A70001B681A687B681B6822F490721A607B6856
:104A80001B689A687B681B6822F001029A607B6849
:104A90002022DA677B6800225A667B681B6E012B36
:104AA0000FD17B681B681A687B681B6822F01002B4
:104AB0001A607B68B3F8583019467868FFF7C6FA71
:104AC00002E07868FCF7DEFB7B6800221A6609E0EA
:104AD0007B681B681B8B9AB27B681B6842F00802DC
:104AE00092B21A8300BF1037BD4680BD80B584B036
:104AF00000AF78607B68B3F85C30FB817B68DB6F6C
:104B0000222B51D17B681B689B8CBB817B685B6DC2
:104B1000BB60BA89FB8913409AB2BB681A807B6874
:104B20005B6D9A1C7B685A657B68B3F85A309BB200
:104B3000013B9AB27B68A3F85A207B68B3F85A30DD
:104B40009BB2002B3AD17B681B681A687B681B6894
:104B500022F490721A607B681B689A687B681B68F5
:104B600022F001029A607B682022DA677B680022CB
:104B70005A667B681B6E012B0FD17B681B681A6815
:104B80007B681B6822F010021A607B68B3F858300B
:104B900019467868FFF75AFA02E07868FCF772FB6A
:104BA0007B6800221A6609E07B681B681B8B9AB23F
:104BB0007B681B6842F0080292B21A8300BF10376C
:104BC000BD4680BD80B483B000AF786000BF0C37B5
:104BD000BD465DF8047B704780B582B000AF786059
:104BE00039600B4A7B681A607B680433184600F012
:104BF0005AFA7B6800221A777B6800225A777B6812
:104C00003A681A627B6818460837BD4680BD00BF07
:104C1000509B000880B582B000AF7860064A7B6880
:104C20001A607B680433184600F044FA7B68184623
:104C30000837BD4680BD00BF509B000880B582B0DC
:104C400000AF78607868FFF7E5FF2421786800F00E
:104C5000B5F97B6818460837BD4680BD80B582B07F
:104C600000AF78607B68186A7B681C3301221946A4
:104C7000FEF792FF00BF0837BD4680BD80B582B009
:104C800000AF78607B681B7F0D2B03D17B6801220E
:104C90005A7707E07B681A1D7B681B7F1946104610
:104CA00000F032FA7B68186A7B681C3301221946CF
:104CB000FEF772FF00BF0837BD4680BD80B582B0E9
:104CC00000AF78607B6800225A777B6800221A77F1
:104CD0007B680433184600F0F3F900BF0837BD467F
:104CE00080BD0000F0B589B000AFF860B9607A60AF
:104CF0003B606B461E460023FB77F868FFF7DEFF3C
:104D0000B868FBF7B5FA034603331C46BC6123467B
:104D1000013318464FF000014FF000024FF000033E
:104D2000CB0043EA5073C2002346013318464FF0CC
:104D300000014FF000024FF00003CB0043EA507334
:104D4000C200234601330733DB08DB00ADEB030D64
:104D50006B4600337B617B6900221A705A1C631E0C
:104D6000002B04DB002111700132013BF8E77B6965
:104D7000BA682049184601F0E1F9FB681C6A7D69B0
:104D80007B691846FBF774FA03469AB23B682946DA
:104D90002046FEF76DFEFCF777FF3861FB7F002BA6
:104DA00022D1FCF771FF02463B69D31A3A689A4256
:104DB00094BF01230023DBB2002B14D1FB68043322
:104DC000184600F0A7F903467968184601F0DEF9A5
:104DD0000346002B14BF01230023DBB2002BDDD0E0
:104DE0000123FB77DAE700BFFB7FB546184624377F
:104DF000BD46F0BDC09A000880B582B000AF7860B3
:104E000039600B4A7B681A607B680433184600F0EF
:104E10004AF97B6800221A777B6800225A777B6800
:104E20003A681A627B6818460837BD4680BD00BFE5
:104E3000609B000880B582B000AF7860064A7B684E
:104E40001A607B680433184600F034F97B68184612
:104E50000837BD4680BD00BF609B000880B582B0AA
:104E600000AF78607868FFF7E5FF2421786800F0EC
:104E7000A5F87B6818460837BD4680BD80B582B06E
:104E800000AF78607B68186A7B681C330122194682
:104E9000FEF782FE00BF0837BD4680BD80B582B0F8
:104EA00000AF78607B681B7F0D2B03D17B680122EC
:104EB0005A7707E07B681A1D7B681B7F19461046EE
:104EC00000F022F97B68186A7B681C3301221946BE
:104ED000FEF762FE00BF0837BD4680BD90B583B0C7
:104EE00000AF786039607B681C6A3868FBF7C0F9EE
:104EF00003469AB24FF4FA6339682046FEF7B8FDCC
:104F000000BF0C37BD4690BDF0B585B000AF7860EE
:104F100039606B461E463868FBF7AAF90346013331
:104F20001C46FC602346013318464FF000014FF049
:104F300000024FF00003CB0043EA5073C200234647
:104F4000013318464FF000014FF000024FF000030C
:104F5000CB0043EA5073C200234601330733DB081A
:104F6000DB00ADEB030D6B460033BB60BB6800227A
:104F70001A705A1C631E002B04DB002111700132D1
:104F8000013BF8E7BB683A680B49184601F0D6F8D0
:104F90007B681C6ABD68BB681846FBF769F9034665
:104FA0009AB24FF4FA6329462046FEF761FDB546F2
:104FB00000BF1437BD46F0BDFC9A000800F0ACB845
:104FC0000AB100F00DB9704708B50B68B3F1804F16
:104FD00002D30D4800F0B6F893420BD9B3EB420F61
:104FE0004FEA420006D2B0F1804F2ABF6FF0404333
:104FF00008600B600868013001D500F0A0F8BDE83A
:10500000084000F08BB800BF689B000850F8083BD0
:10501000834202D0184600F07FB87047012A10B5CD
:1050200002D10A78027010BDFFF7CAFFFBE72DE935
:10503000F3470A9E1F46436801EB0208B21A1A445E
:10504000A3EB08090346019253F8082B9A4218BFB4
:1050500082680D4608BF0F2201A90446FFF7B4FF7E
:1050600082461DB121682A46FFF7D8FF37B12EB11D
:10507000324639460AEB0500FFF7D0FFB9F1000FC1
:1050800007D0216835444A4641440AEB0500FFF742
:10509000C5FF2046FFF7BAFF019BC4F800A0A3603C
:1050A00002B0BDE8F08700F1080202600022426011
:1050B0000272704710B50446FFF7A8FF204610BDE6
:1050C000026800234360137070470346F7B553F836
:1050D000082B46689A4218BF836806F1010508BF8D
:1050E0000F239D4204460F4606D901230093002357
:1050F0001A463146FFF79BFF23689F55236865607A
:1051000000225A5503B0F0BD10B50446FFF7DDFF8D
:10511000204610BD0068704700F05AB8012838BF1B
:10512000012010B50446204600F04AF830B900F0DE
:105130000DF808B900F012F88047F4E710BD08B583
:1051400000F00CF808B500F009F80000024B1868F0
:10515000BFF35B8F704700BF8402002008B50620B4
:1051600000F0D0FF0120FCF731FB0000014B186874
:10517000704700BF4000002070B50D4D0D4C641B02
:10518000A4100026A64209D10B4D0C4C04F066FC7D
:10519000641BA4100026A64205D170BD55F8043B3F
:1051A00098470136EEE755F8043B98470136F2E799
:1051B0003CA000083CA000083CA0000844A0000857
:1051C000024B0146186800F08BB800BF4000002079
:1051D000024B0146186800F033B800BF40000020C1
:1051E0000A44914200F1FF3300D1704710B511F825
:1051F000014B03F8014F9142F9D110BD884210B51F
:1052000001EB020402D98442234607D8431EA1427F
:1052100008D011F8012B03F8012FF8E702440146EA
:105220008A4200D110BD13F8014D02F8014DF7E795
:1052300002440346934200D1704703F8011BF9E78B
:1052400037B5002948D051F8043C0190002BA1F15A
:105250000404B8BFE41803F065F8204A0198136805
:10526000154633B96360146003B0BDE8304003F005
:105270005FB8A3420BD921686218934204BF1A6831
:105280005B68636004BF521822602C60ECE71A462A
:105290005B680BB1A342FAD911685518A5420BD12E
:1052A000246821445418A3421160DDD11C685B6856
:1052B000536021441160D7E702D90C230360D3E780
:1052C000256861198B4204BF19685B68636004BF7D
:1052D000491921605460C7E703B030BD880200203F
:1052E000F8B5CD1C25F0030508350C2D38BF0C256D
:1052F000002D064601DBA94203D90C2333600020B0
:10530000F8BD03F00FF821490A6814469CB9204FF4
:105310003B6823B92146304600F0B6FE3860294686
:10532000304600F0B1FE431C23D10C2333603046DD
:1053300002F0FEFFE3E723685B1B17D40B2B03D9B6
:1053400023601C44256004E06368A2420CBF0B602C
:105350005360304602F0ECFF04F10B00231D20F0F7
:105360000700C21ACCD01B1AA350C9E722466468B2
:10537000CCE7C41C24F00304A042E3D0211A304639
:1053800000F082FE0130DDD1CFE700BF88020020AF
:105390008C0200202DE9FF4755EC104B002D0E46E6
:1053A00019462B46BBBF05F100431D4600232D23A4
:1053B0000B700D9BDDF830A0914623F02008BCBF98
:1053C00022461446B8F1460F05D0B8F1450F00D17A
:1053D0000136022100E0032103AB019302AB0093ED
:1053E00045EC104B5346324601F02AFEB8F1470F08
:1053F000074602D119F0010F22D0B8F1460F07EB92
:10540000060910D13B78302B0AD100220023204618
:105410002946FBF759FB18B9C6F10106CAF8006026
:10542000DAF8003099440022002320462946FBF791
:105430004BFB08B1CDF80C903022039B4B4507D3B2
:10544000039B0E9ADB1B3846136004B0BDE8F0875F
:10545000591C03911A70F0E7F7B503460029B8BF4D
:10546000494203F8022BB4BF2D222B220929427096
:105470002ADD0DF10704A4460A27A6460A4691FB39
:10548000F7F607FB16153035632A04F1FF340EF8E2
:10549000015C3146F1DC3031AEF1020504F8011C4B
:1054A000441C294661450AD30DF10902A2EB0E0204
:1054B000654588BF00221344181A03B0F0BD11F8E7
:1054C000012B04F8012FEDE7302330318370C170D8
:1054D000031DF1E72DE9F04F2DED028B8DB00C4649
:1054E000DDF8608016461F46054602F005FFD0F83D
:1054F00000A05046FAF7BCFE00230A9323680593E8
:10550000D8F8003094F818B0073323F0070303F1FC
:105510000802C8F80020D3E90023C4E91223D4E923
:10552000128929F000430793CDF8188008EE100A7D
:105530009F4BDDE906014FF0FF32FBF7F7FA88BB1E
:10554000DDE906019A4B4FF0FF32FBF7D1FA48BB79
:105550000022002340464946FBF7C0FA10B12D2334
:1055600084F84330934B9448BBF1470F94BF98465F
:10557000804603232361059B23F0040222604FF041
:105580000009009733460BAA2146284600F0D8F9B7
:10559000013040F090804FF0FF300DB0BDEC028B39
:1055A000BDE8F08F42464B4640464946FBF7BEFAFF
:1055B00040B14B46002BBCBF2D2384F843307F48BD
:1055C0007F4BD1E763680BF0DF0206925A1C3FD194
:1055D00006236360059B616843F4806200230393A4
:1055E0000AABCDE901B309AB49EC108B0093226003
:1055F0000DF123032846FFF7CDFE069B0999472BA3
:10560000804608D1C81C02DB6368994241DDABF1DA
:10561000020B5FFA8BFBBBF1650F20D801395A46AC
:1056200004F150000991FFF717FF0A9A1318012A95
:105630008146236102DC2268D20701D50133236150
:105640009DF82330002B9CD02D2384F8433098E71D
:10565000069A472ABED1002BBCD10123B9E7BBF182
:10566000660F18D1002963680BDD216113B9226828
:10567000D00702D501330B442361A1654FF0000927
:10568000DEE713B92268D20701D50233F4E701231C
:10569000F2E74FF0670B0A9B994205DB2368216113
:1056A000D807EAD54B1CE7E70029D4BFC1F10202B5
:1056B00001221344E0E723685A0507D423694246D0
:1056C00031462846B84701302CD164E7BBF1650F5D
:1056D00040F2E080D4E9120100220023FBF7F4F944
:1056E000002834D0374A012331462846B8470130D4
:1056F0003FF451AFDDE909239A4202DB2368D80762
:1057000010D518EE103A524631462846B8470130B7
:105710003FF441AF4FF0000804F11A090A9B013B26
:10572000434509DC23689B0700F10581E0680B9B7A
:105730009842B8BF184630E701234A46314628460A
:10574000B84701303FF427AF08F10108E6E7099BAD
:10575000002B39DC1B4A012331462846B84701306B
:105760003FF419AFDDE90923134302D12368D907B8
:10577000D8D518EE103A524631462846B84701307F
:105780003FF409AF4FF0000904F11A0A099B5B428C
:105790004B4501DC0A9B92E70123524631462846DD
:1057A000B84701303FF4F7AE09F10109EEE700BF59
:1057B000FFFFEF7F849B0008889B0008909B0008F8
:1057C0008C9B0008949B00080A9AA36D9A42A8BF7C
:1057D0001A46002A914637DC4FF0000B29EAE97996
:1057E00004F11A02A36D0593A3EB09035B4533DCB7
:1057F000DDE909239A423BDB2368DA0738D40A9AA9
:10580000059B0999D31AA2EB01099945A8BF9946AE
:10581000B9F1000F35DC4FF0000829EAE97904F10D
:105820001A0ADDE909239B1AA3EB090343457FF715
:1058300079AF0123524631462846B84701303FF43C
:10584000AAAE08F10108ECE7134631464246284665
:10585000B8470130C0D19EE6012331462846059263
:10586000B84701303FF497AE059A0BF1010BB9E749
:1058700018EE103A524631462846B8470130BED19C
:1058800089E6059A4B46424431462846B8470130DE
:10589000C1D180E60A9A012A01DCDB0738D5012351
:1058A000424631462846B84701303FF474AE18EE00
:1058B000103A524631462846B84701303FF46BAEA5
:1058C000D4E9120100220023FBF7FEF8D8B90A9BA5
:1058D00008F10102013B31462846B84701300ED19C
:1058E00059E60123524631462846B84701303FF475
:1058F00052AE08F101080A9B013B4345F1DC4B46DF
:1059000004F15002DCE64FF0000804F11A0AF2E755
:1059100001234246DFE701234A4631462846B8477D
:1059200001303FF438AE08F10108E3680B995B1AC7
:105930004345F0DCFAE64FF0000804F11909F4E7FA
:105940002DE9F047164699468A680B69DDF82080F4
:105950009342B8BF1346336091F8432007460C4684
:105960000AB1013333602368990642BF33680233BA
:105970003360256815F0060506D104F1190AE368BD
:1059800032689B1AAB4226DC94F84320131E22682F
:1059900018BF012392062BD404F14302494638462E
:1059A000C04701301ED02368E568326803F0060363
:1059B000042B08BFAD1AA36822690CBF25EAE57560
:1059C00000259342C4BF9B1AED1800261A34B54235
:1059D0001AD1002008E00123524649463846C04704
:1059E000013003D14FF0FF30BDE8F0870135C6E745
:1059F000E1185A1C302081F84300224494F84510E5
:105A000082F843100233C7E701232246494638464D
:105A1000C0470130E6D00136D9E700002DE9FF4745
:105A20000C469146277E0C99782F80469A4604F1C1
:105A3000430207D8622F0AD8002F00F0D880582FD1
:105A400000F0A38004F1420684F842703AE0A7F126
:105A50006303152BF6D801A050F823F0B55A0008BF
:105A6000C95A0008455A0008455A0008455A000816
:105A7000455A0008C95A0008455A0008455A000806
:105A8000455A0008455A0008D55B0008F95A000835
:105A9000B75B0008455A0008455A0008F75B000844
:105AA000455A0008F95A0008455A0008455A0008A6
:105AB000BF5B00080B681A1D1B680A6004F14206F0
:105AC00084F842300123A3E0256808682E0600F11F
:105AD00004030AD505680B60002D03DA2D236D42FF
